:100000000C9446000C945D000C945D000C945D0013
:100010000C945D000C945D000C945D000C945D00EC
:100020000C945D000C945D000C945D000C945D00DC
:100030000C945D000C945D000C945D000C945D00CC
:100040000C945D000C945D000C945D000C945D00BC
:100050000C945D000C945D000C945D000C945D00AC
:100060000C945D000C945D000C945D000C945D009C
:100070000C945D000C945D000C945D000C945D008C
:100080000C945D000C945D000C945D0011241FBE67
:10009000CFEFD0E1DEBFCDBF11E0A0E0B1E0EAE2FA
:1000A000F5E000E00BBF02C007900D92A030B10751
:1000B000D9F70E9471020C9493020C940000DF9314
:1000C000CF93CDB7DEB7EBE3F0E01082EAE3F0E0E8
:1000D0001082E8E3F0E01082E7E3F0E01082E5E36D
:1000E000F0E01082E4E3F0E08FEF8083E2E3F0E001
:1000F0001082E1E3F0E01082E3E2F0E01082E2E25D
:10010000F0E01082E2E6F0E01082E1E6F0E010823A
:10011000E5E6F0E01082E4E6F0E01082CF91DF91B6
:100120000895DF93CF93CDB7DEB7F894EDE6F0E016
:100130001082ECE6F0E010820E945F00E5E5F0E05E
:100140001082EAE6F0E01082EAE5F0E01082E9E5EC
:10015000F0E01082E7E5F0E01082EDE7F0E01082D9
:100160007894CF91DF910895DF93CF9300D000D0A2
:1001700000D0CDB7DEB789836A8389818F70898388
:100180008A81882309F456C08981282F30E03E8374
:100190002D838D819E818430910509F43FC02D818E
:1001A0003E812530310584F48D819E818230910518
:1001B00079F12D813E81233031053CF58D819E8181
:1001C00081309105F9F033C02D813E812830310511
:1001D00059F18D819E818930910534F42D813E81C4
:1001E00026303105C1F023C08D819E818930910573
:1001F00031F02D813E812C30310599F018C081E01D
:1002000089836DC083E089836AC082E0898367C087
:1002100086E0898364C084E0898361C08CE089833F
:100220005EC088E089835BC089E0898358C08CE028
:10023000898355C08981282F30E03C832B838B81B3
:100240009C818430910509F43FC02B813C8125308D
:10025000310584F48B819C818230910579F12B8169
:100260003C81233031053CF58B819C8181309105A7
:10027000F9F033C02B813C812830310559F18B8155
:100280009C818930910534F42B813C8126303105E5
:10029000C1F023C08B819C818930910531F02B8185
:1002A0003C812C30310599F018C088E0898317C053
:1002B00089E0898314C081E0898311C083E0898348
:1002C0000EC082E089830BC086E0898308C084E089
:1002D000898305C08CE0898302C08CE08983898191
:1002E00026960FB6F894DEBF0FBECDBFCF91DF913B
:1002F0000895DF93CF9300D000D000D0CDB7DEB704
:1003000089836A838981807F89838A81882309F42C
:1003100056C08981282F30E03E832D838D819E81B8
:100320008034910509F43FC02D813E81213431058F
:1003300084F48D819E818032910579F12D813E81F9
:100340002033310539F18D819E8180319105F9F09D
:1003500033C02D813E812038310559F18D819E8138
:100360008138910534F42D813E8120363105C1F06C
:1003700023C08D819E818039910531F02D813E8190
:10038000203C310599F018C080E189836DC080E37D
:1003900089836AC080E2898367C080E6898364C0FC
:1003A00080E4898361C080EC89835EC080E88983B2
:1003B0005BC080E9898358C080EC898355C08981FE
:1003C000282F30E03C832B838B819C8180349105E6
:1003D00009F43FC02B813C812134310584F48B81A9
:1003E0009C818032910579F12B813C81203331054C
:1003F00039F18B819C8180319105F9F033C02B81DB
:100400003C812038310559F18B819C8181389105DF
:1004100034F42B813C8120363105C1F023C08B811F
:100420009C818039910531F02B813C81203C310544
:1004300099F018C080E8898317C080E9898314C0C7
:1004400080E1898311C080E389830EC080E28983C3
:100450000BC080E6898308C080E4898305C080ECF6
:10046000898302C080EC8983898126960FB6F8942F
:10047000DEBF0FBECDBFCF91DF910895DF93CF9345
:1004800000D000D000D0CDB7DEB79E838D8381E051
:1004900090E09A83898315C081E090E09C838B83F0
:1004A00005C08B819C8101969C838B838B819C8171
:1004B00022E088359207ACF389819A8101969A836C
:1004C000898329813A818D819E812817390724F3F8
:1004D00026960FB6F894DEBF0FBECDBFCF91DF9149
:1004E0000895DF93CF9300D0CDB7DEB719821A827B
:1004F0000E949100E4E3F0E08FEF80838A8161E065
:100500000E9479018A83898160E00E94B400898316
:1005100083E090E00E943E02E5E3F0E099818A8169
:0A052000892B8083EBCFF894FFCF06
:00000001FF
