:100000000C9446000C9492000C945D000C945D00DE
:100010000C945D000C945D000C945D000C945D00EC
:100020000C945D000C945D000C945D000C945D00DC
:100030000C945D000C945D000C945D000C945D00CC
:100040000C945D000C945D000C945D000C945D00BC
:100050000C945D000C945D000C945D000C945D00AC
:100060000C945D000C945D000C945D000C945D009C
:100070000C945D000C945D000C945D000C945D008C
:100080000C945D000C945D000C945D0011241FBE67
:10009000CFEFD0E1DEBFCDBF11E0A0E0B1E0E6E6FA
:1000A000F2E000E00BBF02C007900D92A030B10754
:1000B000D9F70E9423010C9431010C940000DF93C6
:1000C000CF93CDB7DEB7EBE3F0E01082EAE3F0E0E8
:1000D0001082E8E3F0E01082E7E3F0E01082E5E36D
:1000E000F0E01082E4E3F0E01082E2E3F0E010825E
:1000F000E1E3F0E081E08083E3E2F0E01082E2E21D
:10010000F0E01082E2E6F0E01082E1E6F0E010823A
:10011000E5E6F0E01082E4E6F0E083E08083CF9152
:10012000DF9108951F920F920FB60F9200905B001F
:100130000F9211242F933F934F935F936F937F936D
:100140008F939F93AF93BF93EF93FF93DF93CF93DF
:10015000CDB7DEB7A5E6B0E0E5E6F0E080818160EE
:100160008C9388EE93E00E94F000CF91DF91FF9195
:10017000EF91BF91AF919F918F917F916F915F911F
:100180004F913F912F910F9000925B000F900FBE07
:100190000F901F901895DF93CF93CDB7DEB7F894EB
:1001A000EDE6F0E01082ECE6F0E010820E945F00E5
:1001B000E5E5F0E01082EAE6F0E082E08083EAE53F
:1001C000F0E01082E9E5F0E081E08083E7E5F0E02F
:1001D0001082EDE7F0E010827894CF91DF910895DE
:1001E000DF93CF9300D000D000D0CDB7DEB79E8391
:1001F0008D8381E090E09A83898315C081E090E04F
:100200009C838B8305C08B819C8101969C838B830F
:100210008B819C8123E084389207ACF389819A8199
:1002200001969A83898329813A818D819E8128173D
:10023000390724F326960FB6F894DEBF0FBECDBF64
:10024000CF91DF910895DF93CF93CDB7DEB70E94B2
:10025000CB00A5E6B0E0E5E6F0E080818E7F8C93F0
:06026000F8CFF894FFCF77
:00000001FF
