:100000000C9446000C945D000C945D000C945D0013
:100010000C945D000C945D000C945D000C945D00EC
:100020000C945D000C945D000C945D000C945D00DC
:100030000C945D000C945D000C945D000C945D00CC
:100040000C945D000C945D000C945D000C945D00BC
:100050000C945D000C945D000C945D000C945D00AC
:100060000C945D000C945D000C945D000C945D009C
:100070000C945D000C945D000C945D000C945D008C
:100080000C945D000C945D000C945D0011241FBE67
:10009000CFEFD0E1DEBFCDBF11E0A0E0B1E0EEE7F1
:1000A000F2E000E00BBF02C007900D92A030B10754
:1000B000D9F70E94E9000C943D010C940000DF93F5
:1000C000CF93CDB7DEB7EBE3F0E01082EAE3F0E0E8
:1000D00083E08083E8E3F0E01082E7E3F0E0108261
:1000E000E5E3F0E01082E4E3F0E08FEF8083E2E309
:1000F000F0E01082E1E3F0E08FEF8083E3E2F0E0F4
:100100001082E2E2F0E01082E2E6F0E01082E1E646
:10011000F0E01082E5E6F0E01082E4E6F0E0108224
:10012000CF91DF910895DF93CF93CDB7DEB7F894E9
:10013000EDE6F0E01082ECE6F0E010820E945F0055
:10014000E5E5F0E01082EAE6F0E01082EAE5F0E0B2
:100150001082E9E5F0E01082E7E5F0E01082EDE7DB
:10016000F0E010827894CF91DF910895DF93CF93E0
:1001700000D000D000D0CDB7DEB79E838D8381E064
:1001800090E09A83898315C081E090E09C838B8303
:1001900005C08B819C8101969C838B838B819C8184
:1001A00022E088359207ACF389819A8101969A837F
:1001B000898329813A818D819E812817390724F30B
:1001C00026960FB6F894DEBF0FBECDBFCF91DF915C
:1001D0000895DF93CF93CDB7DEB70E949300E4E399
:1001E000F0E08FEF8083A5E3B0E0E5E3F0E080810D
:1001F00080688C93A5E3B0E0E5E3F0E08081806364
:100200008C93A5E3B0E0E5E3F0E0808182608C931D
:10021000A5E3B0E0E5E3F0E0808188608C93E5E65B
:10022000F0E080818F5F8083A5E3B0E0E5E3F0E05C
:10023000908181E089278C93A5E3B0E0E5E3F0E0CD
:10024000908184E089278C9382E090E00E94B60040
:10025000A5E3B0E0E5E3F0E0908181E089278C93AD
:10026000A5E3B0E0E5E3F0E0908184E089278C939A
:0E02700082E090E00E94B600D2CFF894FFCF5B
:00000001FF
