:100000000C9446000C9465000C9465000C946500FB
:100010000C9465000C9465000C9465000C946500CC
:100020000C9465000C9465000C9465000C946500BC
:100030000C9465000C9465000C9465000C946500AC
:100040000C9465000C9465000C9465000C9465009C
:100050000C9465000C9465000C9465000C9465008C
:100060000C9465000C9465000C9465000C9465007C
:100070000C9465000C9465000C9465000C9465006C
:100080000C9465000C9465000C94650011241FBE4F
:10009000CFEFD0E1DEBFCDBF11E0A0E0B1E0E2E7FD
:1000A000FCE000E00BBF02C007900D92AC32B1073C
:1000B000D9F711E0ACE2B1E001C01D92A435B1075F
:1000C000E1F70E94EC000C9437060C940000982F86
:1000D0005D9BFECF9CB980919B0085FFFCCF9093E8
:1000E0009C0080E090E008955D9BFECF8CB9089560
:1000F000982F80919B0085FFFCCF90939C000895E2
:100100001BBA1ABA18BA17BA15BA14BA12BA11BA6F
:1001100013B812B81092620010926100109265003C
:100120001092640008951AB81BB886E08093950079
:1001300087E689B91092900088E18AB90895EAE9C2
:10014000F0E0108210929B0086E080939D0087E68D
:10015000809399001092980088E18083089520E0B0
:1001600030E006C00F920F900F920F902F5F3F4F1D
:1001700028173907BCF308950F931F93CF93DF938C
:100180008C01C0E0D0E005C088EE93E00E94AF0093
:100190002196C017D107C4F3DF91CF911F910F9122
:1001A0000895F89410926D0010926C000E948000E7
:1001B0000E9493000E949F0087E690E060E070E05C
:1001C0000E94B60115BE10926A001ABE19BE17BE73
:1001D00010927D00789408954F925F926F927F9273
:1001E0008F929F92AF92BF92CF92DF92EF92FF9247
:1001F0000F931F93CF93DF930E94D100C0E0D0E014
:100200000CE211E050E0E52E51E0F52E45E0442EE1
:1002100041E0542E38E0632E31E0732E23E1822E2C
:1002200021E0922E99E1A92E91E0B92E8FE1C82EFE
:1002300081E0D82E2196CE016CE271E04AE050E0D8
:100240000E94950100D000D0ADB7BEB71296FC92C7
:10025000EE92119714961C930E9313970E9402022C
:100260000F900F900F900F9080E991E00E94BC00DA
:1002700000D000D000D0EDB7FEB73196ADB7BEB715
:1002800012961C930E93119753824282D583C48396
:100290000E9414020F900F90EDB7FEB7F282E18238
:1002A000148303830E9402020F900F900F900F900F
:1002B00080E991E00E94BC0000D0ADB7BEB71296B5
:1002C0007C926E9211970E9402020F900F9080E92B
:1002D00091E00E94BC0000D0EDB7FEB7928281820F
:1002E0000E9402020F900F9080E991E00E94BC00F2
:1002F00000D0ADB7BEB71296BC92AE9211970E94D5
:1003000002020F900F9080E991E00E94BC0000D0A3
:10031000EDB7FEB7D282C1820E9402020F900F9009
:1003200080E991E00E94BC0085CFFB019F01E89429
:100330004230C4F04532B4F44A3029F497FB1EF43D
:10034000909581959F4F642F77270E942306805DAB
:100350008A330CF0895D8193CB010097A1F716F4E5
:100360005DE251931082C9010C9489050F931F938C
:10037000CF93DF938C01EB01009731F46115710588
:1003800019F420E030E038C081E090E06EE070E0E9
:100390000E944B04FC019C01009771F180E883836B
:1003A000209771F0D387C28781E8838380914A01C7
:1003B00090914B01892B21F4F0934B01E0934A017A
:1003C00001151105C9F0118700878381826083833D
:1003D00080914C0190914D01892B71F4F0934D0166
:1003E000E0934C0180914E0190914F01892B21F4B3
:1003F000F0934F01E0934E01C901DF91CF911F911E
:100400000F910895DF93CF93CDB7DEB7FE013596F8
:100410006191719180914C0190914D01AF010E94C9
:100420004502CF91DF9108950F931F93DF93CF93F0
:10043000CDB7DEB72E970FB6F894DEBF0FBECDBF97
:100440000D891E8986E08C831A8309838FEF9FE7CD
:100450009E838D839E01275E3F4FCE0101966F895B
:10046000788DA9010E9445022F813885020F131F44
:10047000F80110822E960FB6F894DEBF0FBECDBFE6
:10048000CF91DF911F910F9108952F923F924F923C
:100490005F926F927F928F929F92AF92BF92CF9214
:1004A000DF92EF92FF920F931F93DF93CF93CDB71D
:1004B000DEB72B970FB6F894DEBF0FBECDBF3C0161
:1004C0002B015A01FC0117821682838181FD03C032
:1004D0006FEF7FEFC6C19AE0892E1E010894211CA0
:1004E000311CF3012381F20123FD859123FF8191CA
:1004F0002F01882309F4B2C1853239F423FD859197
:1005000023FF81912F01853229F490E0B3010E94ED
:100510009905E7CF982FFF24EE249924FFE1FF15DA
:10052000D0F09B3269F09C3228F4903259F093322B
:1005300091F40EC09D3249F0903369F441E024C03B
:1005400052E0F52A84E0F82A28C098E0F92A25C06C
:10055000E0E1FE2A22C0F7FC29C0892F80538A30AF
:1005600070F4F6FE05C0989C902C1124980E15C0CE
:10057000E89CE02C1124E80EF0E2FF2A0EC09E3227
:1005800029F4F6FC6BC140E4F42A07C09C3619F448
:1005900050E8F52A02C0983649F4F20123FD9591FE
:1005A00023FF91912F01992309F0B8CF892F85540A
:1005B000833018F08052833038F444E050E0A40EC9
:1005C000B51E5FE359830FC0933631F0933779F04E
:1005D000933509F056C020C0F5018081898342E03F
:1005E00050E0A40EB51E610101E010E012C0F5015B
:1005F000C080D180F6FC03C06FEF7FEF02C0692D91
:1006000070E042E050E0A40EB51EC6010E947E05D7
:100610008C015FE7F52214C0F501C080D180F6FCA3
:1006200003C06FEF7FEF02C0692D70E042E050E041
:10063000A40EB51EC6010E946C058C0150E8F52A77
:10064000F3FE07C01AC080E290E0B3010E94990552
:10065000EA948E2D90E008171907A8F30EC0F60152
:10066000F7FC8591F7FE81916F0190E0B3010E9444
:100670009905E110EA94015010400115110579F730
:10068000EAC0943611F0993669F5F7FE08C0F50115
:10069000208131814281538184E090E00AC0F501DC
:1006A000808191819C01442737FD4095542F82E041
:1006B00090E0A80EB91E9FE6F92257FF09C0509599
:1006C0004095309521953F4F4F4F5F4FE0E8FE2A10
:1006D000CA01B901A1012AE030E00E94C505D82E67
:1006E000D21840C0953729F41F2D1F7E2AE030E034
:1006F0001DC01F2D197F9F3661F0903720F498356B
:1007000009F0ACC00FC0903739F0983709F0A6C097
:1007100004C028E030E00AC0106114FD146020E13C
:1007200030E004C014FD166020E132E017FF08C07D
:10073000F501608171818281938144E050E008C0BD
:10074000F50180819181BC0180E090E042E050E0C1
:10075000A40EB51EA1010E94C505D82ED2188FE7A0
:10076000F82EF122F6FE0BC05EEFF522D91438F414
:10077000F4FE07C0F2FC05C08FEEF82202C01D2D6A
:1007800001C0192DF4FE0DC0FE01ED0DF11D80819B
:10079000803319F499EEF92208C01F5FF2FE05C0FC
:1007A00003C08F2D867809F01F5F0F2DF3FC14C056
:1007B000F0FE0FC01E1510F09D2C0BC09D2C9E0C42
:1007C000911A1E2D06C080E290E0B3010E949905A7
:1007D0001F5F1E15C0F304C01E1510F4E11A01C0FE
:1007E000EE2404FF0FC080E390E0B3010E9499055E
:1007F00002FF1DC001FD03C088E790E00EC088E540
:1008000090E00BC0802F867891F001FF02C08BE250
:1008100001C080E2F7FC8DE290E0B3010E949905EF
:1008200006C080E390E0B3010E9499059A94D91420
:10083000C0F3DA94F101ED0DF11D808190E0B30178
:100840000E949905DD20A9F706C080E290E0B3017F
:100850000E949905EA94EE20C1F743CEF301668128
:100860007781CB012B960FB6F894DEBF0FBECDBFBC
:10087000CF91DF911F910F91FF90EF90DF90CF907C
:10088000BF90AF909F908F907F906F905F904F90B0
:100890003F902F9008950F931F93CF93DF93689FFE
:1008A0008001699F100D789F100D1124C8010E94CE
:1008B0006704EC01009729F060E070E0A8010E9455
:1008C0007705CE01DF91CF911F910F910895CF93BE
:1008D000DF93BC018230910510F462E070E0A091DA
:1008E0005201B0915301ED01E0E0F0E040E050E052
:1008F00021C0888199818617970769F48A819B8135
:10090000309719F09383828304C0909353018093AE
:100910005201FE0134C06817790738F441155105BA
:1009200019F08417950708F4AC01FE018A819B81B8
:100930009C01E9012097E9F641155105A9F1CA0189
:10094000861B970B049708F4BA01E0E0F0E02AC098
:100950008D919C91119784179507F9F46417750789
:1009600081F412968D919C911397309719F093838F
:10097000828304C09093530180935201FD0132960B
:100980004FC0CA01861B970BFD01E80FF91F619349
:10099000719302978D939C9343C0FD018281938153
:1009A0009C01D9011097A1F68091500190915101BD
:1009B000892B41F480912701909128019093510156
:1009C000809350014091290150912A014115510510
:1009D00041F44DB75EB78091250190912601481BE7
:1009E000590B209150013091510124173507B0F473
:1009F000CA01821B930B8617970780F0AB014E5FED
:100A00005F4F8417950750F0420F531F50935101C9
:100A100040935001F9016193719302C0E0E0F0E06E
:100A2000CF01DF91CF910895CF93DF93009709F421
:100A300050C0EC0122971B821A82A0915201B09102
:100A40005301109709F140E050E0AC17BD0708F1E1
:100A5000BB83AA83FE0121913191E20FF31FAE17F0
:100A6000BF0779F48D919C911197280F391F2E5F44
:100A70003F4F3983288312968D919C9113979B83C6
:100A80008A834115510571F4D0935301C0935201EB
:100A900020C012968D919C911397AD01009711F093
:100AA000DC01D3CFFA01D383C28321913191E20FCC
:100AB000F31FCE17DF0769F488819981280F391F4A
:100AC0002E5F3F4FFA01318320838A819B8193837C
:100AD0008283DF91CF910895FC01059061507040B1
:100AE0000110D8F7809590958E0F9F1F0895DC0117
:100AF00001C06D9341505040E0F70895FC016150F2
:100B0000704001900110D8F7809590958E0F9F1F2F
:100B10000895DC01FC01672F71917723E1F732978B
:100B200004C07C916D9370836291AE17BF07C8F3C8
:100B300008950F931F93CF93DF938C01EB018B816B
:100B400081FF1BC082FF0DC02E813F818C819D8162
:100B50002817390764F4E881F9810193F983E88360
:100B600006C0E885F985802F0995892B31F48E819F
:100B70009F8101969F838E8302C00FEF1FEFC801F4
:100B8000DF91CF911F910F910895FA01AA27283084
:100B900051F1203181F1E8946F936E7F6E5F7F4F4A
:100BA0008F4F9F4FAF4FB1E03ED0B4E03CD0670FC6
:100BB000781F891F9A1FA11D680F791F8A1F911D19
:100BC000A11D6A0F711D811D911DA11D20D009F469
:100BD00068943F912AE0269F11243019305D3193AB
:100BE000DEF6CF010895462F4770405D4193B3E094
:100BF0000FD0C9F7F6CF462F4F70405D4A3318F03B
:100C0000495D31FD4052419302D0A9F7EACFB4E0EB
:100C1000A6959795879577956795BA95C9F70097A3
:100C20006105710508959B01AC010A2E0694579544
:100C3000479537952795BA95C9F7620F731F841F9B
:100C4000951FA01D0895AA1BBB1B51E107C0AA1F39
:100C5000BB1FA617B70710F0A61BB70B881F991F5D
:100C60005A95A9F780959095BC01CD010895F89407
:020C7000FFCFB4
:100C720025730D0A0025640074657374696E672E0E
:100C82002E2E00242443530D0024244C300D002426
:0C0C9200244C310D002000540100000033
:00000001FF
