:020000040800F2
:10000000D03C00209D010008BF13000881090008B2
:10001000BD1300083B020008E519000800000000BD
:10002000000000000000000000000000B115000802
:100030006D02000800000000C1130008C11700088D
:10004000B7010008B7010008B7010008B7010008B0
:10005000B7010008B7010008B7010008B7010008A0
:10006000B7010008B7010008B7010008B701000890
:10007000B7010008B7010008B7010008B701000880
:10008000B7010008B7010008B7010008B701000870
:10009000B7010008B7010008B7010008B701000860
:1000A000B7010008B7010008B7010008B701000850
:1000B000B7010008B7010008B7010008B701000840
:1000C000B7010008B7010008B7010008B701000830
:1000D000B7010008B7010008B7010008B701000820
:1000E000B7010008B7010008B7010008B701000810
:1000F000B7010008B7010008B7010008B701000800
:10010000B7010008DD140008B7010008B7010008B6
:10011000B7010008B7010008B7010008B7010008DF
:10012000B7010008B7010008B70100083D02000848
:10013000B7010008B7010008B7010008B7010008BF
:10014000B7010008B7010008B7010008B7010008AF
:10015000B7010008B7010008B7010008B70100089F
:10016000B7010008B7010008B7010008B70100088F
:10017000B7010008B7010008B7010008B70100087F
:10018000B7010008B7010008DFF80CD000F018F83C
:1001900000480047411D0008D03C00200648804729
:1001A00006480047FEE7FEE7FEE7FEE7FEE7FEE75C
:1001B000FEE7FEE7FEE7FEE70518000889010008F4
:1001C000064C074D06E0E06840F0010394E80700A4
:1001D00098471034AC42F6D3FFF7DAFF509B000883
:1001E000709B000870B58C1810F8015B15F00703C0
:1001F00001D110F8013B2A1106D110F8012B03E0C0
:1002000010F8016B01F8016B5B1EF9D12B0705D4C7
:100210000023521E0DD401F8013BFAE710F8013B10
:10022000CB1A921C03E013F8015B01F8015B521E2C
:10023000F9D5A142D8D3002070BDFEE701F05CB92A
:10024000074A904201D2074801E005481038064AA3
:100250008B0001EA020101D5C160704781607047DF
:1002600010640240006002407D0F7D0F7047000067
:100270002DE9F041334CB4F90810B4F90A0011FB30
:1002800000F2A283B4F90C50B4F90E3015FB03F25E
:10029000E283B4F91060B4F9122016FB02F791FB67
:1002A000F5F590FBF3F391FBF6F190FBF2F0278468
:1002B000A582E3822183608300F0C4FE002539E03B
:1002C000E088401C00B2E080B4F9321021B190FB0C
:1002D000F1F201FB120028B3E565002000F0D6FB27
:1002E000012000F0D3FB022000F0D0FB002000F042
:1002F000F3FA012000F0F0FA022000F0EDFA01F02C
:10030000B3F9B4F90810606E00EBC1006066216CAF
:1003100088420AD36566B4F90A10206E00EBC1006A
:10032000206604E00120E065D7E718B9206E616C13
:10033000884203D200F0C8F80600C1D03046BDE8BC
:10034000F081000030000020F0B55C4B03F5B6767C
:10035000B3F92400012809DB401E00B29884D98C2F
:10036000CDB2C540305C0840D8840AE001F096F870
:10037000998C491E09B29984715CDA8C1140C509C7
:10038000D98401244E4F1FE0B3F92400012808DB73
:10039000401E01B29984DA8CD0B2C840715C114021
:1003A00009E001F07BF8998C491E09B29984715CCF
:1003B000DA8C1140C009641C24B2D98400EB4505D5
:1003C000102C01DD0320F0BD187907EB401101EB83
:1003D000440131F8021CA942D6DC3A4901EB401134
:1003E00001EB440131F8021C0029CDD03449803999
:1003F00001EB401101EB440131F8021CA942C3DBBF
:10040000304AC1B207EB4111803A01EB440102EBE3
:10041000401202EB440231F8021C32F8022C691A35
:100420001144284A89B2803202EB402010F81100B2
:100430000109198510F00F040DD0B3F92400A04272
:100440000BDB001B02B29A84D88CC1B2D140B25CE3
:100450000240DA8420E000202CE0D98C201A8FB2F0
:10046000C5B206E001F01AF800EB0720083D87B29C
:10047000EDB2082DF6D801F011F8998C491B0FFA4E
:1004800081FCAF40A3F824C016F80C5020FA0CF100
:100490003944054089B2DD84601E21FA00F010F075
:1004A000FF0F01D0598506E04FF6FF704140A04094
:1004B0004140484258850020F0BD00003000002037
:1004C000D00C0020D0030020F0B5484D0027E86D87
:1004D00038B1E86C801CE8642F86EF85AF85AF8467
:1004E000EF84B5F92200424E012860D0032801D0E4
:1004F0000320F0BD3F4C002716E06978287800F013
:1005000041FA0028F5D13088A98D08443080A885AB
:100510005FF0000036F81010401C00B224F8021BF7
:100520004028F7DB7F1C3FB22989688911FB00F066
:10053000B842E2DC002715E0E978A87800F022FA5A
:100540000028D6D13088E98D08443080E885002025
:1005500036F81010401C00B224F8021B4028F7DBCC
:100560007F1C3FB2A889E98910FB01F0B842E3DCA7
:10057000002715E0E978A87800F004FA0028B8D13F
:100580003088298E084430802886002036F81010E4
:10059000401C00B224F8021B4028F7DB7F1C3FB24E
:1005A000288A698A10FB01F0B842E3DC1CE0114C98
:1005B0006978287800F0E6F900289AD13088A98D6A
:1005C00008443080A885002036F81010401C00B286
:1005D00024F8021B4028F7DB5FF00000401C00B24B
:1005E00024F8027B8028F9DB0020F0BD30000020D9
:1005F000501C0020500D002000B500F081FE2C2082
:10060000C1060880024800880249088000BD000039
:1006100004000020000002608000A0F1C04000291A
:10062000016802D041F0010101E0024A114001607D
:1006300070470000FEFF0F0010B5D0E90112114312
:10064000D0E903231A4311434269114382691143DC
:10065000C2691143026A1143426A1143826A11431B
:10066000C26A1143026B114302689200A2F1C042B8
:1006700011608168082907D101688900A1F1C04192
:100680000A6842F040020A60416BD1E9002342EA65
:1006900003128B688C891B0243EA04431A430B8ABA
:1006A00042EA03520B7D896942EA03620A43016808
:1006B0008900A1F1C0414A60C16AB1F5804F08D0FC
:1006C00000686FF070418000A0F1C040C0F80411D4
:1006D00010BD816BD1E9002342EA03128B680C8ABA
:1006E0001B0243EA04531A430B7D896942EA036201
:1006F00000680A438000A0F1C040C0F8042110BD8A
:1007000030B505465FF0000405EB441001F088FAAF
:10071000641C24B2082CF7DB5FF0000405EB8400B6
:1007200001F0B0F9641C24B2082CF7DB30BD0000E6
:1007300010B5344C0C220021204600F0B8F80C22F1
:100740000121204600F0B3F80C220421204600F0DD
:10075000AEF80C220521204600F0A9F80C22072152
:10076000204600F0A4F80C220821204600F09FF853
:100770000C220921204600F09AF80C220A2120467A
:1007800000F095F80C220B21204600F090F80C2286
:100790000E21204600F08BF80C220F21204600F09D
:1007A00086F8194C0C220721204600F080F80C2214
:1007B0000821204600F07BF80C220921204600F099
:1007C00076F80C220A21204600F071F80C220B2149
:1007D000204600F06CF80C221146204600F067F825
:1007E0000C220D21204600F062F80C220E2120463A
:1007F00000F05DF820460C22BDE810400F2100F00B
:1008000056B80000000C024000100240F0B5002372
:10081000012403270D6804FA03F21540954242D1E2
:10082000D0F800C05E0007FA06F52CEA050CC0F807
:1008300000C091F804C0D0F800E00CFA06FC4CEAC5
:100840000E0CC0F800C091F804C0BCF1010F02D03A
:10085000BCF1020F1FD1D0F808C02CEA050CC0F87B
:1008600008C091F805C0D0F808E00CFA06FC4CEA84
:100870000E0CC0F808C0D0F804C02CEA020CC0F876
:1008800004C0426891F806C00CFA03FC1FFA8CFC05
:1008900042EA0C024260C268AA43C260CA79C568D3
:1008A000B2402A43C2605B1C102BB3D3F0BD4B0790
:1008B000DB0E9A40C90810B500EB8100016A0F24D5
:1008C0009C40A1430162016A1143016210BD418352
:1008D00070470183704700002DE9F047234AB2F9C1
:1008E000084040B11346224FB3F91C30012808D00C
:1008F000022818D10DE02546B2F90A901D4E1C4978
:1009000011E0B2F90C50B2F90E901B4E07EB032127
:1009100009E0B2F91E00B2F91050B2F91290174E68
:10092000184407EB00210023A2461BE0002415E039
:10093000002202EBC30707FB0A47002000EBC708B1
:10094000401C51F804CB00B246F828C00828F5DB5B
:10095000521C12B2082AECDB641C24B2AC42E7DB66
:100960005B1C1BB24B45E1DBBDE8F087300000208B
:1009700050120020D01C0020D0200020D0240020C5
:10098000FEE70000F0B5194F0E463871FFF7DCFCAA
:1009900000282AD1164D788D012428803E7100262A
:1009A000FFF7D2FC002820D1B7F92810B7F92A2088
:1009B00051EA020006D000200EE000BF25F81460C6
:1009C000641C24B2402CF9DB0EE000BF25F8146053
:1009D000641C401C24B200B28842F7DB25F81420C6
:1009E000641C24B2402CDBDB0020F0BD3000002072
:1009F000501C00202DE9F04789462349C0B022B1A0
:100A0000012A05D0022A07D104E080250B6D03E0FE
:100A10004B6D00E08B6D0025DFF86CA000220AF121
:100A20006C0A6C4600210AEB421C04EB421700BF23
:100A30003CF8216036B230F8168033F8166018FBA7
:100A400006F647F82160491C09B20829F0DB521C60
:100A500012B2082AE6DB2046FFF752FE00200021F2
:100A600004EB401201EBC00752F82130491C5E191B
:100A700009B249F827600829F4DB401C00B20828B5
:100A8000EDDB40B0BDE8F087300000202DE9F047F5
:100A90008246040021480AD00146214AB1F91C10BF
:100AA00002F5A063012C0BD0022C12D113E0DFF869
:100AB0007090B0F90850B0F90A6009F5A06007E03D
:100AC000B0F90C50B0F90E6002EBC11903EB012034
:100AD000804600271DE0B0F91050B0F91260B0F95F
:100AE0001E00084402EBC01903EB0020F0E70024CD
:100AF0000BE000BF17FB054008EB002109EBC0101D
:100B00005246FFF777FF641C24B2AC42F2DB7F1C35
:100B10003FB2B742EBDBBDE8F087000030000020B9
:100B2000500D00202DE9F0473F4F00213F4C7966E2
:100B300039667964396479853985B984F984F965C8
:100B400079860A46002004EBC21300BF23F8101078
:100B5000401C00B24028F9DB521C12B2032AF1DB20
:100B6000314A79840020397134321154401C00B26A
:100B70000328FADBDFF8B8A000220AF50869AAF119
:100B8000800C09F1800800200AEB42160CEB42159C
:100B900009EB421408EB421326F8101025F8101048
:100BA00024F8101023F81010401C00B21028F3DBBA
:100BB000521C12B2042AE6DB1D4C002080340022B5
:100BC00004EB402323F81210521C12B2FF2AF9DD65
:100BD000401C00B20428F2DB164A002002F5A06394
:100BE0004FF4207422F8101043F82010401C00B27B
:100BF000A042F7DB104A002002F5806302F5006492
:100C0000A2F1800542F8201043F8201044F820108B
:100C100025F81010401C00B24028F3DB3986F98516
:100C2000B985BDE8F087000030000020D001002029
:100C3000D0030020500D0020D01C00202DE9F04FE3
:100C4000F948DFF8E8E38146816C891CC164D9F872
:100C50004C004A464178801CC9F84C00DA2978D00B
:100C600006DCC02947D0C42974D0D92906D1E3E1D4
:100C7000DB290BD0DD296ED0E02903D00D23B3EBA7
:100C8000111F69D0018849BA09B29FE10188E84C77
:100C900049BA0DB281784FF0000301F00F06C11C74
:100CA000502D0ADA04EBC61411F8016B24F8136016
:100CB0005B1C1BB2402BF7DB1AE004EBC61600BF2F
:100CC00011F8017B26F813705B1C1BB2402BF7DB7D
:100CD00011F8013B03F00F060B46002104EBC6148C
:100CE00013F8016B24F81160491C09B24029F7DBA5
:100CF0002844D064ABE7018849BA0BB2B0F80310BE
:100D000049BA5164B0F8051049BA1164C1795184E7
:100D1000012902D00329AAD11FE003291DD0C24E08
:100D2000017A34363170447A2509158104F00F04B4
:100D30005481857ABE4C04EBC5151565717001248C
:100D40009481D4815565B17014825482956518449C
:100D500075E13DE129E033E170E1B34C017A3434CF
:100D60002170417A0D09158101F00F015181817ABD
:100D7000AF4D05EBC1111165C17A6170017B0E09A0
:100D8000968101F00F01D181417B05EBC1115165C5
:100D9000817BA170C17B0C09148201F00F0151828B
:100DA000017C05EBC1119165D1E7018849BA0FFAC1
:100DB00081FBBBF1D00F77DA8278110902F00F02C4
:100DC00002EB410AC11C00230EEB4A1211F8014B41
:100DD00022F813405B1C1BB2102BF7DB0025934B52
:100DE0002C46803303EB4A2732F9146076B1002396
:100DF00008E000BF03EB050811F801CB5B1C27F8E6
:100E000018C01BB29E42F5DC2B441DB2641C24B2F8
:100E1000102CE9DB002101E0491C09B232F8113045
:100E2000002BF9D0834E0023A6F180071D4607EB67
:100E30004A1406EB4A1605E026F8135024F813501E
:100E40005B1C1BB28B42F7DB26F8115032F81130D5
:100E50000BE000BF04EB410333F8023C5B009B1C3A
:100E600026F8113032F811703B445B1E24F8113023
:100E7000491C09B21029EDDB6C49803901EB4A1499
:100E80000121258002EB410304EB410533F8023CCC
:100E900035F8025C2B4424F81130491C09B21029A2
:100EA000F0DB5844CBE0FFE710F8021FD06483E08A
:100EB0000A0901F00F0000EB4203D9F84CA000240E
:100EC0000AF1010022460EEB431100BF10F8015B4E
:100ED00021F81250521C2C4412B224B2102AF5DB15
:100EE00011340025514A0FFA84FB80322C4602EB64
:100EF000432700BF31F9146076B1002208E000BF3B
:100F000002EB050810F801CB521C27F818C012B2EA
:100F10009642F5DC2A4415B2641C24B2102CE9DB9D
:100F2000002001E0401C00B231F81020002AF9D066
:100F3000404E0024A6F18005224605EB431506EB42
:100F4000431605E026F8142025F81420641C24B26A
:100F50008442F7DB26F8102031F810400BE000BF88
:100F600005EB400434F8024C6400A41C26F8104041
:100F700031F810703C44641E25F81040401C00B24B
:100F80001028EDDB2948803800EB431301201A803C
:100F900001EB400232F8024C03EB400232F8022C23
:100FA000224423F81020401C00B21028F0DB0AEB8A
:100FB0000B01C9F84C100978FF293FF49BAE77E785
:100FC0000188438849BA5BBA09B25386084436E0BF
:100FD0000188B2F9224049BA0DB28178A1422BD1E1
:100FE000114EC11C00233436367815E00F78B74215
:100FF0004F784FEA171C06D107F00F0782F800C0A0
:10100000BF1C577005E007F00F0782F802C0BF1C35
:10101000D7705B1C1BB2891CA342E7DB2844C9F8CC
:101020004C000020BDE8F08F30000020D0030020ED
:10103000D0010020D00C00200320F3E7801CC9F869
:101040004C0004E60848074981660848D0F10002D0
:1010500000F3080341F82030401C00B29042F7DB57
:1010600070470000D03000203000002000FEFFFF5D
:1010700030B5002405462146204600F041F92C20D9
:10108000C106088003484FF416310580641C8C4269
:10109000FBD330BD0000026000B597B000F02AF825
:1010A0000121084600F09AF905200F90002009213F
:1010B000CDE9100112901021CDE902011490159094
:1010C00013900090019004900590069009020790FB
:1010D000CDE908010A900B900C900FA80D900E908E
:1010E0006846FFF7A9FA01210020FFF795FA17B02B
:1010F00000BD00007CB50121084600F06FF9012118
:101100001A2000F05FF901208DF8040003248DF807
:10111000054000208DF80600274E20258DF8070099
:10112000009569463046FFF771FB8DF805400220B7
:101130008DF804004CF20370204C00906946204664
:10114000FFF764FB4FF68070009069461C48FFF77C
:101150005DFB1020009069462046FFF757FB69466B
:1011600020460095FFF752FB8020009069462046FC
:10117000FFF74CFBE014009069462046FFF746FB62
:10118000FFF7D6FA20213046FFF7A3FB10212046B7
:10119000FFF79FFB20212046FFF79BFB8021204685
:1011A000FFF797FB08212046FFF791FB40212046DF
:1011B000FFF78FFB7CBD000000040240000C0240E2
:1011C0000010024010B5FFF767FF322000F03EFC30
:1011D0004FF0C04411202080322000F037FC132053
:1011E0002080D020208043480721018040210180B9
:1011F0001C210180D1212180002101801821018042
:101200001D210180D2212180012101801121018035
:10121000C0212180002101803B210180002101802B
:101220000221018011210180C12121801021018032
:101230000B21018088210180C521218001210180AD
:10124000C8212180002101803021018036210180C8
:101250004521018004210180162101803721018070
:101260007521018077210180542101800F210180A7
:1012700000210180E4212180A0210180F021218032
:1012800001210180F3212180402101800A21018078
:10129000F721218080210180362121800A210180CF
:1012A0003A212180552101802A21218000210180BD
:1012B0000180012101803F2101802B21218000211B
:1012C0000180018001210180DF210180322000F0B6
:1012D000BDFB292020802C20208020210648FFF7FC
:1012E000F8FA1F20FFF7C4FE0448A0F10C01886043
:1012F00010BD000000000260000402401000002049
:1013000010B54FF0C0432A221A800A4A040A1480FA
:10131000C0B21080012010803F2010802B20188048
:10132000080A1080C8B2108001201080DF201080D1
:1013300010BD00000000026001B5BDF800000149C9
:10134000088008BD040000201CB50121022000F027
:1013500039F801208DF8040000208DF806000321E3
:101360008DF805108DF807008803084C0090694639
:101370002046FFF74BFA4FF480412046FFF7A9FAC9
:101380004FF400412046FFF7A4FA1CBD00040240C0
:1013900010B5094CA064FFF7C5FBFFF74FFC30B94F
:1013A000208920B1608910B1FEF762FF08B10020EA
:1013B00010BD012010BD000030000020FEE7704786
:1013C00070470000044A0029116801D0014300E081
:1013D000814311607047000030380240044A002900
:1013E000116801D0014300E08143116070470000A3
:1013F00038380240044A0029116801D0014300E056
:1014000081431160704700004438024070B5204AA3
:101410001168204C11F00C0104D06610042903D08F
:10142000082903D004601BE0066019E01849091F71
:101430000B68C3F380550B6803F03F0315B1B6FB8F
:10144000F3F301E0B4FBF3F30C680968C4F3881408
:101450006343C1F30141491C4900B3FBF1F1016051
:1014600011680F2303EA11110B4B5C5C0168E1402A
:1014700041601468072505EA94241C5D21FA04F4F0
:101480008460126805EA52329A5CD140C16070BD36
:10149000083802400024F400A50100200649CA6C67
:1014A00012F8010BCA64FF2801D1521CCA64082239
:1014B0008A84C88470470000300000200149086019
:1014C00070470000382C0140034A01460020126892
:1014D0000A4200D001207047342C014000F020B8AF
:1014E000044A0029116801D0014300E081431160E2
:1014F000704700003C2C01400748006810F0C05FB6
:1015000008D006490120486103484FF0C2515830C5
:10151000FEF796BE704700000064024018000020ED
:1015200070B54FF480752846FFF7CEFF1F4C38B1D9
:10153000002020702846FFF7C1FF012020612EE027
:101540000220FFF7C1FF20B10220FFF7B7FF022002
:1015500024E00820FFF7B8FF20B10820FFF7AEFF16
:1015600004201BE02020FFF7AFFF20B12020FFF771
:10157000A5FF062012E01020FFF7A6FF20B11020E3
:10158000FFF79CFF052009E04FF400752846FFF7A0
:101590009BFF20B12846FFF791FF07202070002114
:1015A0004CF23A30FFF79CFF207870BD1800002005
:1015B000704700000CB500202749019000900A6890
:1015C00042F480320A604FF4A0630A6802F40032E9
:1015D0000092019A521C0192009A12B9019A9A4201
:1015E000F3D10A68920334D5012000901A484030A4
:1015F000026842F0805202601848026842F4804259
:1016000002601548083002680260026842F4004235
:101610000260026842F4A0520260031F104A1A607E
:101620000A6842F080720A600A689201FCD50D4A8D
:1016300040F205611160016821F003010160016859
:1016400041F0020101600168C1F381010229FAD170
:101650000CBD00900CBD000000380240007000403E
:10166000084B4007003C02402DE9F0410025504E58
:1016700096E0306E716C284488427DD2002487E069
:10168000716E326C2144914277D215FB00F1494AC8
:1016900004EBC1016FF0360C52F82170B6F9162038
:1016A000B6F9141095FBF2F294FBF1F1424301EB11
:1016B000C201414A52F82130B6F91A20B6F9181081
:1016C00095FBF2F294FBF1F1424301EBC2003B497E
:1016D00003EBC30251F82000390201EB420140F252
:1016E0006F1200FB02110A126FF09E01594301EBC9
:1016F000072100FB0CFC01EB8C0140F29B1C03FB5F
:101700000CF303EB07236FF01C0700FB07300912F3
:10171000001202F0FF0CCFB2C3B25FEA122E08D063
:10172000FF2A02DD4FF0FF0C03E0002A01DA4FF040
:10173000000C0A0A06D0FF2901DDFF2702E000297C
:1017400000DA0027010A06D0FF2801DDFF2302E0AE
:10175000002800DA00234FEADC00800140EA97000D
:10176000400140EAD300FFF7E7FDB6F86000B18F13
:101770002844084481B201E018E00FE0B6F86400A4
:10178000328F2044104480B2FEF736FF641C24B22E
:10179000B6F90800B4EBC00FFFF672AF6D1C2DB2A6
:1017A000B6F90A00B5EBC00FFFF663AFBDE8F081F4
:1017B00030000020D01C0020D0200020D0240020A9
:1017C00000F04EB80C480D4A4FF08073D0F800106E
:1017D000B1FBF2F09842FBD220F07F414FF0E020C5
:1017E000491E4161064AF02182F8141D00218161E1
:1017F0000721016170470000B801002040420F003E
:101800000FE000E0124810B5016841F4700101607A
:101810001048016841F0010101600E4A00210832C0
:10182000116002680C4B1A400260031D0B4A1A60DB
:10183000026822F48022026006480C300160FFF743
:10184000B9FE03494FF000608039086010BD000008
:1018500088ED00E000380240FFFFF6FE1030002463
:1018600003480168002902D00168491E01607047E1
:101870000000002070B5012186B00846FFF7A2FDE8
:1018800001211020FFF7B6FD1E4E07220921304628
:10189000FFF70DF807220A213046FFF708F8022566
:1018A00070158DF8055000908DF8045000248DF8C7
:1018B000064001208DF8070069463046FEF7A6FF76
:1018C000680200908DF8045069463046FEF79EFF8E
:1018D0004FF4E130ADF80C400290ADF81040ADF897
:1018E0000E40ADF814400C20074CADF8120002A9D0
:1018F000204600F01DF80121204600F007F806B050
:1019000070BD0000000002400010014000298189E4
:1019100002D041F4005101E021F40051818170476F
:101920000246002012880A4200D0012070470000C1
:101930007FB50446008A0D4620F44051E8880843EC
:101940002082A08941F20C618843A9882A89114329
:101950006A8902431143A181A08A20F44071A889B9
:101960000843A0826846FFF751FD1A48844202D01E
:101970001948844201D1039800E00298A189090422
:1019800000EBC00101EB0010296801D5490000E01F
:101990008900B0FBF1F26420B2FBF0F109010B0900
:1019A0006FF018056B4302EB8302A3891D044FF00F
:1019B000320306D503EBC202B2FBF0F000F00700E1
:1019C00005E003EB0212B2FBF0F000F00F00084359
:1019D00020817FBD0010014000140140C1F30801C7
:1019E00081807047FEE70000014A024900F013B809
:1019F000611A0008CC01002002E008C8121F08C1CB
:101A0000002AFAD170477047002001E001C1121F7F
:101A1000002AFBD170472DE9F04116460F460446D7
:101A2000002503E03946B047641C6D1C207800286F
:101A3000F8D12846BDE8F08103484FF47A7101607F
:101A400001680029FCD170470000002000B5024663
:101A500002E000BFFFF7F0FF521EFBD200BD000006
:101A600070B5074D0446C1B22846FFF7B7FF802185
:101A70002846FFF755FF0028F9D0204670BD00002A
:101A8000001001402DE9F04FD0F88010D0F8C04090
:101A90000D02016C45EA04060E438B46036AD0F83A
:101AA000E0C05D491E43D0F8A07046EA0C06026E05
:101AB0003E43D0F80080896E16437DD04FF4005627
:101AC00006EB082903EB0C0640F2352806FB08F666
:101AD00040F2392803FB08F3361DDFF8408106EB9E
:101AE00083030CFB08FC06EB4C064FEAE60ABE1823
:101AF00040F22D1C06FB0CF6C7EB471C4FF0040E02
:101B0000CCEB072C0EEBC606ACEB872737444FEA2D
:101B1000E70C6FF47B6702FB076209EB0507A9EB93
:101B200005090BEB040540F2151675436FF4EC76CE
:101B300074435E460BEB06180EEB850508EB4B165F
:101B400005EBC404DB1005EB461503EB0C0BA3EB14
:101B50000C06D210ED100AEB0203AAEB0202E4100D
:101B600007EB050AA7EB050C09EB0405A9EB040735
:101B7000B418B21A4FF0B5080AEB0B06B61304FB03
:101B800008F4803451F82660241206602E19B6132A
:101B900002FB08F2803251F8266012120662BE186B
:101BA000B61351F8266006640CEB0306B613ACEBD3
:101BB000030351F8266000E01AE09B130666BA1A88
:101BC00051F823309213C0F8803051F82220C0F829
:101BD000A0202A1B921351F82220C0F8C020AAEBA3
:101BE0000B02921351F82210C0F8E010BDE8F08FFC
:101BF00008F120084FEAA81251F82210C0F8E010AE
:101C0000C0F8C010C0F8A010C0F8801001660164D0
:101C100001620160EAE700003000002059F9FFFF8F
:101C20002DE9F04701698468CA028169A24642EA47
:101C3000010323434468C769234343EA070C466909
:101C4000C5684CEA060C03685CEA050C6CD04FF0E2
:101C5000800C0CEBC32304EB070C40F235280CFB83
:101C600008FC40F2392804FB08F40CEB8409334CDF
:101C700067430CEB4704771940F6681C07FB0CF729
:101C8000C6EB461CCCEB062CACEB862606EB070C11
:101C90006FF47B6605FB06759F189E1A0AEB01021E
:101CA00040F254435A436FF4EC73594353460AEBE2
:101CB000031808EB4A1302EBC10102EB431209EBD4
:101CC0000C0AA9EB0C0304EB050C641BBD18BF1A2E
:101CD0007218761A19194FF0B5081B1B03FB08F38D
:101CE00080331C1201FB08F105EB0A0380311B1243
:101CF0000912036053181B12436033191B128360CF
:101D000007EB0C031B12C360A7EB0C031B12036150
:101D1000331B511A1B120912C0E90531A5EB0A0148
:101D20000912C161BDE8F087D900C16181614161DB
:101D30000161C160816041600160F3E759F9FFFF13
:101D4000FFF760FDFFF700FBFFF73CFDFFF792FD9B
:101D5000FFF738FA12A0FFF747FE1AA0FFF744FE7C
:101D60001EA0FFF741FE3220FFF770FE25A0FFF70F
:101D70003BFE2B48FFF70CFB2A4C4FF400464FF478
:101D8000967531462046FEF7A2FD2846FFF75EFE17
:101D900031462046FEF79DFD2846FFF757FEF0E747
:101DA0000D0ABBB6D3ADCAB9D3C353592D53544D45
:101DB000333246343037205632BFAAB7A2B0E5A33B
:101DC000A10D0A000D0A2020202020202020C9BDBE
:101DD000D1D2BFC6BCBCA3A10D0A00000D0A2020B1
:101DE000202020202020202020202D2D2D2D2DD7FB
:101DF000A8D2B5A3ACD6B5B5C3D0C5C0B5A3A10D07
:101E00000A0000000D0A20D5E2CAC7D2BBB8F64AC4
:101E10005047BDE2C2EBC0FDB3CC200D0A0000006C
:101E2000F82F00080004024000000000000000003D
:101E300000000000000000000000000000000000A2
:101E40000000000000000000000000000000000092
:101E500000000000000000000000800180018001FF
:101E6000800180018001800180018001800180016A
:101E7000800180010000000080018001000000005E
:101E8000000000000000000000000000CC00CC00BA
:101E9000CC00CC00CC00CC00000000000000000012
:101EA0000000000000000000000000000000000032
:101EB0000000000000000000000000000000000022
:101EC00000000000600C600C600C30063006FE1F45
:101ED000FE1F300638071803FE1FFE1F18031803E5
:101EE0008C018C018C01000000008000E003F80FE1
:101EF0009C0E8C1C8C188C009800F801E007800E5A
:101F0000801C8C188C189C18B80CF00FE003800013
:101F100080000000000000000000000000000E181B
:101F20001B0C110C11061106110311039B018E01EC
:101F3000C038C06C60446044304430441844186C6D
:101F40000C380000000000000000E001F00338073A
:101F5000180618063003F001F000F8009C310E332B
:101F6000061E061C061C063FFC73F0210000000044
:101F70000000000000000000000000000C000C0049
:101F80000C000C000C000C00000000000000000021
:101F90000000000000000000000000000000000041
:101FA00000000000000000000000000200038001AB
:101FB000C000C00060006000300030003000300021
:101FC000300030003000300060006000C000C00011
:101FD0008001000300020000000020006000C0003B
:101FE00080018001000300030006000600060006D1
:101FF00000060006000600060003000380018001C1
:10200000C000600020000000000000000000000090
:1020100000000000C000C000D806F807E00130034F
:102020003807000000000000000000000000000071
:1020300000000000000000000000000000000000A0
:102040000000000080018001800180018001FC3FD0
:10205000FC3F8001800180018001800100000000C0
:102060000000000000000000000000000000000070
:102070000000000000000000000000000000000060
:10208000000000000000000000008001800100014D
:1020900000018000000000000000000000000000BF
:1020A0000000000000000000000000000000000030
:1020B000E007E00700000000000000000000000052
:1020C0000000000000000000000000000000000010
:1020D0000000000000000000000000000000000000
:1020E00000000000000000000000C000C000000070
:1020F00000000000000000000000000C000C0006C2
:102100000006000600030003000380038001800135
:102110008001C000C000C00060006000000000003E
:1021200000000000000000000000E003F007380E8F
:10213000180C0C180C180C180C180C180C180C187F
:102140000C180C18180C380EF007E0030000000003
:102150000000000000000000000000018001C0013C
:10216000F0019801880180018001800180018001D7
:102170008001800180018001800180010000000059
:1021800000000000000000000000E003F80F180C41
:102190000C180C1800180018000C00060003800131
:1021A000C000600030001800FC1FFC1F0000000091
:1021B00000000000000000000000E001F807180E19
:1021C0000C0C0C0C000C0006C003C007000C00181F
:1021D00000180C180C18180CF807E0030000000099
:1021E00000000000000000000000000C000E000FC6
:1021F000000F800DC00C600C600C300C180C0C0C27
:10220000FC3FFC3F000C000C000C000C0000000028
:1022100000000000000000000000F80FF80F180098
:1022200018000C00EC03FC071C0E001C0018001822
:1022300000180C181C0C180EF807E0030000000032
:1022400000000000000000000000C007F00F381C74
:10225000181818000C00CC03EC0F3C0E1C1C0C18BA
:102260000C180C18181C380EF007E00300000000D2
:1022700000000000000000000000FC1FFC1F000C1C
:1022800000060006000380038001C001C000E000DA
:10229000600060007000300030003000000000007E
:1022A00000000000000000000000E003F007380E0E
:1022B000180C180C180C3806F007F007180C0C183E
:1022C0000C180C180C18380CF80FE0030000000074
:1022D00000000000000000000000E003F007380EDE
:1022E0001C0C0C180C180C181C1C381EF81BE019C0
:1022F0000018000C000C1C0EF807F0010000000094
:1023000000000000000000000000000000000000CD
:1023100000000000800180010000000000000000BB
:1023200000000000000000008001800100000000AB
:10233000000000000000000000000000000000009D
:10234000000000008001800100000000000000008B
:102350000000000000000000800180010001000179
:1023600080000000000000000000000000000000ED
:1023700000000000000000000010001C800FE003BF
:10238000F8001800F800E003800F001C00100000A7
:10239000000000000000000000000000000000003D
:1023A0000000000000000000F81F00000000000016
:1023B000F81F000000000000000000000000000006
:1023C000000000000000000000000000000000000D
:1023D000000000000000000008003800F001C00705
:1023E000001F0018001FC007F0013800080000009F
:1023F00000000000000000000000E003F80F180CCF
:102400000C180C180018000C000600038001C00016
:10241000C000C00000000000C000C00000000000BC
:10242000000000000000000000000000E007181895
:102430000420C229224A11440944094409440922BA
:102440001113E20C024004201818E00700000000FD
:102450000000000000000000000080038003C006B0
:10246000C006C006600C600C301830183018F83FF9
:10247000F83F1C700C600C6006C006C00000000035
:1024800000000000000000000000FC03FC0F0C0C2A
:102490000C180C180C180C0CFC07FC0F0C180C304A
:1024A0000C300C300C300C18FC1FFC070000000036
:1024B00000000000000000000000C007F01F3838D6
:1024C0001C300C70066006000600060006000600C0
:1024D000060006600C701C30F01FE00700000000D2
:1024E00000000000000000000000FE03FE0F060ECA
:1024F000061806180630063006300630063006305C
:10250000063006180618060EFE0FFE030000000037
:1025100000000000000000000000FC3FFC3F0C0039
:102520000C000C000C000C00FC1FFC1F0C000C002D
:102530000C000C000C000C00FC3FFC3F00000000F5
:1025400000000000000000000000F83FF83F180005
:102550001800180018001800F81FF81F18001800BD
:1025600018001800180018001800180000000000DB
:1025700000000000000000000000E00FF83F3C7881
:102580000E6006E007C00300030003FE03FE03C065
:1025900007C006C00EC03CF0F83FE00F000000008E
:1025A000000000000000000000000C300C300C3077
:1025B0000C300C300C300C30FC3FFC3F0C300C303D
:1025C0000C300C300C300C300C300C3000000000A3
:1025D0000000000000000000000080018001800178
:1025E00080018001800180018001800180018001E3
:1025F00080018001800180018001800100000000D5
:1026000000000000000000000000000600060006B8
:10261000000600060006000600060006000600068A
:102620000006180618063807F003E0010000000055
:102630000000000000000000000006300618060C34
:10264000060606038601C60066007600DE008E01DF
:1026500006030606060C0618063006600000000099
:102660000000000000000000000018001800180022
:10267000180018001800180018001800180018009A
:102680001800180018001800F81FF81F00000000BC
:10269000000000000000000000000EE01EF01EF030
:1026A0001EF036D836D836D836D866CC66CC66CC4E
:1026B000C6C6C6C6C6C6C6C686C386C30000000058
:1026C000000000000000000000000C301C303C3016
:1026D0003C306C306C30CC30CC308C310C330C3323
:1026E0000C360C360C3C0C3C0C380C300000000056
:1026F00000000000000000000000E007F81F1C3888
:102700000E70066003C003C003C003C003C003C053
:1027100003C006600E701C38F81FE00700000000C0
:1027200000000000000000000000FC0FFC1F0C383F
:102730000C300C300C300C300C18FC1FFC070C005B
:102740000C000C000C000C000C000C000000000041
:1027500000000000000000000000E007F81F1C3827
:102760000E70066003E003C003C003C003C003C0D3
:1027700007E006630E3F1C3CF83FE0F700C0000096
:1027800000000000000000000000FE0FFE1F0638E1
:102790000630063006300638FE1FFE070603060622
:1027A000060C061806180630063006600000000009
:1027B00000000000000000000000E003F80F1C0C07
:1027C0000C180C180C001C00F803E00F001E003859
:1027D000063006300E301C1CF80FE0070000000029
:1027E00000000000000000000000FE7FFE7F80016E
:1027F00080018001800180018001800180018001D1
:1028000080018001800180018001800100000000C2
:10281000000000000000000000000C300C300C3004
:102820000C300C300C300C300C300C300C300C30C8
:102830000C300C300C301818F81FE00700000000B6
:1028400000000000000000000000036006300630B9
:1028500006300C180C180C18180C180C380E300612
:102860003006700760036003C001C0010000000073
:10287000000000000000000000000360C361C361AD
:10288000C3616633663366336633663366336C1B07
:102890006C1B6C1B2C1A3C1E380E380E00000000FE
:1028A000000000000000000000000FE00C70183075
:1028B0003018700C600EC00780038003C003E00670
:1028C000700C301C18180C300E6007E0000000007F
:1028D0000000000000000000000003C006600C3093
:1028E0001C383818300C6006E007C00380018001F6
:1028F00080018001800180018001800100000000D2
:1029000000000000000000000000FC7FFC7F006071
:1029100000300018000C000600038001C0006000B9
:10292000300018000C000600FE7FFE7F0000000053
:1029300000000000000000000000E003E003600071
:102940006000600060006000600060006000600087
:102950006000600060006000600060006000600077
:102960006000E003E0030000000030003000600081
:1029700060006000C000C000C000C0018001800194
:1029800080010003000300030006000600000000B1
:1029900000000000000000000000E003E00300036E
:1029A000000300030003000300030003000300030F
:1029B00000030003000300030003000300030003FF
:1029C0000003E003E003000000000000C001C001BC
:1029D00060036003600330063006180C180C00001A
:1029E00000000000000000000000000000000000E7
:1029F00000000000000000000000000000000000D7
:102A000000000000000000000000000000000000C6
:102A100000000000000000000000FFFFFFFF0000BA
:102A2000000000000000000000000C000C000C0082
:102A30000C000C000C000000000000000000000072
:102A40000000000000000000000000000000000086
:102A50000000000000000000000000000000000076
:102A600000000000F003F8071C0C0C0C000FF00F26
:102A7000F80C0C0C0C0C1C0FF80FF01800000000E8
:102A800000000000000000000000180018001800FE
:102A900018001800D803F80F380C18181818181850
:102AA000181818181818380CF80FD8030000000070
:102AB0000000000000000000000000000000000016
:102AC00000000000C003F007300E180C18001800BA
:102AD00018001800180C300EF007C00300000000AA
:102AE000000000000000000000000018001800189E
:102AF00000180018C01BF01F301C181818181818E0
:102B0000181818181818301CF01FC01B00000000FF
:102B100000000000000000000000000000000000B5
:102B200000000000C003F00F300C1818F81FF81F49
:102B3000180018003818301CF00FC0070000000003
:102B400000000000000000000000800FC00FC00067
:102B5000C000C000F007F007C000C000C000C00007
:102B6000C000C000C000C000C000C00000000000E5
:102B70000000000000000000000000000000000055
:102B800000000000E00DF80F180E0C0C0C0C0C0CE3
:102B90000C0C0C0C0C0C180EF80FE00D000C0C0CAF
:102BA0001C06F807F00100000000180018001800CB
:102BB00018001800D807F80F381C1818181818181B
:102BC00018181818181818181818181800000000E5
:102BD00000000000000000000000C000C000000075
:102BE00000000000C000C000C000C000C000C00065
:102BF000C000C000C000C000C000C0000000000055
:102C000000000000000000000000C000C000000044
:102C100000000000C000C000C000C000C000C00034
:102C2000C000C000C000C000C000C000C000C000A4
:102C3000C000F8007800000000000C000C000C0040
:102C40000C000C000C0C0C060C038C01CC006C006E
:102C5000FC009C018C030C030C060C0C0000000013
:102C600000000000000000000000C000C000C00024
:102C7000C000C000C000C000C000C000C000C00054
:102C8000C000C000C000C000C000C00000000000C4
:102C90000000000000000000000000000000000034
:102CA000000000007C3CFF7EC7E383C183C183C179
:102CB00083C183C183C183C183C183C1000000007C
:102CC0000000000000000000000000000000000004
:102CD000000000009807F80F381C1818181818186A
:102CE00018181818181818181818181800000000C4
:102CF00000000000000000000000000000000000D4
:102D000000000000C003F00F300C18181818181835
:102D1000181818181818300CF00FC0030000000025
:102D200000000000000000000000000000000000A3
:102D300000000000D803F80F380C181818181818DD
:102D4000181818181818380CF80FD803180018009D
:102D5000180018001800000000000000000000002B
:102D600000000000C01BF01F301C1818181818189D
:102D7000181818181818301CF01FC01B001800185D
:102D800000180018001800000000000000000000FB
:102D900000000000B007F003700030003000300089
:102DA0003000300030003000300030000000000003
:102DB0000000000000000000000000000000000013
:102DC00000000000E003F003380E180C3800F00398
:102DD000C007000C180C380EF007E00300000000DC
:102DE0000000000000000000000000008000C000A3
:102DF000C000C000F007F007C000C000C000C00065
:102E0000C000C000C000C000C00780070000000074
:102E100000000000000000000000000000000000B2
:102E20000000000018181818181818181818181882
:102E3000181818181818381CF01FE01900000000A6
:102E40000000000000000000000000000000000082
:102E5000000000000C18180C180C180C3006300676
:102E60003006600360036003C001C0010000000081
:102E70000000000000000000000000000000000052
:102E800000000000C141C141C361636363636363C8
:102E90003636363636361C1C1C1C1C1C0000000046
:102EA0000000000000000000000000000000000022
:102EB000000000001C38381C300C60066003600302
:102EC000600360036006300C381C1C3800000000F2
:102ED00000000000000000000000000000000000F2
:102EE000000000001830301830187018600C600CAA
:102EF000E00CC006C00680038003800380018001CF
:102F0000C001F000700000000000000000000000A0
:102F100000000000FC1FFC1F000C000600038001E5
:102F2000C000600030001800FC1FFC1F0000000003
:102F30000000000000000000000000038001C0004D
:102F4000C000C000C000C000C000600060003000D1
:102F500060004000C000C000C000C000C000C00051
:102F6000800100030000000000008001800180015A
:102F70008001800180018001800180018001800149
:102F80008001800180018001800180018001800139
:102F9000800180018001000000006000C000C001CD
:102FA0008001800180018001800100030003000690
:102FB0000003000180018001800180018001800107
:102FC000C0006000000000000000000000000000E1
:102FD0000000000000000000F010F81F080F0000C3
:102FE00000000000000000000000000000000000E1
:102FF0000000000000000000FFD8FFE000104A467B
:10300000494600010100000100010000FFFE003EF2
:1030100043524541544F523A2067642D6A706567A8
:103020002076312E3020287573696E6720494A4713
:10303000204A50454720763632292C206465666147
:10304000756C74207175616C6974790AFFDB0043DB
:1030500000080606070605080707070909080A0CFD
:10306000140D0C0B0B0C1912130F141D1A1F1E1D1F
:103070001A1C1C20242E2720222C231C1C28372914
:103080002C30313434341F27393D38323C2E333420
:1030900032FFDB0043010909090C0B0C180D0D1858
:1030A00032211C2132323232323232323232323238
:1030B00032323232323232323232323232323232F0
:1030C00032323232323232323232323232323232E0
:1030D000323232323232FFC000110801E0014003C7
:1030E000012200021101031101FFC4001F000001B1
:1030F00005010101010101000000000000000001C4
:1031000002030405060708090A0BFFC400B51000F6
:1031100002010303020403050504040000017D010C
:1031200002030004110512213141061351610722E7
:103130007114328191A1082342B1C11552D1F024FA
:1031400033627282090A161718191A2526272829A8
:103150002A3435363738393A434445464748494A90
:10316000535455565758595A636465666768696A77
:10317000737475767778797A838485868788898A67
:1031800092939495969798999AA2A3A4A5A6A7A876
:10319000A9AAB2B3B4B5B6B7B8B9BAC2C3C4C5C6A2
:1031A000C7C8C9CAD2D3D4D5D6D7D8D9DAE1E2E3D1
:1031B000E4E5E6E7E8E9EAF1F2F3F4F5F6F7F8F921
:1031C000FAFFC4001F010003010101010101010117
:1031D00001000000000000010203040506070809C1
:1031E0000A0BFFC400B51100020102040403040726
:1031F00005040400010277000102031104052131D6
:10320000061241510761711322328108144291A1C3
:10321000B1C109233352F0156272D10A162434E188
:1032200025F11718191A262728292A35363738394B
:103230003A434445464748494A53545556575859C6
:103240005A636465666768696A73747576777879B6
:103250007A82838485868788898A929394959697C3
:1032600098999AA2A3A4A5A6A7A8A9AAB2B3B4B5EF
:10327000B6B7B8B9BAC2C3C4C5C6C7C8C9CAD2D31B
:10328000D4D5D6D7D8D9DAE2E3E4E5E6E7E8E9EA47
:10329000F2F3F4F5F6F7F8F9FAFFDA000C0301009F
:1032A00002110311003F00D7FF0085FF00A3FF00BC
:1032B000CF37FF00BE0D1FF0BFF47FF9E4FF00F72A
:1032C000C9AF9E36AFF747E546C5FEE8AF63FB22C0
:1032D0005FCC4739F43FFC2FFD1FFE793FFDF268BC
:1032E000FF0085FF00A3FF00CF27FF00BE4D7CF14C
:1032F000B17FBA28D8BFDD147F644BF9839CFA1FD5
:10330000FE17FE8FFF003CDFFEF9347FC2FF00D1C5
:10331000FF00E79BFF00DF26BE79D8BFDD146C4FAE
:10332000EE8A3FB225FCC1CE8FA1BFE17FE8FF004E
:10333000F3CDFF00EF8349FF000BFB47FF009E6FBB
:10334000FF007C9AF9EF6A7F747E549B57FBA28F33
:10335000EC897F3073A3E85FF85FFA3FFCF27FFBF4
:10336000E4D2FF00C34068FF00F3CDFF00EF935F9E
:103370003CED5FEE8A36AFF7451FD932FE60E74776
:10338000D0DFF0D01A3FFCF37FFBE4D27FC2FF0016
:10339000D1FF00E793FF00DF26BE7AD8BFDD14BB64
:1033A00017FBA3F2A3FB265FCC1CE8FA17FE1A0357
:1033B00047FF009E6FFF007C9A3FE1A0347FF9E653
:1033C000FF00F7C9AF9E762FF747E54796BFDD149C
:1033D0007F64CBF9839D1F42FF00C2FF00D1FF0035
:1033E000E793FF00DF2697FE17FE8FFF003C9FFE4E
:1033F000F935F3D6C5FEE8A4D8BFDD1F953FEC999B
:103400007F30731F437FC2FF00D1FF00E79BFF00A7
:10341000DF268FF85FFA3FFCF27FFBE4D7CF5B1724
:10342000FBA28D8BFDD147F64CBF98398FA17FE170
:103430007FE8FF00F3CDFF00EF8347FC2FFD1FFE69
:1034400079BFFDF26BE7AD8BFDD1F951E5AFF745E3
:103450003FEC87FCC1CC7D09FF000BFF0047FF005C
:103460009E4FFF007C9A5FF85FFA3FFCF37FFBE41E
:10347000D7CF5B17FBA3F2A362FF00757F014BFB65
:10348000225FCC2E747D0BFF000BFF0047FF009ED8
:103490004FFF007C9A3FE17FE91FF3CDFF00EF83F0
:1034A0005F3D6C5EEA3F2A5089FDD1F951FD912FB5
:1034B000E62B98FA13FE17F691FF003CDFFEF93475
:1034C0007FC2FF00D23FE79BFF00DF06BE7BD8A78D
:1034D000F847E546D5FEE8FCA8FEC997F30739F49E
:1034E00027FC2FFD1FFE793FFDF268FF0085FF00DE
:1034F000A3FF00CF27FF00BE4D7CF785FEE8FCA8A8
:10350000D8BFDD5FCA8FEC997F30739F427FC2FFC7
:1035100000D1FF00E793FF00DF268FF85FDA47FC5A
:10352000F37FFBE4D7CF7B573F717F2A0AA8FE01C8
:10353000F951FD932FE60E73E84FF85FFA3FFCF365
:103540007FFBE0D1FF000BFF0048FF009E6FFF00F4
:103550007C1AF9EF6A7F747E546D5FEE0FCA9FF696
:1035600043FE60E63E84FF0085FF00A3FF00CF37E7
:10357000FF00BE0D1FF0BFF47FF9E6FF00F7C1AFFB
:103580009EF62FF707E546C5FEE0FCA8FEC87FCCF7
:103590001CE7D09FF0BFB48FF9E6FF00F7C9A3FE88
:1035A00017FE91FF003CDFFEF835F3DEC5FEEAFEB4
:1035B00054BB17FBABF951FD90FF009839CFA0FF2A
:1035C00000E17FE91FF3CDFF00EF9347FC2FFD1FC4
:1035D000FE79BFFDF26BE7BD89FDD1F952845FEE44
:1035E0008FCA97F63CBF98398FA0FF00E17FE91F93
:1035F000F3CDFF00EF9347FC34068FFF003CDFFE66
:10360000F935F3E6D4FEEAFE546D5FEE2FE54FFB8D
:103610001DFF00305C8727D4D1B8FA9A4247AD1914
:103620001CF35E67B7ABFCCC341DB89EF49B8D37A2
:1036300070A53F514BDBD5FE6602E4D2E4D26314A1
:1036400051EDEAFF00330B20C9F5A327D68A29FBE9
:103650006A9FCCFEF0B20C9F5A327D68A3EB4BDB25
:10366000D5FE660286229727D69B467147B7ABFCEC
:10367000CC0765BFBC693737AD19A4A7EDEAFF00D9
:103680003301416F5A379F5342FDD63E94DCD1ED52
:10369000EAFF003318FDC7D69431A6814A051EDE25
:1036A000AFF330D0093EBC52EE3498A314D57AAFB4
:1036B000ED30D0553F3568B3453DBC714512191BFF
:1036C0008CAAE0D50C055F7AE87C11A4B6AFE2388D
:1036D0002DC1009F9B914A55EAA57E6638ABE85AFA
:1036E000BCD1EDB48D0639AEA20D7570498C1FEEBC
:1036F000FAD72C48CD763F116FDE7D7BECBE588E1D
:10370000281708A3D3AD7187F5A50AF59ABB932AAC
:10371000695EC855C93E94D6CF63CD018D382E540D
:103720009155EDEAFF0033208F2DEB4858FAD29ED9
:10373000A68DA7E947B6ABFCCC040C73D69F8F5679
:10374000A1131D687C0A7EDAAFF33013259800714F
:103750009E29F247242E55F208A87AB0C57A9FFC1C
:1037600021635CF0ADB5E40556EFCA0C14FF0015FB
:10377000633C5558EF265C60E5B1E6037139CD3402
:10378000B107AD589EDA5B399E199195D4E3A556E1
:10379000EA4D68B1151FDA64B56D032DEB49BD8F95
:1037A000734A4E29B47D62AFF3327414B37AD2EE09
:1037B000603AD2A8C2E4F5A6934FDBD5FE66313756
:1037C000907AD0646F5A4C73462A7EB157F9981E8E
:1037D00091A55C6AD79756D0B5FCBE6146DCA0289F
:1037E000C9EDDAB47C19A77887C457125BDFCB71B7
:1037F000696F1B10F7040049FEEA8C73593A4DDCDF
:10380000667478924129500639C607AF7AEFBC3307
:10381000E22D2E1D456D2F2F56DA6552424FF27E56
:1038200044D65255153BA4107173716CE1EEE0F172
:103830000C1E243613F9F140A8C7CD5C147E3EF06F
:1038400038ACC177AA66D3179233F9C564040E4524
:10385000771AA6B96378EED6D349342AC732471B04
:103860006C1F8D70D7975024CBF67DFF00BD9E3224
:1038700018F1B46EC71EB91FCA9353B26D0D4A2E0C
:103880006E299C7CFF00EBE4FF007CFF003A228A5B
:10389000499C2451BC8E7F85572689FF00E3E24E68
:1038A0007F8CD771E03F8810782B4CD4923D2A2B27
:1038B0009D46E30609E45C85C766E871F4AA4238D0
:1038C0006923785CA488C8DE8C3069A7B57D07E2DF
:1038D0006F16DB695258D878FF00C31A6DD2DE40EC
:1038E00025F36C8731FA820F208F506BCF7E2178C1
:1038F000234DD16C2C7C45E1EB879B44D40E220EEA
:1039000072D19F4FA75A02C79F528E6928CD0202DB
:10391000314019A3AD2E680108A28EB45031F129AF
:103920002AE2994F8A4F2A4DDD47715627B6053C4A
:10393000E87E643DA8195338A5DC7D293B9A3F9564
:103940000038366971EB4FB587CC62DD979A4249F2
:103950006DD4D00A721738AEFBE13CC96DE2395D17
:10396000C2B1FB3385CFAF6AE1ADC82DB5B946E032
:10397000E6BB8F87F6EB1F882357CE245DA7E86848
:10398000AABDC65535795897C71E1BBAB8F11AB5E6
:103990009C4D2C5346A2271FC640E6B83B9B592D91
:1039A0002E1A1990A48BD54F6AF67D675A11BA89E1
:1039B000F091D8EF745CE09C8C62BCE3509A1D7768
:1039C0005C0C13640A37363FAD14EDECEECAA91B4C
:1039D0004B439908DC90BF2FA9A527E4C0AB178EF5
:1039E0006E656D8BB63CFCA8BD8545E4ED4F435A32
:1039F000462CC9B08A3F9496FC2A39415352C4A43C
:103A000071DA8B81F281DE9C97BA4DCAA189343577
:103A10003C2F07B50B1EEEB596E3231F4AF689B57A
:103A200037D07C05A610375C48B18507F3AF3AF074
:103A3000978724F11F886D74D8F3B647CCAF8E11E9
:103A400007535DA7C50BA8D350B2B0B75C5B5BA7AB
:103A5000C807E42B0AC93691D342EB539EF12B439E
:103A6000AC429A8AC42391C6C940E9BBD6B8D65D98
:103A70008C4106BB4D3E192EB47D486D27C9459734
:103A80001FF02C1FE75CCDE42194B0EA0D5537D030
:103A90009A91EA67139A451823D29C17DA9EB16768
:103AA000DAB5B180C90E4F151FF2A98A03900F3500
:103AB00017238A4C005147D693D6A40EABC3334785
:103AC0003A470DD4CD0A44DBFCD56DA57F1A97C6C5
:103AD000378C26B377BA4BF5C65262BCF07EE9F557
:103AE000AE5EE479580AE403DAAEADBBCBE1A7924F
:103AF0005FBAB703667AF3D6A94E71D9E853A7190E
:103B00006B6D4EDB49B88EF3408FFB43567B58E517
:103B1000C84B2855630C3B658F5FA5727A9DCB3EE1
:103B2000B1691A602472281F81E2AB78803C17903B
:103B3000C79C22C2A17F2AAF689978252DB9B7AF5B
:103B4000FE8549CA52D64C6A118E8915A5FF005DC3
:103B500027FBC7F9D6D783B4A8359F1669D6173780
:103B6000496D1CD328DEE323E9F8F4AC57FF005875
:103B7000FF00EF1AD3F0CDFC1A6789F4BBDB9FF589
:103B8000105D47249EC011CD320FA17E235F783B8C
:103B900047D621BFF10F87AF751B88E2548DCC6CDF
:103BA00060C7A75DA4FD6BC5BC77F102EFC65341AA
:103BB0000240965A5DAFFC7BDAC7D07B9F7AF46DEA
:103BC0007BE31C567E33BEB1962B5D67C352841BCC
:103BD000428380546EC763F8D73FE2DF86F617FA58
:103BE0004B789FC0F28BBD34AEF96D10E5E1F5C0A6
:103BF000EBC7A5228C5F05F86B485D0AEFC5BE28B0
:103C0000123E936D279305AA1C1BA97FBB9ADCD09B
:103C1000ECFC31F13EEA5D22CF428741D4210268BB
:103C200065B67244910601D581FE2C1CD334ED0695
:103C3000F7C6DF08B4FD3B4211CB7BA65E48D71622
:103C4000A5C2B306E8DCD5EF0BF85CFC2C9C78AB86
:103C5000C537F1DB4F1C6CB6FA741206926246301F
:103C60007DA98AC7311783BC3DA7F8F755D0FC431F
:103C7000AF359595982629C264C8723E5F63835B11
:103C80005E31F0278434FF008791F88F42BEBC720A
:103C9000D308E26B9E93F3838181E84D751E166F06
:103CA0000AF8A3C6B7571A6D8A6B12EA7FE937CBB9
:103CB000A8C008B241D7613D492C054DE30B0F1454
:103CC000F8CAD25F0F699E13B5D3F46B7902DBDDBE
:103CD000DD1119555FEEAFF08FA76A4163CE7E1FED
:103CE000FC2EBDF1B42F7F25CAD9E9913946988CB5
:103CF000B311D401FD4D7447C01E0CF105A6ABA74E
:103D0000F84EE6FAE357D3D41F3A571E4CC776DC79
:103D10000ABF77A66B3A17C25B4D0BC330CB7F75DA
:103D20007F7B3C77B71600C83E5629F7874042A8EC
:103D3000ABFE16D322F01A68FE197951FC43AD5D33
:103D4000472DDAA367C8893E7DBFA5033CEF4DF838
:103D500043E2BBFBAB88E6B68ECA0B67292DCDCB01
:103D6000ED4E3A91EA2AA7893C3563E144805B78BD
:103D70008EC7559A462B2C56DC84F7CD6DFC66F128
:103D800075FEABE31BDD1E3BA9069B62C2310A3602
:103D9000159C0F9891DF9E3F0AF368977483D29821
:103DA00012DD43B25CAF47E4541FA55D98EF9A382B
:103DB000FA951558A665619C1CD3406969D113A674
:103DC000DE4BB7200C67D2A895DA07A56D6917B648
:103DD000D6DA55F5ACE78970010338E0D4766C2D5E
:103DE0006CCC8E892A4ADB63474CEE3EA2B4A76EA8
:103DF000A0548EDB7DBACD1E71BB0E3D2BD0BC0511
:103E0000A71875EB55941DD3700E3B0FF22B968AB5
:103E1000EEDACA530CD14724A0E5B68FBA7D2BAC9D
:103E2000B2F15D9E9F6F67A85BD966E203FF003D1C
:103E30007A76C63D2AEA479A1A174DDA443AD59D52
:103E4000E6B897C2D115B6DE1DD248A015038FBDC6
:103E5000E9ED5CBDFA5AE95672D9DB8696EE43B2BB
:103E600059FB0F50A2BBF82FE07D3946AB66237F8C
:103E700034CB0C626F95893BBA74C7B9AE0F57D576
:103E8000CBEAF70F14701819891850D83DF9ACA374
:103E900005A21CDF72287C3D7577A3B6A96199E164
:103EA00088ED9957AC66B3245419F319F7E7A6DAED
:103EB000F48F85DAD79FAF5C5ACD6D13C535B11E2F
:103EC0005C6A141239E7DF1543C6FA05B43712DD10
:103ED000D9AAFD9C9C951C18EABDB28CB908549BCC
:103EE0008F3239BBDF0BDE59E916FABC01A6B09B55
:103EF000FE5A0FE06EE0D60CC0E79E95EF5F0BCD4B
:103F0000B6A5F0FEE74FBC4CC3F69650C7A72057A6
:103F10009CF8BFC27FD91AB4D08015724AF1C30A87
:103F200088D68B7CAC4E9BB5CE0D8F1915ABE1CDF1
:103F30000EE7C47AC43A6DBB0477C9DE46428F539C
:103F400051DBA5989C47771B0563C306C62BD83C5D
:103F50001F1E97A1F86EE350B0B744BC0764B24887
:103F6000771C76C1A8AB271D8D29C3988B4DB4B3A0
:103F7000F04C17561600CF7CF959E7270CD8FE04F1
:103F8000F4AE3753B97D6DA79EE7092C3F30E3A807
:103F9000F4A6EAD3DC36A666491F7336E0C0D6869F
:103FA0009DAA69B73BA3D5A131CBB71E7C4BF7FDCA
:103FB0009D7FAD73F2DF53B2CA3A0FF09CF05A2ED8
:103FC000A4D77FF2D6031150B9E09FFF0055726964
:103FD0006C8F7D2423E746CE2BB4D16C1DEE9F243D
:103FE000ADB21CC92FF0E33DBEB54F59F0DCF69AD7
:103FF00081D52D55FEC7B8EF0DC34679E08F7ABA4B
:1040000069F319D447072DB989997073DAAACA5987
:104010007006715D0987ED48BB549706B2B53B4306
:104020006D2104019ED5D9CBA1C0F73381233CD3A8
:104030004939A56A68AC58C70C9A3A503A504D2095
:104040002E3C9612302E973C7FB4BFE1539BFB630E
:1040500068D6DB6E3CB660D8DCBDBF0AAB3E9F774E
:1040600006A0D612DBC8B76AFE59876FCDBBD31541
:104070000491BC4EC922947538656E08A1A2B99905
:10408000A1777B6F7ADBA659D8818FBC3FC2A3860C
:104090006B48766D49C85391961EB9A6CDA5DF5BD6
:1040A00069F6FA84D6B2C769705843332FCAE475EB
:1040B000C1AAFB195431460ADD0E3AD0B40BDC69B3
:1040C00039724F734BF852C68D2C8111199D8E1584
:1040D0004724D12452C333C5223248870CAC304127
:1040E000AA244ADEF0B78C758F086A06EF4BB8C277
:1040F000B7FAD81F9493EA2B0690F340EE6ADD7866
:104100008AFE4D72EB55B395F4E9EE18B30B3731D7
:10411000819EC31542EEF2E6F6769AEAE269E56E12
:10412000AF2B9763F89AD893C11E268AD0DD3E8BB9
:1041300074211179C5B6E7F778CEEC7A560019A04C
:104140002E5ED235AD4F41BDFB66957925A5CEDDFE
:10415000BE6447B7A1AB7A9F8B7C45AC2B25FEB5DF
:104160007B3A3758DA5214FE038AC6C628FF000A83
:10417000760B9B5A3F8BFC43E1EB77B7D2B56B9B39
:10418000585CE5A38DBE5CFAE0D56B4D7F54B3D788
:10419000A2D6E3BB91F508E4F33CF90EE62DEF9AC5
:1041A000CE3C629A4D1CA172CEA17B3EA5A8DCDF5D
:1041B000DCBEEB8B995A594FAB31C9A446F2947FC0
:1041C00078D42A383FE1566ED0A4713329059783FD
:1041D000EB4586224C7ED0B3752BCD5936AC2037BB
:1041E000528E646C2AFAD53B403ED00BFDDDC320D5
:1041F000D6BEAF711BB4213A28A06538EC246D9F60
:104200003C67CC38DA1B9ADD7108F12DADAB362D49
:10421000ED42463EBDCFE75434DB9FB188D923F34E
:104220002727CC507A2E2ABADD35DEA534937DF9C6
:1042300089391EB42282FADE6B4D4E6867044A1F2C
:10424000F0233D6A6B6DAC97A99DEA51B1EDD0D6D4
:10425000DDD4E9AE786E269517EDF67FBB128EAEF3
:104260009DB3589A4C2671245173310709EB91552F
:104270007D03E166BEBF266D639146D79218C97172
:10428000DF8E71581777605AC5022A955F9C391CDA
:10429000927AE6BA0D3F64FACE9A974ADF664541B4
:1042A000383D00EF54FC41656BA3FDB6C55C4CC5C1
:1042B000FE495471B41E3F4AC9490DC6E68F823C7F
:1042C0004961A66A066974CCCA887F790B1C8F7213
:1042D0003BD6A6BBAA437064D42CF6CAADC48A7A76
:1042E00011E84567782EFB42D37CDB8BFB59A09607
:1042F00058F624B8F313F11DA9351BFD3D35B0E97F
:10430000024F6937CAE207DB9FA7FF00AAB36BDE43
:10431000B9AC1DA363D07C1DE24D0D3C3ADA741696
:10432000CD613CC7CDD858ED76FF00649FE5599E1E
:104330002FBC1A958ADB5D90278F77D9E6F5F66A50
:10434000B33DF785F50D1E0B2B28388136857C2C67
:10435000AAD5C2EBB3DC80D6AF23346BF73CC1F3F4
:10436000AD6295E7735D234CE56E9B7B313DFB575A
:10437000A269771FD99E07692F132971B23009E707
:1043800038EB5CDF873C353EB3A82C93C6C2CD1B0F
:1043900073C84603FB0AE9FC5173F6E78B4EB584FC
:1043A000CB05A0258C63033EA6B6A93E6F7519D137
:1043B000834F98CB4B98E4BBD91421E36DA083C7FE
:1043C0003DF15A8BA6C969AA4F0B40A9011B339C2A
:1043D000AECF5F7A34FB086D91676448CA7DD937E8
:1043E00013CFA63FAD2DC69B12D91BC33A19B77484
:1043F000072CD934247521B6DA849A5D9CB2DB3758
:10440000992799E55A67A06FE27C7D2AD587F6BB8C
:10441000CE12695E54917F7AD8CF1E86A859ABAD73
:10442000E5A17D842C8C891E381EB5ED7A1D9DA4D6
:10443000766C4448998813D0D76D3A4B9398F3EB38
:10444000D4E5763C8B52D2FF00B257CEB78F607561
:10445000CE71FCABCEF5F92537C7CE1C919E95EBFE
:10446000BE3294456976DE7A12926638FF00BA3A17
:1044700076AF19D5A632CE1CF248A52D34315AEAB2
:10448000671C139ED49C0A3AD340AC580B9E73D23F
:1044900094F34945203D15A0175F1EBC82F2207D94
:1044A0006705A36DAC3E7EC6BA89BC1BE1E1A8E9F5
:1044B0004F79653DDCDAAEB935A4B23DCB02143F8D
:1044C0005F735E77278EF5A97514D488B15BD49C91
:1044D0004E274B28C3EF0739C815D3F86FE207936F
:1044E0003585CEB5ACEF4B7BC6BA6B51A62390C5D4
:1044F000B2DB5F3F2E7DA90CEC350D17466D33C244
:104500009E1DB9B03359CDABDCDB4789995A21BF29
:104510001918EB59DE21D274BB6F0BF8534696C8BD
:104520004F1C9A95C5B2CA5CABA2F9B8CF1D78F5FD
:10453000AE1357F881AB5D6B30DCD9DC04B6B1BD8E
:1045400092EEC55E25DD1B31CE4FAFE3542F7C6B61
:10455000AE6A0B62B73728E2C6E1AE601E528DB27A
:1045600031C93D39E69D80F4B83C15E1CFED7D6E53
:104570003B3B29ED65D1F53B6862996E9CB3076EB4
:104580004F3D3A51AD784FC3E97B25E5ED9DC5ED33
:10459000C5D7889B4F6924BA704212BF371D4F356B
:1045A000E749E3DF10C7737F70978825BF9E3B8B79
:1045B00083E4A7CCE872A7A714DBAF1E7886F76761
:1045C0009F768DB2FBFB407EE507EFB8F9BA7B74AE
:1045D000A7611D86A1E0EF0F69167E29BB7B296EBE
:1045E000469DA9A5A411B4ECB846FA7535CC7C4B10
:1045F000D0EC3C39E39BAD374C88C76B1AA1552DE5
:10460000BB1919EA6ADE97E34B99D7537D575A587D
:104610004DF5C0B89A23A6A4EB238FE21D36D677BA
:10462000C42F10DA78A3C6575AAD8AC82DA408AB98
:10463000E60C1381E9480F6493ECDFDBF30884A3F5
:1046400052FF008444E19C8F2B66D4EDD735C9DA44
:104650007837C1F6DA568171AB7910A5F58B4D3CF0
:10466000D35F3249E673B762742338AE17FE13DFA7
:1046700010FDB8DE7DAD3CF365F602DE4A7FA9E3AE
:10468000E5E9EC39A741E3FD7A0B5B3803D9C8B6FD
:1046900071186DDA5B38DD910F604AD3B01DA5AF9C
:1046A000807C3D36BDE1C80432B5A5F69735D4EC23
:1046B000253CBA86C1CF6ED56A4F05F82F4F834B84
:1046C000FED0FB3C115DE9C6E1E696FD96532F3B1B
:1046D00076A771C579CDBF8CF5EB6D126D221BDD10
:1046E000B692EEC8D8BB9437DE556EAA0FA0AB29A0
:1046F000F1075E4B7B684BD9C82DA0FB3C2F2D9C4E
:104700006EE91FA64AD3B303BF87C0BE179750D226
:1047100074DFECE959EF3456BE6B8172F90E14F474
:104720005E98A874CF875A1CD1C363A843025ECF9A
:10473000A49BE4F2269B7FDDC8639F93AF6AE1618F
:10474000F1F6BE97F6B77F6B4F3ADACCD944DE4A22
:104750007CB11ED8C7EB57D3E24788214882DD40A1
:104760005A2B6FB2AC9F658CB88B18DBBB19A2CCEF
:104770000EAF43F04F86AE17C1F6D796124B36B345
:1047800014AD34BF6975DA53774038ED543E23C514
:104790006767E08F0CDB0B24697C995639CB9DC889
:1047A0000487D383D3BD739A7F8E35686EB4931418
:1047B000CAAFA5ABA599F2D7E4DD9CE78E7AF7AA3C
:1047C0005AD6BFAA6B96F6B6F7B22BC568196340E6
:1047D0008176EE393D3DE9B8B45239F887EF0A13D6
:1047E00080C38CD4AE59BE47CEEA8A553CB0182B54
:1047F000D2BA5F0B59A6A17CF34D811429B9F8A256
:1048000028667E9F0DE7DA9668ACE79086006D42D9
:104810004628BBD32E74CBADF3C2F13302D1C6C34D
:10482000E6C7AD7A5195E7D7B4BB0D3660903153EA
:104830003469D4839CFE181FAD66F8E8B59DFDC4AD
:104840000CB0496E533030196519C727D734495811
:104850006B5386B4BC7817CA5C9DDDABA0D23C33E9
:10486000A9583596B28F08B37412999DFE5523F856
:104870005BDFDAB2F4ED11EEEF6DCF9AAB0CCAD27A
:10488000339FE10A79AD57D43FB6EE9EC2D6516749
:10489000A342402CDCE71FC5EEC6B3BF62D23B90FB
:1048A000C3C43640687A6DB4123A1F3A67FE36EFD9
:1048B000B6BCDB53D266B0D4246D4D84C50E1555FD
:1048C0008F5AEDEEEEAD346F0FDBDEE8CF244F04F0
:1048D0009B25495B2C73F75EB8BD535F7D5D98CE19
:1048E0009F37F115E87DEAA304D5D04A56D0974BFF
:1048F000F12A4732DADE59C13DA371E5C89F77F14D
:10490000ED5D24507841D8DC8D36E61950E0224F19
:10491000B9573DF06BCCA499D0B053F2B7635A9617
:1049200077F09B65F3E7F2E45E386E6A25108492B7
:10493000DCD1BE23ED126014911880C3AD6AE8DEAD
:1049400024B9BC923B2BB4B7B8917FD5B4F106CF54
:10495000B669F069767E27810C3A82C3A88183BF4D
:10496000EE4DF8FAD68E91F0E351B4BE5BABE78D15
:1049700012239F939CD66ECA3666AB57A16356D658
:10498000353FB1B4C12311C2462381368C7B8AE402
:104990006D7C4F79673492A178A46070AABC1CFA30
:1049A000D7517FE23B6B2BE315A401B6F524FDFF45
:1049B00000C2A86AB1E9FAC687FDA9676914134560
:1049C000262E44408DBE8D4A9AD3546B2B37646398
:1049D000FF00C25BAA2AB94902163CAEC18353C18B
:1049E000E26B997E5BA4882371BE3500D65BC91A41
:1049F000BABC88BCE51FFC6A9BC4CB1B107F759EAC
:104A0000D5B72A04D9DBDE2048EC9C0DB852D13250
:104A100072AE3BFE35D8E9FE3C86DF4990942563B3
:104A20008B68CF7E99AF35F0EEA325C467459650CD
:104A3000558EFB763FC127FF005FA525D407CC929A
:104A4000267FB3ED3FBC89BA83ED5BD3ADCAB959BC
:104A5000CB569F3EA5BD5B528AE20D464DE7133013
:104A6000F2FD4F7AE32EE02D12CBB871C568EA0C47
:104A7000229367421735997931655507E53CD0E5B2
:104A8000CD7666D24523494A452564C80A051452A5
:104A9000024C605281452D3482E1450292AC05C141
:104AA000A4C7B5381CFD6949EC28B00CDB482A4086
:104AB000334DC734AC0251FCE9C39A36E69D806E93
:104AC00028EA7DA9F8C75A5381400D0314EF5A4CC8
:104AD000F14A39A00556D8C1B078357E5785816432
:104AE00039CFE759C462A544608A4725BEED521A02
:104AF000124C06500F2783F4AEB34FB1962D1C987D
:104B0000810642589F61C7F5AE60A0C3023A1EA35A
:104B1000D6BA8BED5041A144880A3ECC0E7A8E0F56
:104B2000F4AA5A0CAD26B32C3974731346AF18315E
:104B3000F0DD33D6B1D64BABC749AE9A464EECC486
:104B40009AA7087B8BA1BF7618E6ACD95C38D49ABB
:104B50003323790C76B02780B583D469D99D14D7D7
:104B6000F6F6DA5E76E21688A468382C33C9FC4D76
:104B700064AEAF6F6B10863B3497FBDBFA66A9EA35
:104B8000773F6BB8FDC83F6787E44CFA0EF576C2F5
:104B9000DECA7B16C9C4D8EF554E95CA94CB92CCC9
:104BA000BA969723D8A3C4CEA37C21895247A57374
:104BB000C20B9DFB1239037F7706B6B4712C76D3F6
:104BC0002C4373B4A1531EB56E5BFD4648A6532813
:104BD0002D18E006A9D9B43506D73197AAA43043D9
:104BE0006EB28533AA0DC07AD62B2EE21B1C9AB664
:104BF000F6CD0913DE3EF76E55339DD4D8144B70B5
:104C00003CC2A809EBE9424431B697335AC824891B
:104C1000CA1F6AF53F0B78CDAFED3FB335399947E1
:104C2000DD4954F2BFE22B8CBAD057FB3DA61B9056
:104C3000F61B721BDC1A82CED67B1B16B9994A363C
:104C4000E1E567BFAD1569AB58D29CDA66A7893438
:104C500059744D50AB3178E4E639BD6A2F0F6B3F84
:104C6000D93AB3B4E825B694149E23D1D6B6ED6EE6
:104C7000E2F1268EDA65C3E67419B77EE31DAB94C4
:104C800068C46EAB327CC9F2B67D475A88FBDEE958
:104C90006FF98EBAFF00C276BAA58B5EF86EE4CECD
:104CA0008A373DA4BC489F4F5AE4126088F6D3204F
:104CB00056E42B7BD686977B77A1DF0785C98F3992
:104CC0001EE2A3D674DB8339B948498A67F310E33F
:104CD000B1ED4D464B734535CA6242D2C370B32124
:104CE0002A54FDEF4AEC85EC5ABE96D712AC715FA0
:104CF000DA901A4ED221EFF5AE4AEE3645D8C0AB67
:104D000077153DA4D98C286E24015B15492667CC04
:104D100056BC90493BB77AA778009554750B822A08
:104D2000CDC9DD2B6D1DF1556E5B320FEF639357CF
:104D30006316CAE73F8525387279A3206477A86691
:104D4000637B520EB4A68CE0D2027028273481B85F
:104D5000A5FE75A0094633498A5EA6801CBC645036
:104D6000CB80314A38A0D30100A1874A5C71CD279E
:104D70005A004DBFE4D2838A5CF1498EB43002DD23
:104D8000A8A3BD2E39A400169D480E0D3D467AD02D
:104D9000026DCAFBD5CB56C465CA33BE309ED5570B
:104DA0003F2900D755E18B11756A59D72376C18EFB
:104DB000B9CD6D4A0E6EC84E5CA61AB982D99265FD
:104DC000C293C823934CBBBA171A74718C831371A6
:104DD0009EEB5D9EADA1CF081B970A060B115C8B65
:104DE000E9D246B3222EF9226CB05EEB4E74A71DB9
:104DF000070A9196A564015E1949C00BFD6ABCC003
:104E00001BB7D9908ED9EB52B4882364CF1D769E00
:104E1000AB42C82551C6248C7CA40EA2B9968ECC78
:104E2000D656DCBBA758CD32CB1A2FDD19E7D2A955
:104E3000BC37114C635C8663F955C86FE4B4BA594A
:104E400087461861EB55EF6691E72C8CC15BA62B6A
:104E5000B24972E865D4D4B6BC5B0B758A0DBBF061
:104E60004091BD4F522A28248564651F3313D5BA5B
:104E70002FE1DEB211921192C6490F5F6A7A4E7D20
:104E8000768F45EB5C9CB6DCD549B42DDC64DC4800
:104E900044AD2375323F6FA54081F71207CA07154D
:104EA000670F72DE54319FF6B1FD6875F2D42E0A99
:104EB000E7D6AD43A89B37BC39AC4918FB0BCC16E1
:104EC00036E9BD4100D5EBED3EEE5726E248A77C22
:104ED00070A1BA571B1A48CC4C3F7939F7A68B8979
:104EE000924DE598B6739CD44A377A0E333762698F
:104EF000B4ABC594031E0E579AD2F11DBA4EB0EA58
:104F0000500FDD5D0DCE07F0BF71584BAABDC5B780
:104F1000932B678EFDEB5749BDB7FB2DD69F79309C
:104F20008E27F9E22C320356528B8BB9AC5DF426F6
:104F3000F0CDFC1A76A90FF6A4264B093E46257340
:104F4000B39E0FE06ADEB1AADC457F2DAC2EB25ACB
:104F5000BC8400474FA5436C6E6C2392147B7B8B03
:104F60004B838D8FF346C7D8FF0009AC9BF6B886FC
:104F70004486585D36BE5723FAD6EECD68636E5927
:104F800019979E67F684B19258F2052698E45E4719
:104F90001F40B93CD68DFE9E2D641752B13E62EF84
:104FA0001ED59F6CDFE99F280014359C77B1A49E25
:104FB000835227959B91B998F6AA92A66E1C2F2131
:104FC0004E2BA4B0B2135B4D2EF099FDDC5938ACDA
:104FD00069AC9AD19FCC65CE7B1AE974DA8DCC5C32
:104FE0008CF236B5213939A74872DC74A674AE76D6
:104FF0004887AD2639A52734038A902414EEB4BB24
:10500000683C0AD406918A5519A319A55FBD400BC7
:105010008A29E10FA52E3DA9F285C6E339A4DBEF6D
:10502000526303DE9B4EC17186929C78A6D4805356
:105030008738A6814F0314805DB8A4CFE54353A100
:105040004677000CE4D3027B2B46BB9B602028E410
:105050009F6AEC746D62C34E30DBAB058D1C33BFB1
:1050600052715CDF9508DD0437490927041EA7F15A
:10507000ABADA68B0816696DBCC8CE3F781BE5AEFC
:10508000BC3C944CEAC2EB53B2F1078B6CB58D90EB
:105090004327CA00E76E09AE3BED3E4F8862788E2B
:1050A000C5DFB18FA8356747B38B5596E24658E008
:1050B00048137BC84FDD158BA93EEBA3347B846C72
:1050C0004F97BBAE335B549DD1308DB445BD674423
:1050D00077BEB968B0FB39F92B292D2E546421060F
:1050E0003E8D5E9DE0D3677F66D752420CBFEAE4F7
:1050F00053DFDC5721E2BD42DD350FB2D92E238DBF
:10510000CE4FAF35955A3051E608D46E5CA416B236
:1051100041A95AA453C03CE194322301BBD0E2B769
:1051200034FF000BC72E95BE5B88E439E32857F2A5
:105130006AE6137230BA8875F9BD83569C1AECE69C
:10514000D16D5D884772FB4745AC149C5AB1D0AD18
:105150002DC9B50F045E5B2A3A3C525BB8CAB06FEA
:10516000BBF5A7D8780E66CBDCCF14717F1156DC67
:10517000C6B6ED8DACD01F3EFA781C9C2A5C464426
:1051800045BD370AEBB4DBBD3ACD364CD148ECA374
:1051900088CEE04FB575FEE9ABB3094E69D91E67FD
:1051A0001DE5AE9BABC5A75B44896E64D9334A321B
:1051B000CFF5F6CE2B335A8B0FF69202F98C5FCBDC
:1051C000C602D5FBCD3C5EF89992CED9C22CB970FF
:1051D00047DDE6A96BE6732C9F6840ACAC5102FA40
:1051E00056151AB685ABF531ED2E4DADDC7305E8DD
:1051F000DC8AEBAF3C20BAB5AAEA5A3BA1320DCD0E
:105200000138FCAB883C67D6BA4F0DEAE63FF89709
:10521000CF294898E51B3F74D70CEF7BA36835D4A2
:10522000A69E19D5CDC089AC648803F33B8C2AFEB9
:1052300034BAA2240DE5C6776DE37FF78D7A4DBDB4
:105240009C42D249AFB5032285C818AE075D6B6991
:105250002661096254F56EF59FBD2DCD7DDE867603
:105260009DAA496AC03E1E2CE191FA1AEDB4BD47D1
:105270004A9A38E1D523F3EC5C855949F9EDDBB75F
:105280003DC5702CA0DB23EDE475A9EC6F82661997
:1052900097744C36E7D2AA3271643D4EA7C656A128
:1052A0001FEC9132B045DF1BA9FBE2B8DB424CF8A2
:1052B0000096C616BA16BB792DFECB380F35B7DC73
:1052C0006FEF466B22C51135729CAA6770C7E75A0B
:1052D0005D395C17C26B6A73DB59916A80B25BA05F
:1052E000CF3D58F5AE5E79A4B890B1E07602B5AE88
:1052F000EDE692C25BA2A5BCD7CEEAC693E550010B
:10530000C1EF5AD49C8C88C9E690F341E9482B013F
:1053100009DE9693A52D0059A314EC50A32703ADE5
:105320006C804C558821C9C9EB4AB6CC4038A9A33A
:10533000C822B58C3A92D83C585AACF8C55B95B0A7
:105340003AD536E5BDA9CEC81005F5A0ED19A19B4B
:105350008C0E95111D6B26CA13A9A5C52A8C53D591
:1053600078A40300A791C5382E48A6B9DBC77A40B8
:1053700047D78ABB6D88E12D90B93D4D578616956C
:10538000C2806B4BFB0EECC4658F6B95E7CA270D93
:105390008F500F5A77562922DE99630C85A47843E3
:1053A00046339795C024FD2AF41A9795BAC6E1C4EE
:1053B000B6AFC14D9F77DC5672DD16406128427D45
:1053C000F0C3057F0A625E48ACD7AE55DA33B6212A
:1053D000D837AD45F5B9A3DACCD6D4AD974AB05B92
:1053E000489D84572D9964DBCEDEC2B320961D53B1
:1053F0005278DC08E1F2BCB8BFD8F4ACCB8BB799DB
:105400009B7CAF21272598D5AD3A16F2A5989DAA89
:10541000CA403E982BFE35AFB46F531E5D4E8ADCFA
:105420003697A79852E3648473B7D0F7AE6E6B5388
:105430003CAEF147248AC0047C7535A51DDC7B9306
:10544000ED885AD197CBF362392B5722B192C99C80
:105450003DCABDA3266175623CC07FAD39D5E6D19A
:1054600094A9DB5322D76452BDBCCB246538C83C19
:105470006471922AFC2B6BF67B4FB422F972E559CA
:10548000B38EFD6AD5D9B3D3ED12497175A84A9987
:105490000070918ED593732DDCD046F75E5C6A3E2A
:1054A000E0DB8A9855B152A5D8DED5B47FEC9B429B
:1054B000E7515B8B571FBA8F3C93EB8FA550B1F12F
:1054C00013DBC2B14A3CE247CA3A7D39AC69AE2728
:1054D00076679A52FC7193D05106CB931808B10F9E
:1054E000E2766E2AE4D4C849C4E89BC4612C2E1D20
:1054F000E59216994011C43BFA935CE5D49235B01D
:105500009E52434AC362B7242FFF005EBA574B0135
:10551000A4C2EC84D9C272A1BEF4F2E3FF0041AE92
:105520005B5195EE98CDB70AA7076FF0FA0A528D36
:1055300090B72ABA09262A085F4A8119A19739E546
:105540004D2B13914AE323E958EE069C7E22D45258
:105550004059F7C7D0A30E0D695CDE5B6A16AB79C4
:1055600015BF97227122562595AFDB229214FBE3DB
:10557000E6535B3A05948925C4773138561819A843
:1055800065A28220937C600C751F4AA30B885995F5
:105590009772F46156D8340432F553B6A2B98F63CA
:1055A000A3E31BBAD432C921B9DE9F29F9E3E01F76
:1055B00055F4A8E3661A8EF51F332E05168156EEB4
:1055C00048BF819322AE5A421EF1304A938E7F1A11
:1055D000A86E22DEBCE4C496709C47042A1B1EBD44
:1055E000EB953F7AB7AFE6C9B920E4BB11F8561383
:1055F00029048EF5BD5D4C88C9C526714E229B5885
:1056000080529E0520A5A00B78A9E05F9C5428320B
:105610004E2B46D2DCB60D75423764C9D9164045CB
:105620008FF0C552276E6AECE360C56748C4135D0E
:1056300013F774220325932D8A8724D498C9A6EDE5
:105640003B862B9A5B9A8CC1A72A53F61EF474E210
:105650008B00817AD382D382E05281EF4AC3140D4A
:10566000A0B719AAF8DCE49EB5647271DEAD5A45A4
:105670001E0BC885C7E953611A3A5E8B71FD952EE2
:10568000A0E0A21E23C8FBD50C3AA4E00B6BA766D2
:1056900083D3BA7B8AD35BDB79EC962B39E68E55C4
:1056A000FF0096121CA37D3D2B2CC10CD0BDC33135
:1056B000126EDA633D735A5A328D9129C9321BC575
:1056C000F22769011BF672C3A3FA356749299208CC
:1056D000914966E6A598F9C44424E075C9A9A09249
:1056E000DED50E6352FF00DE27358461665CA5724D
:1056F000A3D94D12832A15CF201AD64876DAC56869
:105700007F8883F9FF009159925CC93E7E7622B76B
:10571000ADE0F326577621A31BB23D318AD55886DA
:10572000CAFA65B1335DDABB208645C65CE0035337
:10573000697F386D2EF1F8C9F2DBFE79BF6FCEA01C
:105740008751B75B9B88E652C4BFC840A963845C9D
:10575000E4A2BAC7BC798C7EFF00B1AE795CDE0CE6
:105760009F4CB391F556FB4A00F13832073DB27FAA
:10577000FAD583E26B99AE35BBA590101642153B66
:1057800028AE8A7D465B7B71E765A55186641F362E
:105790003DEB365D6ADA4B1987D9A3FB4C9C962BFF
:1057A000CD4DCB6608BB66B510B7217BF7FA558D9A
:1057B0001EC7EDDA85ADB64FEF1FE723F845496BFD
:1057C000696E63FF00495396E8FDAB73C2F6C96D7D
:1057D000E29B50BCAC8AD8CF414D36B523719E3583
:1057E000B836F789651FCA900D8A83B56568A165CB
:1057F000F3E07236C91679F5156BC6CAF1F88E500A
:10580000DD7273F9D50D253170AF83B48C55F3DD9E
:10581000932DCAB347E54A54F4ED4D52476E2ACE54
:10582000A285265C8E704554CE28B906AE8776B622
:105830007A8091C0DB83915D9CF12DE69FF69B4BB6
:10584000C296EC33B7683B4FA67A8AF3804E457513
:10585000BE09D656CEE65B3B85F32DE75DAEAC3395
:10586000C1A24AE8A52B15EDECC4B24903E0799D2D
:105870000B7AF5ACEBBFF4ACAA0C2C42BAAD5ADCF7
:1058800059EA36907CB8538C818C8F5AE76FE2FBD3
:105890002C931E8AC722B37A17B99303FEF971D7E6
:1058A000BD6969AE1EE3938C0359509DB21F5ED54E
:1058B00066C2631DCE7D5BF9D10DC449A8029C6709
:1058C000927BD5563E6C437F0CBFC556B57F91C0C9
:1058D000F7ACF56CA95279AE8B99B12580A2870CF3
:1058E000194F7AAEC306B436C66DCC60FCC7FDACAA
:1058F000D56B984C610F6C52947A815C74A0D14A3C
:10590000791590CBF0AE4D6B5A48A9191DEB32308A
:1059100053AD5EB689A453C71EB5DF49194C92ED4D
:10592000BE5CF7ACE24B7D6AF5C23705B22ABED049
:10593000BCFA554D6A101D15A3950C7A1E94C78BA1
:105940006B54ED33A44A76B043D0E298ADE69A3D6D
:10595000DB0EF62B94346D1F8D68B5A848FE7EA62D
:10596000A8C9C566D58232B8DED8ED4D1CB003ADEE
:1059700021271ED4F850BC8AAA3BD66B56533B2D28
:105980000BC13793DAAEA572BB2DF1F20EED50EAE2
:10599000164DBCC71A1F294F016BB3B6F1841A7D8F
:1059A000ADADA9C3471C6171EFDEA9F882FEDAE450
:1059B0007DAB4E31E5A1D8E31CFF00FAEBBE1082AF
:1059C00081C7ED25CDA9E7E2CE46BD44849CB371E5
:1059D000ED4DD65A586E0332ED95970DEE477AE8A5
:1059E000FC2D6F24F772DD5CC47EC8A9B4B1E99CBC
:1059F000F1FAD737E239FED176AEDC365863F1AE34
:105A00006A94D25CC74426DBB193BC8240C1F7A143
:105A10004E7AF26980E2A48FF5AE766C5D86D5058C
:105A20009CF74FD17E541EA6B560598E9B1A431920
:105A300069A44EDE82892DD1AD16107F7411647673
:105A4000C7B5694D711E99A5C2557124C9B98F7C1E
:105A5000761556E55733DD997A768ED6E24BABB2A2
:105A6000A074504F7AAC9AEB59EAF3488330B214E1
:105A7000C62B3AF35BB8B898177257EB56EE6D56D3
:105A8000F21B7BDB71F3B1F2E503D7B1AE5BDD9BBB
:105A9000227D3F5178EECCD711896391B0E08E2BF7
:105AA00046EFC1C6FADCDE684E9751B72D029F9EC5
:105AB0003AE7F549C59A8B588FCE3A91DAA0D3F5DB
:105AC000A9EDA60FB9D5C7FCB48D8AB553B58573BA
:105AD000520D235A85FCA3A65CB2F4E52AD59E910B
