:020000020000FC
:1000000011E20FEF1EBF0DBF0E9480000E94D701BA
:100010000E94A2000E94A4010E94AD000E94D5008F
:100020002041546D65676132353631204545502099
:1000300000000E94AF000E94D50030783030303090
:100040003D307830302F30783030000000E00FBB8A
:1000500030E020E082EC0E94B100132F022F0E94BA
:10006000F40089EC0E94B10085E50E94F90065E585
:100070000E9474000E946D008EEC0E94B100862FD9
:100080000E94F9000E94E001653521F00E94A40160
:100090000E94E70189EC0E94B1008AEA0E94F900FF
:1000A0006AEA0E9474000E946D008EEC0E94B1000A
:1000B000862F0E94F9000E94E0016A3A21F00E9416
:1000C000A4010E94E70101E0200F0027301F30311A
:1000D00009F60E94A4010C946B00F999FECF32BD81
:1000E00021BDF89A60B50895F999FECF00913700C7
:1000F00000FDFCCF32BD21BD60BDFA9AF99A08958A
:1001000001EC0093740000E8009375000FEF04B950
:1001100000E005B90FEF0AB900E00BB90CE00DB92A
:1001200000E00EB900E00093100000E00093110021
:1001300000E00093004100E0009300420027D02E31
:10014000C02E089588E30DD08CE00BD086E009D056
:1001500081E007D00E94CB01089580E802C080ECC6
:1001600000C00F9300E0009300418093004001E045
:10017000009300410F920F9000E0009300410E9415
:10018000BB010F9108950F9302E00093004180930B
:10019000004003E0009300410F920F9002E00093B3
:1001A00000410E94BB010F910895EEBBFABDEBB771
:1001B000EBBDBF90FF91EF91EE0FFF1FBB1CBBBECD
:1001C0008791803019F00E94C300FACFE0FD87913B
:1001D000BBB6B694F795E795EF93FF93BF92EBB557
:1001E000EBBFFAB5EEB30895812F03D0802F01D075
:1001F00008958F9386958695869586958A3010F416
:10020000806305C08A500F9301E4800F0F910E9414
:10021000C3008F918F708A3010F4806305C08A50BC
:100220000F9301E4800F0F910E94C30008957F9304
:100230006F933F932F93DD243327222777E260E1EA
:1002400005D1802F8063803311F480E202C0DD2469
:10025000D09499DF890105C07F936F933F932F93CB
:10026000DD243327222773E068EEF0D0802F8063EF
:100270001127D11631F4803311F480E202C0DD245D
:10028000D09481DF890105C07F936F933F932F93B3
:10029000DD2424E612D1802F80633327D31631F476
:1002A000803311F480E202C0DD24D0946CDF012F92
:1002B00005C07F936F933F932F93DD2411272AE08E
:1002C000FCD0802F80633327D31619F4803309F4D0
:1002D00080E259DF812F806356DF2F913F916F912C
:1002E0007F9108951F930F9318E0082F802F881F88
:1002F000082F881F817080630E94C3001A95B1F790
:100300000F911F91089519D0102F0E94C8010E94CB
:100310009D011013F8CF003F39F41127C11619F0D1
:100320000E94D401CC2408951127C11611F000EFCA
:100330000895C0940E94A40108950FB1007F08950C
:10034000729A089572980895FBDF31D0FBDF08950B
:10035000FBDF30D0F9DF08959F9391E03FC09F937A
:1003600092E03CC09F9395E039C09F939AE036C0DD
:100370009F9394E133C09F9392E330C09F9394E6A0
:100380002DC09F9398EC2AC0F9DFFBDFFADF0895B8
:100390009F9391E02EC09F9392E02BC09F9395E096
:1003A00028C09F939AE025C09F9394E122C09F9319
:1003B00092E31FC09F9394E61CC09F9398EC19C0D2
:1003C000F9DFFBDFFADF0895FBDFFADF0895FCDFDA
:1003D000FBDF0895F9DFFBDFFADF089500009F934C
:1003E0009F919F939F919F939F919A95B9F79F910A
:1003F0000895C7DFC6DFC5DFC4DFC3DF9A95C9F73D
:100400009F910895020F131F0895021B130B089567
:100410000F921F922F924F935F936F937F9322249B
:10042000139FB001029FA001129F500D611D721D0C
:10043000309F500D611D721D8A019B017F916F914C
:100440005F914F912F901F900F9008950F921F92E0
:100450002F923F924F925F924F935F9322243324C7
:1004600044245524552740E2000F111F221F331F3B
:10047000221C331C441C551C551639F4451629F40E
:10048000371648F011F4261630F0261A370A450AB6
:10049000550A089401C08894001C111C4A9521F744
:1004A000332D222D112D002D5F914F915F904F9094
:1004B0003F902F901F900F9008950F921F922F92B0
:1004C0004F935F9311242224552740E1000F111F01
:1004D000111C221C251611F4121620F0121A250ADE
:1004E000089401C08894001C4A9581F7112D002DB5
:0C04F0005F914F912F901F900F90089586
:00000001FF
