:100000000C9446000C945D000C945D000C945D0013
:100010000C945D000C945D000C945D000C945D00EC
:100020000C945D000C945D000C945D000C945D00DC
:100030000C945D000C945D000C945D000C945D00CC
:100040000C945D000C945D000C945D000C945D00BC
:100050000C945D000C945D000C945D000C945D00AC
:100060000C945D000C945D000C945D000C945D009C
:100070000C945D000C945D000C945D000C945D008C
:100080000C945D000C945D000C945D0011241FBE67
:10009000CFEFD0E1DEBFCDBF11E0A0E0B1E0E0E9FD
:1000A000F3E000E00BBF02C007900D92A030B10753
:1000B000D9F70E94A7010C94C6010C940000DF93AD
:1000C000CF93CDB7DEB7EBE3F0E01082EAE3F0E0E8
:1000D0001082E8E3F0E01082E7E3F0E01082E5E36D
:1000E000F0E01082E4E3F0E08FEF8083E2E3F0E001
:1000F0001082E1E3F0E01082E3E2F0E01082E2E25D
:10010000F0E01082E2E6F0E01082E1E6F0E010823A
:10011000E5E6F0E01082E4E6F0E01082CF91DF91B6
:100120000895DF93CF93CDB7DEB7F894EDE6F0E016
:100130001082ECE6F0E010820E945F00E5E5F0E05E
:100140001082EAE6F0E01082EAE5F0E01082E9E5EC
:10015000F0E01082E7E5F0E01082EDE7F0E01082D9
:100160007894CF91DF910895DF93CF9300D0CDB7EE
:10017000DEB79A83898389819A818130910541F420
:10018000A5E3B0E0E5E3F0E0808181608C9307C0F7
:10019000A5E3B0E0E5E3F0E080818E7F8C930F90E3
:1001A0000F90CF91DF910895DF93CF9300D0CDB71B
:1001B000DEB79A83898389819A818130910541F4E0
:1001C000A5E3B0E0E5E3F0E0808182608C9307C0B6
:1001D000A5E3B0E0E5E3F0E080818D7F8C930F90A4
:1001E0000F90CF91DF910895DF93CF9300D0CDB7DB
:1001F000DEB79A83898389819A818130910541F4A0
:10020000A5E3B0E0E5E3F0E0808184608C9307C073
:10021000A5E3B0E0E5E3F0E080818B7F8C930F9065
:100220000F90CF91DF910895DF93CF9300D0CDB79A
:10023000DEB79A83898389819A818130910541F45F
:10024000A5E3B0E0E5E3F0E0808188608C9307C02F
:10025000A5E3B0E0E5E3F0E08081877F8C930F9029
:100260000F90CF91DF910895DF93CF9300D0CDB75A
:10027000DEB79A83898389819A818130910549F417
:1002800081E090E00E94B40080E090E00E94D40001
:1002900008C080E090E00E94B40081E090E00E94FD
:1002A000D4000F900F90CF91DF910895DF93CF93FB
:1002B00000D0CDB7DEB79A83898389819A81813056
:1002C000910549F481E090E00E94F40080E090E024
:1002D0000E94140108C080E090E00E94F40081E0D8
:1002E00090E00E9414010F900F90CF91DF9108953C
:1002F000DF93CF9300D000D000D0CDB7DEB79E8380
:100300008D831C821B8214C01A82198205C08981C8
:100310009A8101969A83898329813A818D819E8170
:1003200028173907A4F38B819C8101969C838B83CA
:100330008B819C8123E0883E920734F326960FB68A
:10034000F894DEBF0FBECDBFCF91DF910895DF934C
:10035000CF93CDB7DEB70E94910080E090E00E947D
:10036000340180E090E00E94560188EE93E00E9404
:10037000780181E090E00E94340181E090E00E94E9
:10038000560188EE93E00E947801E7CFF894FFCF02
:00000001FF
