:100000000C9446000C9465000C9465000C946500FB
:100010000C9465000C9465000C9465000C946500CC
:100020000C9465000C9465000C9465000C946500BC
:100030000C9465000C9465000C9465000C946500AC
:100040000C9465000C9465000C9465000C9465009C
:100050000C9465000C9465000C9465000C9465008C
:100060000C9465000C9465000C9465000C9465007C
:100070000C9465000C9465000C9465000C9465006C
:100080000C9465000C9465000C94650011241FBE4F
:10009000CFEFD0E1DEBFCDBF11E0A0E0B1E0E4E9F9
:1000A000F6E000E00BBF02C007900D92A033B1074D
:1000B000D9F711E0A0E3B1E001C01D92AA33B10766
:1000C000E1F70E9442010C9448030C940000DF9376
:1000D000CF93CDB7DEB7EBE3F0E01082EAE3F0E0D8
:1000E0001082E8E3F0E01082E7E3F0E01082E5E35D
:1000F000F0E01082E4E3F0E08FEF8083E2E3F0E0F1
:100100001082E1E3F0E01082E3E2F0E01082E2E24C
:10011000F0E01082E2E6F0E01082E1E6F0E010822A
:10012000E5E6F0E01082E4E6F0E083E08083CF9142
:10013000DF910895DF93CF930F92CDB7DEB7898318
:10014000EBE2F0E08081829586958770882F90E0C1
:10015000817090700097A1F3ECE2F0E089818083D8
:100160000F90CF91DF910895DF93CF9300D00F923E
:10017000CDB7DEB789837B836A8389810E949A0029
:1001800080E090E00F900F900F90CF91DF91089555
:10019000DF93CF93CDB7DEB7EAE2F0E01082EBE277
:1001A000F0E01082E5E9F0E086E08083E9E2F0E04B
:1001B00087E68083E0E9F0E01082EAE2F0E088E19F
:1001C0008083CF91DF910895DF93CF93CDB7DEB7D2
:1001D000F894EDE6F0E01082ECE6F0E010820E9488
:1001E00067000E94C80084EB90E060E070E00E942D
:1001F0009F01E5E5F0E01082EAE6F0E01082EAE532
:10020000F0E01082E9E5F0E01082E7E5F0E010822E
:10021000EDE7F0E010827894CF91DF910895DF93BD
:10022000CF9300D000D000D0CDB7DEB79E838D83B2
:1002300081E090E09A83898315C081E090E09C83FF
:100240008B8305C08B819C8101969C838B838B81E2
:100250009C8122E088359207ACF389819A810196CE
:100260009A83898329813A818D819E812817390754
:1002700024F326960FB6F894DEBF0FBECDBFCF9104
:10028000DF910895DF93CF9300D00F92CDB7DEB703
:100290000E94E400E0E2F0E080818F708983898130
:1002A000282F30E03B832A838A819B81843091050B
:1002B0007CF42A813B812230310584F58A819B813F
:1002C000009789F02A813B812130310579F1E2CF15
:1002D0008A819B8184309105C1F02A813B8128303D
:1002E000310551F0D7CF80E091E00E94EB01E5E6C7
:1002F000F0E081E08083CECF89E091E00E94EB01C5
:10030000E5E6F0E082E08083C5CF82E191E00E94E3
:10031000EB01E5E6F0E083E08083BCCF88E191E08B
:100320000E94EB01E5E6F0E01082B4CF8FE191E0AE
:100330000E94EB01E5E6F0E083E08083ABCF0F9312
:100340001F93CF93DF938C01EB01009731F461157C
:10035000710519F420E030E038C081E090E06EE0F3
:1003600070E00E942002FC019C01009771F180E87E
:100370008383209771F0D387C28781E8838380913C
:10038000300190913101892B21F4F0933101E093F8
:10039000300101151105C9F0118700878381826042
:1003A00083838091320190913301892B71F4F09312
:1003B0003301E09332018091340190913501892B12
:1003C00021F4F0933501E0933401C901DF91CF911D
:1003D0001F910F9108950F931F93CF93DF938C017B
:1003E000E0913201F0913301838181FF21C0C0E0AF
:1003F000D0E00DC0E0913201F091330120853185CC
:10040000BF01F9010995892B11F0CFEFDFEFF8015A
:1004100081918F01882371F7E0913201F0913301CE
:10042000208531858AE0BF01F9010995892B11F0FA
:10043000CFEFDFEFCE01DF91CF911F910F910895A4
:100440000F931F93CF93DF93689F8001699F100DD7
:10045000789F100D1124C8010E943C02EC01009706
:1004600029F060E070E0A8010E944103CE01DF9115
:10047000CF911F910F910895CF93DF93BC018230EC
:10048000910510F462E070E0A0913801B09139015B
:10049000ED01E0E0F0E040E050E021C0888199818A
:1004A0008617970769F48A819B81309719F09383A7
:1004B000828304C09093390180933801FE0134C0D7
:1004C0006817790738F44115510519F08417950715
:1004D00008F4AC01FE018A819B819C01E90120970F
:1004E000E9F641155105A9F1CA01861B970B04973E
:1004F00008F4BA01E0E0F0E02AC08D919C911197D8
:1005000084179507F9F46417750781F412968D9195
:100510009C911397309719F09383828304C0909332
:10052000390180933801FD0132964FC0CA01861B04
:10053000970BFD01E80FF91F6193719302978D935B
:100540009C9343C0FD01828193819C01D901109746
:10055000A1F68091360190913701892B41F4809169
:100560002B0190912C01909337018093360140919B
:100570002D0150912E014115510541F44DB75EB743
:100580008091290190912A01481B590B2091360135
:100590003091370124173507B0F4CA01821B930B41
:1005A0008617970780F0AB014E5F5F4F8417950762
:1005B00050F0420F531F5093370140933601F90119
:1005C0006193719302C0E0E0F0E0CF01DF91CF9141
:1005D0000895CF93DF93009709F450C0EC01229760
:1005E0001B821A82A0913801B0913901109709F14C
:1005F00040E050E0AC17BD0708F1BB83AA83FE01C1
:1006000021913191E20FF31FAE17BF0779F48D915D
:100610009C911197280F391F2E5F3F4F39832883F4
:1006200012968D919C9113979B838A834115510556
:1006300071F4D0933901C093380120C012968D9186
:100640009C911397AD01009711F0DC01D3CFFA0113
:10065000D383C28321913191E20FF31FCE17DF07BD
:1006600069F488819981280F391F2E5F3F4FFA0165
:10067000318320838A819B8193838283DF91CF9111
:100680000895DC0101C06D9341505040E0F708959A
:04069000F894FFCF0C
:100694004E6F7468696E670D004C4546544553545B
:1006A4000D004C4546540D0052494748540D005224
:1006B400494748544553540D0020003A01000000B6
:00000001FF
