:100000000C946700189518951895189518951895DB
:100010001895189518951895189518951895189578
:100020001895189518951895189518951895189568
:100030001895189518951895189518951895189558
:100040001895189518951895189518951895189548
:100050001895189518951895189518951895189538
:100060001895189518951895189518951895189528
:100070001895189518951895189518951895189518
:10008000189518951895189518951895F8013197A1
:10009000F1F73197F1F73197F1F73197F1F70895CB
:1000A0009A938A938EEF90E00FEF07BB0FEF08BB98
:1000B000082F08BB880F991F81609060082F0F3FA1
:1000C00011F48EEF90E000E61AEEE0DFF1CF0FE3DF
:1000D0000DBF01E00EBFC0E4D3E00E94770000E056
:1000E0000BBF0E9450000E9479000C94790001E03F
:0800F000089500008895FECF81
:00000001FF
