:100000000C9446000C9465000C9465000C946500FB
:100010000C9465000C9465000C9465000C946500CC
:100020000C9465000C9465000C9465000C946500BC
:100030000C9465000C9465000C9465000C946500AC
:100040000C9465000C9465000C9465000C9465009C
:100050000C9465000C9465000C9465000C9465008C
:100060000C9465000C9465000C9465000C9465007C
:100070000C9465000C9465000C9465000C9465006C
:100080000C9465000C9465000C94650011241FBE4F
:10009000CFEFD0E1DEBFCDBF11E0A0E0B1E0E6E3FD
:1000A000FBE000E00BBF02C007900D92A234B10745
:1000B000D9F711E0A2E4B1E001C01D92AC34B10760
:1000C000E1F70E940C010C9499050C940000982F04
:1000D0005D9BFECF9CB980919B0085FFFCCF9093E8
:1000E0009C0080E090E008955D9BFECF8CB9089560
:1000F000982F80919B0085FFFCCF90939C000895E2
:100100001BBA83E88ABB18BA17BA15BA14BA12BA5E
:1001100011BA82E083B912B8109262008FEF809317
:1001200061001092650083E08093640008951AB81E
:100130001BB886E08093950087E689B910929000FD
:1001400088E18AB90895EAE9F0E0108210929B00F4
:1001500086E080939D0087E6809399001092980036
:1001600088E180830895DF93CF9300D000D0CDB78E
:10017000DEB79C0181E090E09A83898341E050E002
:1001800012C05C834B8305C08B819C8101969C834C
:100190008B838B819C8188559240B4F389819A81AD
:1001A00001969A83898389819A81821793074CF3F8
:1001B0000F900F900F900F90CF91DF910895F894CA
:1001C0001CBE10926D000E9480001AB81BB826E079
:1001D0002093950097E699B91092900088E18AB92A
:1001E000EAE9F0E0108210929B0020939D0090932A
:1001F000990010929800808360E070E087E690E0BC
:100200000E945D0115BE10926A001ABE19BE17BE8B
:1002100010927D0078940895CF92DF92EF92FF9232
:100220000F931F93DF93CF9300D000D0CDB7DEB7ED
:100230000E94DF0080E091E09F938F930E94A901CC
:1002400080E191E09F938F930E94A90100E010E06C
:100250000F900F900F900F909CE2C92E91E0D92E35
:1002600081E0E82EF12C1F930F93DF92CF920E9432
:10027000A9010F5F1F4F0BBB00936500FA82E98253
:100280000F900F900F900F9012C0FC82EB8205C070
:100290008B819C8101969C838B838B819C8188556B
:1002A0009240B4F389819A8101969A8389838981E6
:1002B0009A8184369105BCF6E8CF0F931F93CF93B4
:1002C000DF938C01EB01009731F46115710519F48E
:1002D00020E030E038C06EE070E081E090E00E9405
:1002E0009D03FC019C01009771F180E883832097B6
:1002F00071F0D387C28781E8838380914201909116
:100300004301892B21F4F0934301E093420101154D
:100310001105C9F0118700878381826083838091F2
:10032000440190914501892B71F4F0934501E093CC
:1003300044018091460190914701892B21F4F0936B
:100340004701E0934601C901DF91CF911F910F91C1
:100350000895A0E0B0E0EFEAF1E00C947205FE0130
:10036000359661917191AF01809144019091450161
:100370000E94BE012096E2E00C948E05ABE0B0E056
:10038000E4ECF1E00C9462053C012B015A01FC0104
:1003900017821682838181FD03C06FEF7FEFC8C192
:1003A0009AE0892E1E010894211C311CF30123813F
:1003B000F20123FD859123FF81912F01882309F408
:1003C000B4C1853239F423FD859123FF81912F013A
:1003D000853229F4B30190E00E94D804E7CF982F2A
:1003E000DD24CC249924FFE1FD15D0F09B3269F087
:1003F0009C3228F4903259F0933291F40EC09D3221
:1004000049F0903369F441E024C052E0D52A84E0F9
:10041000D82A28C098E0D92A25C0E0E1DE2A22C0E7
:10042000D7FC29C0892F80538A3070F4D6FE05C0CE
:10043000989C902C1124980E15C0C89CC02C112497
:10044000C80EF0E2DF2A0EC09E3229F4D6FC6DC140
:1004500040E4D42A07C09C3619F450E8D52A02C0DB
:10046000983649F4F20123FD959123FF91912F01D4
:10047000992309F0B8CF892F8554833018F0805222
:10048000833038F444E050E0A40EB51E5FE3598396
:100490000FC0933631F0933779F0933509F056C099
:1004A00020C0F5018081898342E050E0A40EB51E92
:1004B000710101E010E012C0F501E080F180D6FC8E
:1004C00003C06FEF7FEF02C0692D70E042E050E0A3
:1004D000A40EB51EC7010E94CD048C015FE7D52292
:1004E00014C0F501E080F180D6FC03C06FEF7FEF10
:1004F00002C0692D70E042E050E0A40EB51EC701B5
:100500000E94BB048C0150E8D52AD3FE07C01AC054
:10051000B30180E290E00E94D804CA948C2D90E050
:1005200008171907A8F30EC0F701D7FC8591D7FE6D
:1005300081917F01B30190E00E94D804C110CA9458
:10054000015010400115110579F7ECC0943611F0F7
:10055000993671F5D7FE08C0F501E080F18002817F
:10056000138144E050E00AC0F501808191817C0153
:100570000027F7FC0095102F42E050E0A40EB51EB6
:100580005FE6D52217FF0AC010950095F094E0941D
:10059000E11CF11C011D111D80E8D82A2AE030E081
:1005A000A101C801B7010E940405F82EF21840C04D
:1005B000953729F41D2D1F7E2AE030E01DC01D2D2A
:1005C000197F9F3661F0903720F4983509F0ADC05F
:1005D0000FC0903739F0983709F0A7C004C028E061
:1005E00030E00AC0106114FD146020E130E004C066
:1005F00014FD166020E132E017FF08C0F5016081AC
:1006000071818281938144E050E008C0F5018081CE
:100610009181BC0180E090E042E050E0A40EB51E64
:10062000A1010E940405F82EF2188FE7D82ED122DE
:10063000D6FE0BC05EEFD522F91438F4D4FE07C005
:10064000D2FC05C08FEED82202C01F2D01C0192D8B
:10065000D4FE0DC0FE01EF0DF11D8081803319F431
:1006600099EED92208C01F5FD2FE05C003C08D2DB0
:10067000867809F01F5F0D2DD3FC14C0D0FE0FC08B
:100680001C1510F09F2C0BC09F2C9C0C911A1C2D3C
:1006900006C0B30180E290E00E94D8041F5F1C15E1
:1006A000C0F304C01C1510F4C11A01C0CC2404FF0F
:1006B00010C0B30180E390E00E94D80402FF1EC086
:1006C00001FD03C088E790E002C088E590E0B30137
:1006D0000CC0802F867891F001FF02C08BE201C030
:1006E00080E2D7FC8DE2B30190E00E94D80406C0FE
:1006F000B30180E390E00E94D8049A94F914C0F307
:10070000FA94F101EF0DF11DB301808190E00E9498
:10071000D804FF20A9F706C0B30180E290E00E9450
:10072000D804CA94CC20C1F741CEF3016681778109
:10073000CB012B96E2E10C947E050F931F93CF9390
:10074000DF93689F8001699F100D789F100D112421
:10075000C8010E94B903EC01009729F0A80160E0EC
:1007600070E00E94C604CE01DF91CF911F910F91DE
:100770000895CF93DF93BC018230910510F462E0BD
:1007800070E0A0914A01B0914B01ED01E0E0F0E092
:1007900040E050E021C0888199818617970769F46D
:1007A0008A819B81309719F09383828304C0909350
:1007B0004B0180934A01FE0134C06817790738F471
:1007C0004115510519F08417950708F4AC01FE0195
:1007D0008A819B819C01E9012097E9F64115510529
:1007E000A9F1CA01861B970B049708F4BA01E0E04F
:1007F000F0E02AC08D919C91119784179507F9F428
:100800006417750781F412968D919C911397309718
:1008100019F09383828304C090934B0180934A0123
:10082000FD0132964CC0CA01861B970BFD01E80FF3
:10083000F91F6193719302978D939C9340C0FD01C2
:10084000828193819C01D9011097A1F68091480182
:1008500090914901892B41F480913E0190913F0193
:10086000909349018093480140914001509141018A
:100870004115510541F44DB75EB780913C0190910F
:100880003D01481B590B2091480130914901CA0193
:10089000821B930B8617970780F0AB014E5F5F4F6B
:1008A0008417950750F0420F531F5093490140930E
:1008B0004801F9016193719302C0E0E0F0E0CF01DB
:1008C000DF91CF910895CF93DF93009709F450C043
:1008D000EC0122971B821A82A0914A01B0914B0130
:1008E000109709F140E050E0AC17BD0708F1BB8359
:1008F000AA83FE0121913191E20FF31FAE17BF07CA
:1009000079F48D919C911197280F391F2E5F3F4FDD
:100910003983288312968D919C9113979B838A83A8
:100920004115510571F4D0934B01C0934A0120C089
:1009300012968D919C911397AD01009711F0DC01F7
:10094000D3CFFA01D383C28321913191E20FF31FF8
:10095000CE17DF0769F488819981280F391F2E5F30
:100960003F4FFA01318320838A819B819383828365
:10097000DF91CF910895FC01059061507040011006
:10098000D8F7809590958E0F9F1F0895DC0101C0C8
:100990006D9341505040E0F70895FC016150704064
:1009A00001900110D8F7809590958E0F9F1F0895A4
:1009B0000F931F93CF93DF938C01EB018B8181FF0A
:1009C0001BC082FF0DC02E813F818C819D81281725
:1009D000390764F4E881F9810193F983E88306C05B
:1009E000E885F985802F0995892B31F48E819F81C7
:1009F00001969F838E8302C00FEF1FEFC801DF9126
:100A0000CF911F910F910895FA01AA27283051F133
:100A1000203181F1E8946F936E7F6E5F7F4F8F4F2F
:100A20009F4FAF4FB1E03ED0B4E03CD0670F781F8E
:100A3000891F9A1FA11D680F791F8A1F911DA11D73
:100A40006A0F711D811D911DA11D20D009F46894AC
:100A50003F912AE0269F11243019305D3193DEF654
:100A6000CF010895462F4770405D4193B3E00FD00A
:100A7000C9F7F6CF462F4F70405D4A3318F0495DF5
:100A800031FD4052419302D0A9F7EACFB4E0A695D8
:100A90009795879577956795BA95C9F700976105FA
:100AA000710508959B01AC010A2E06945795479550
:100AB00037952795BA95C9F7620F731F841F951F45
:100AC000A01D08952F923F924F925F926F927F9256
:100AD0008F929F92AF92BF92CF92DF92EF92FF924E
:100AE0000F931F93CF93DF93CDB7DEB7CA1BDB0BFA
:100AF0000FB6F894DEBF0FBECDBF09942A8839889F
:100B000048885F846E847D848C849B84AA84B984A5
:100B1000C884DF80EE80FD800C811B81AA81B981B1
:100B2000CE0FD11D0FB6F894DEBF0FBECDBFED01C5
:060B30000895F894FFCFC8
:100B36000A0D0A74657374696E672E2E2E0A0D00EF
:100B46007072696E746620C5D7BDBAC6AE20C7C1BD
:100B5600B7CEB1D7B7A52E2E2E0A0D00C5D7BDBA72
:100B6600C6AE2069203A2025640A0D0020004C01FB
:020B760000007D
:00000001FF
