:100000000C9446000C9465000C9465000C946500FB
:100010000C9465000C9465000C9465000C946500CC
:100020000C9465000C9465000C9465000C946500BC
:100030000C9465000C9465000C9465000C946500AC
:100040000C9465000C9465000C9465000C9465009C
:100050000C9465000C9465000C9465000C9465008C
:100060000C9465000C9465000C9465000C9465007C
:100070000C9465000C9465000C9465000C9465006C
:100080000C9465000C9465000C94650011241FBE4F
:10009000CFEFD0E1DEBFCDBF11E0A0E0B1E0EAE0FC
:1000A000FCE000E00BBF02C007900D92A234B10744
:1000B000D9F711E0A2E4B1E001C01D92AC34B10760
:1000C000E1F70E9491010C9403060C940000DF9369
:1000D000CF9300D00F92CDB7DEB789837B836A833D
:1000E00089810E947E0089810E94980080E090E0D2
:1000F0000F900F900F90CF91DF910895DF93CF93E2
:100100000F92CDB7DEB78983EBE2F0E08081829574
:1001100086958770882F90E0817090700097A1F38A
:10012000ECE2F0E0898180830F90CF91DF91089518
:10013000DF93CF930F92CDB7DEB78983EBE9F0E081
:100140008081829586958770882F90E0817090706D
:100150000097A1F3ECE9F0E0898180830F90CF91C3
:10016000DF910895DF93CF93CDB7DEB7EBE3F0E0F7
:100170001082EAE3F0E08FEF8083E8E3F0E01082A2
:10018000E7E3F0E01082E5E3F0E01082E4E3F0E082
:100190008FEF8083E2E3F0E01082E1E3F0E0108291
:1001A000E3E2F0E082E08083E2E2F0E01082E2E667
:1001B000F0E01082E1E6F0E01082E5E6F0E0108287
:1001C000E4E6F0E01082CF91DF910895DF93CF93C2
:1001D000CDB7DEB7EAE2F0E01082EBE2F0E01082A9
:1001E000E5E9F0E086E08083E9E2F0E087E68083FD
:1001F000E0E9F0E01082EAE2F0E088E18083CF916C
:10020000DF910895DF93CF93CDB7DEB7EAE9F0E051
:100210001082EBE9F0E01082EDE9F0E086E0808307
:10022000E9E9F0E087E68083E8E9F0E01082EAE9B6
:10023000F0E088E18083CF91DF910895DF93CF9341
:10024000CDB7DEB7F894EDE6F0E01082ECE6F0E032
:1002500010820E94B2000E94E6000E94020187E61E
:1002600090E060E070E00E94D701E5E5F0E01082E8
:10027000EAE6F0E01082EAE5F0E01082E9E5F0E07D
:100280001082E7E5F0E01082EDE7F0E0108278946C
:10029000CF91DF910895DF93CF9300D000D0CDB7F9
:1002A000DEB79A8389831C821B820AC00F920F904B
:1002B0000F920F902B813C812F5F3F4F3C832B830C
:1002C00089819A812B813C81281739077CF30F9013
:1002D0000F900F900F90CF91DF910895DF93CF9300
:1002E00000D000D0CDB7DEB79A8389831C821B82F1
:1002F0000AC088EE93E00E944B012B813C812F5F66
:100300003F4F3C832B8389819A812B813C81281725
:1003100039077CF30F900F900F900F90CF91DF91E2
:100320000895DF93CF9300D0CDB7DEB71A8219823C
:100330000E941E0100D0EDB7FEB7319680E091E03B
:10034000918380830E9423020F900F9000D0EDB71D
:10035000FEB7319680E191E0918380830E94230271
:100360000F900F9000D000D0EDB7FEB731968CE221
:1003700091E09183808389819A81938382830E9413
:1003800023020F900F900F900F9089819A81019610
:100390009A838983EBE3F0E08FEF8083E5E3F0E07D
:1003A00082E0808382EC91E00E946E01DBCF0F93AC
:1003B0001F93CF93DF938C01EB01009731F461150C
:1003C000710519F420E030E038C081E090E06EE083
:1003D00070E00E943B04FC019C01009771F180E8F1
:1003E0008383209771F0D387C28781E883838091CC
:1003F000420190914301892B21F4F0934301E09352
:10040000420101151105C9F01187008783818260BF
:1004100083838091440190914501892B71F4F0937D
:100420004501E09344018091460190914701892B59
:1004300021F4F0934701E0934601C901DF91CF9188
:100440001F910F910895DF93CF93CDB7DEB7FE01D3
:100450003596619171918091440190914501AF0170
:100460000E943502CF91DF9108952F923F924F92D3
:100470005F926F927F928F929F92AF92BF92CF9234
:10048000DF92EF92FF920F931F93DF93CF93CDB73D
:10049000DEB72B970FB6F894DEBF0FBECDBF3C0181
:1004A0002B015A01FC0117821682838181FD03C052
:1004B0006FEF7FEFC6C19AE0892E1E010894211CC0
:1004C000311CF3012381F20123FD859123FF8191EA
:1004D0002F01882309F4B2C1853239F423FD8591B7
:1004E00023FF81912F01853229F490E0B3010E940E
:1004F0007905E7CF982FFF24EE249924FFE1FF151B
:10050000D0F09B3269F09C3228F4903259F093324B
:1005100091F40EC09D3249F0903369F441E024C05B
:1005200052E0F52A84E0F82A28C098E0F92A25C08C
:10053000E0E1FE2A22C0F7FC29C0892F80538A30CF
:1005400070F4F6FE05C0989C902C1124980E15C0EE
:10055000E89CE02C1124E80EF0E2FF2A0EC09E3247
:1005600029F4F6FC6BC140E4F42A07C09C3619F468
:1005700050E8F52A02C0983649F4F20123FD95911E
:1005800023FF91912F01992309F0B8CF892F85542A
:10059000833018F08052833038F444E050E0A40EE9
:1005A000B51E5FE359830FC0933631F0933779F06E
:1005B000933509F056C020C0F5018081898342E05F
:1005C00050E0A40EB51E610101E010E012C0F5017B
:1005D000C080D180F6FC03C06FEF7FEF02C0692DB1
:1005E00070E042E050E0A40EB51EC6010E946E0508
:1005F0008C015FE7F52214C0F501C080D180F6FCC4
:1006000003C06FEF7FEF02C0692D70E042E050E061
:10061000A40EB51EC6010E945C058C0150E8F52AA7
:10062000F3FE07C01AC080E290E0B3010E94790592
:10063000EA948E2D90E008171907A8F30EC0F60172
:10064000F7FC8591F7FE81916F0190E0B3010E9464
:100650007905E110EA94015010400115110579F770
:10066000EAC0943611F0993669F5F7FE08C0F50135
:10067000208131814281538184E090E00AC0F501FC
:10068000808191819C01442737FD4095542F82E061
:1006900090E0A80EB91E9FE6F92257FF09C05095B9
:1006A0004095309521953F4F4F4F5F4FE0E8FE2A30
:1006B000CA01B901A1012AE030E00E94A505D82EA7
:1006C000D21840C0953729F41F2D1F7E2AE030E054
:1006D0001DC01F2D197F9F3661F0903720F498358B
:1006E00009F0ACC00FC0903739F0983709F0A6C0B8
:1006F00004C028E030E00AC0106114FD146020E15D
:1007000030E004C014FD166020E132E017FF08C09D
:10071000F501608171818281938144E050E008C0DD
:10072000F50180819181BC0180E090E042E050E0E1
:10073000A40EB51EA1010E94A505D82ED2188FE7E0
:10074000F82EF122F6FE0BC05EEFF522D91438F434
:10075000F4FE07C0F2FC05C08FEEF82202C01D2D8A
:1007600001C0192DF4FE0DC0FE01ED0DF11D8081BB
:10077000803319F499EEF92208C01F5FF2FE05C01C
:1007800003C08F2D867809F01F5F0F2DF3FC14C076
:10079000F0FE0FC01E1510F09D2C0BC09D2C9E0C62
:1007A000911A1E2D06C080E290E0B3010E947905E7
:1007B0001F5F1E15C0F304C01E1510F4E11A01C01E
:1007C000EE2404FF0FC080E390E0B3010E9479059E
:1007D00002FF1DC001FD03C088E790E00EC088E560
:1007E00090E00BC0802F867891F001FF02C08BE271
:1007F00001C080E2F7FC8DE290E0B3010E94790530
:1008000006C080E390E0B3010E9479059A94D91460
:10081000C0F3DA94F101ED0DF11D808190E0B30198
:100820000E947905DD20A9F706C080E290E0B301BF
:100830000E947905EA94EE20C1F743CEF301668168
:100840007781CB012B960FB6F894DEBF0FBECDBFDC
:10085000CF91DF911F910F91FF90EF90DF90CF909C
:10086000BF90AF909F908F907F906F905F904F90D0
:100870003F902F9008950F931F93CF93DF93689F1E
:100880008001699F100D789F100D1124C8010E94EE
:100890005704EC01009729F060E070E0A8010E9485
:1008A0006705CE01DF91CF911F910F910895CF93EE
:1008B000DF93BC018230910510F462E070E0A091FA
:1008C0004A01B0914B01ED01E0E0F0E040E050E082
:1008D00021C0888199818617970769F48A819B8155
:1008E000309719F09383828304C090934B018093D7
:1008F0004A01FE0134C06817790738F441155105E3
:1009000019F08417950708F4AC01FE018A819B81D8
:100910009C01E9012097E9F641155105A9F1CA01A9
:10092000861B970B049708F4BA01E0E0F0E02AC0B8
:100930008D919C91119784179507F9F464177507A9
:1009400081F412968D919C911397309719F09383AF
:10095000828304C090934B0180934A01FD0132963B
:100960004FC0CA01861B970BFD01E80FF91F619369
:10097000719302978D939C9343C0FD018281938173
:100980009C01D9011097A1F68091480190914901ED
:10099000892B41F480913D0190913E019093490152
:1009A0008093480140913F0150914001411551050C
:1009B00041F44DB75EB780913B0190913C01481BDB
:1009C000590B209148013091490124173507B0F4A3
:1009D000CA01821B930B8617970780F0AB014E5F0D
:1009E0005F4F8417950750F0420F531F50934901F2
:1009F00040934801F9016193719302C0E0E0F0E097
:100A0000CF01DF91CF910895CF93DF93009709F441
:100A100050C0EC0122971B821A82A0914A01B0912A
:100A20004B01109709F140E050E0AC17BD0708F109
:100A3000BB83AA83FE0121913191E20FF31FAE1710
:100A4000BF0779F48D919C911197280F391F2E5F64
:100A50003F4F3983288312968D919C9113979B83E6
:100A60008A834115510571F4D0934B01C0934A011B
:100A700020C012968D919C911397AD01009711F0B3
:100A8000DC01D3CFFA01D383C28321913191E20FEC
:100A9000F31FCE17DF0769F488819981280F391F6A
:100AA0002E5F3F4FFA01318320838A819B8193839C
:100AB0008283DF91CF910895FC01059061507040D1
:100AC0000110D8F7809590958E0F9F1F0895DC0137
:100AD00001C06D9341505040E0F70895FC01615012
:100AE000704001900110D8F7809590958E0F9F1F50
:100AF00008950F931F93CF93DF938C01EB018B81AC
:100B000081FF1BC082FF0DC02E813F818C819D81A2
:100B10002817390764F4E881F9810193F983E883A0
:100B200006C0E885F985802F0995892B31F48E81DF
:100B30009F8101969F838E8302C00FEF1FEFC80134
:100B4000DF91CF911F910F910895FA01AA272830C4
:100B500051F1203181F1E8946F936E7F6E5F7F4F8A
:100B60008F4F9F4FAF4FB1E03ED0B4E03CD0670F06
:100B7000781F891F9A1FA11D680F791F8A1F911D59
:100B8000A11D6A0F711D811D911DA11D20D009F4A9
:100B900068943F912AE0269F11243019305D3193EB
:100BA000DEF6CF010895462F4770405D4193B3E0D4
:100BB0000FD0C9F7F6CF462F4F70405D4A3318F07B
:100BC000495D31FD4052419302D0A9F7EACFB4E02C
:100BD000A6959795879577956795BA95C9F70097E4
:100BE0006105710508959B01AC010A2E0694579585
:100BF000479537952795BA95C9F7620F731F841FDC
:0A0C0000951FA01D0895F894FFCF82
:100C0A000A0D0A74657374696E672E2E2E0A0D001A
:100C1A007072696E746620C5D7BDBAC6AE20C7C1E8
:100C2A00B7CEB1D7B7A52E2E2E0A0D00C5D7BDBA9D
:100C3A00C6AE2069203A2025640A0020004C010033
:020C4A000000A8
:00000001FF
