:020000040800F2
:1000000078100120C1720208DD720208E172020854
:10001000E5720208E9720208ED72020800000000B1
:10002000000000000000000000000000F172020863
:10003000F572020800000000F9720208FD72020861
:100040000173020805730208097302080D730208A0
:100050001173020815730208197302081D73020850
:100060002173020825730208297302082D73020800
:100070003173020835730208397302083D730208B0
:100080004173020845730208497302084D73020860
:100090005173020855730208597302085D73020810
:1000A0006173020865730208697302086D730208C0
:1000B0007173020875730208797302087D73020870
:1000C0008173020885730208897302088D73020820
:1000D0009173020895730208997302089D730208D0
:1000E000A1730208A5730208A9730208AD73020880
:1000F000B1730208B5730208B9730208BD73020830
:10010000C1730208C5730208C9730208CD730208DF
:10011000D1730208D5730208D9730208DD7302088F
:10012000E1730208E5730208E9730208ED7302083F
:10013000F1730208F5730208F9730208FD730208EF
:100140000174020805740208097402080D7402089B
:100150001174020815740208197402081D7402084B
:100160002174020825740208297402082D740208FB
:100170003174020835740208397402080000000066
:100180003D7402084174020845740208497402086B
:100190004D7402085174020855740208597402081B
:1001A0005D740208617402086574020869740208CB
:1001B0006D7402087174020875740208797402087B
:1001C0007D7402088174020800BF7047F0B500F02A
:1001D00005F9DFF87C090021016000F0FFF800F06C
:1001E000FDF80160DFF86C190A6842F400320A6019
:1001F00000F0F9F800F0C7F800F0F5F81E4602FA32
:1002000004FC06FA05F74CEA0707C76137467E1E6D
:10021000002FF6D11646721E002EEFD100F0DEF848
:10022000DFF8342900231360DFF830395360DFF83A
:100230003039936000220A67CB6EC3F34E3203F06D
:100240000704C3F3C903B3FA83F5241D05F01F05A2
:10025000BFF34F8F00F097F8BFF34F8F086840F45B
:100260008030086000F0BAF840F20730DFF8F41888
:100270000860DFF8F408016841F0011101600168CD
:100280008907FCD500218160816811F00C0FFBD13A
:100290004FF001110160DFF8D4184160DFF8D01889
:1002A000016001688901FCD5016C41F08051016455
:1002B000DFF8C0180A6842F480320A604A68D20344
:1002C000FCD50A6842F400320A604A689203FCD501
:1002D000DFF8A4188160816801F00C010829FAD1C7
:1002E0000168DFF8982841F400210160416C41F475
:1002F0008041416401211160016B41F01F010163E4
:10030000416B4163816B8163016C41F0005141F4A9
:1003100013110164416C41F480714164DFF8B00A4B
:10032000DFF8B01A0160002141614FF0194101620C
:1003300000214162DFF8A01A8160DFF8A00ADFF82F
:10034000A01A01604FF4805141614FF08841016271
:10035000DFF8D01A4162C0214160DFF8CC1A816019
:10036000DFF8C80ADFF8C81A016042F26011416183
:1003700000210162DFF8BC1A4162DFF8BC1A81601B
:1003800000F012F8F0BD1E4602FA04FC06FA05F76A
:100390004CEA0707076137467E1E002FF6D1164646
:1003A000721E002EEFD17047DFF8900A4FF05531E2
:1003B0000160002141614FF0AA318160DFF8800ABD
:1003C000DFF8801A01604F21416100210162DFF8EE
:1003D000781A4162DFF8741A81607047BFF34F8F5B
:1003E000BFF36F8F7047BFF34F8FBFF36F8F002244
:1003F0000A67CB6EC3F34E3203F00704C3F3C9039D
:10040000B3FA83F5241D05F01F05BFF34F8F704726
:100410000021D5E000BF00BF00BF00BF00BF00BF8C
:1004200000BF00BF00BF00BF00BF00BF00BF00BFD4
:1004300000BF00BF00BF00BF00BF00BF00BF00BFC4
:1004400000BF00BF00BF00BF00BF00BF00BF00BFB4
:1004500000BF00BF00BF00BF00BF00BF00BF00BFA4
:1004600000BF00BF00BF00BF00BF00BF00BF00BF94
:1004700000BF00BF00BF00BF00BF00BF00BF00BF84
:1004800000BF00BF00BF00BF00BF00BF00BF00BF74
:1004900000BF00BF00BF00BF00BF00BF00BF00BF64
:1004A00000BF00BF00BF00BF00BF00BF00BF00BF54
:1004B00000BF00BF00BF00BF00BF00BF00BF00BF44
:1004C00000BF00BF00BF00BF00BF00BF00BF00BF34
:1004D00000BF00BF00BF00BF00BF00BF00BF00BF24
:1004E00000BF00BF00BF00BF00BF00BF00BF00BF14
:1004F00000BF00BF00BF00BF00BF00BF00BF00BF04
:1005000000BF00BF00BF00BF00BF00BF00BF00BFF3
:1005100000BF00BF00BF00BF00BF00BF00BF00BFE3
:1005200000BF00BF00BF00BF00BF00BF00BF00BFD3
:1005300000BF00BF00BF00BF00BF00BF00BF00BFC3
:1005400000BF00BF00BF00BF00BF00BF00BF00BFB3
:1005500000BF00BF00BF00BF00BF00BF00BF00BFA3
:1005600000BF00BF00BF00BF00BF00BF00BF00BF93
:1005700000BF00BF00BF00BF00BF00BF00BF00BF83
:1005800000BF00BF00BF00BF00BF00BF00BF00BF73
:1005900000BF00BF00BF00BF00BF00BF00BF00BF63
:1005A00000BF00BF00BF00BF00BF00BF00BF00BF53
:1005B00000BF00BF00BF00BF00BF00BF00BF491C9D
:1005C000B1EB400FFFF426AF704738B50446002565
:1005D00004E04FF47A706D1CFFF71AFFA542F8D3C0
:1005E00031BD10B512F00DFE3220FFF7EEFF4FF0D7
:1005F0000040206010BD80B5FFF7F3FF11F080FBD5
:10060000FFF7EFFF11F07CFBBDE80140E9E7DFF801
:10061000400838B500F011F805D128B100F097F97D
:100620000020287000E008B10F2032BDFFF7D9FF8D
:10063000FFE701202870204632BD0068DFF814581B
:1006400000F00F040F2C28787047DFF80C0880B5F5
:10065000016841F028010160FFF7A6FE382000F094
:100660000DF80C2000F00AF8062000F007F8012031
:1006700000F004F80220BDE80240A6E710B5DFF85C
:10068000DC474FF4081104E010B5DFF8D047DFF87D
:10069000D0172160DFF8CC17086005F0FEFB2020A2
:1006A000206005F0FAFB4FF4001020603220BDE816
:1006B0001040ADE610B50C46FFF7E0FF03E014F87C
:1006C000010BFFF7E1FF20780028F8D110BDDFF81B
:1006D000880710B50168DFF8684741F0280101601C
:1006E000DFF858074FF055310160002141614FF0AC
:1006F000AA318160DFF84C0720604F206061002044
:100700002062DFF844076062DFF84007A0604FF422
:100710000020A0610120FFF758FF0820A061782089
:10072000FFF753FF0021022000F045F900210320CC
:1007300000F041F90121042000F03DF93F2105209E
:1007400000F039F90021062000F035F900210720DA
:1007500000F031F90021082000F02DF9EF210920E7
:1007600000F029F90621012000F025F96821162062
:1007700000F021F90021182000F01DF965217020FA
:1007800000F019F99521232000F015F99521242076
:1007900000F011F9FF21252000F00DF9022127209A
:1007A00000F009F90221282000F005F90221292092
:1007B00000F001F902212A2000F0FDF802212C208E
:1007C00000F0F9F802212D2000F0F5F801213A207F
:1007D00000F0F1F801213B2000F0EDF8F0213C2081
:1007E00000F0E9F800213D2000F0E5F800F0AFF856
:1007F0003821352000F0DFF87821362000F0DBF8D2
:1008000038213E2000F0D7F80F21402000F0D3F827
:10081000F021412000F0CFF84921192000F0CBF859
:100820000F21932000F0C7F811F011FD4021202086
:1008300000F0C1F807211D2000F0BDF811F007FD00
:1008400000211E2000F0B7F804211F2000F0B3F8AB
:100850004021442000F0AFF81221452000F0ABF811
:1008600011F0F5FC04211C2000F0A5F800F06FF851
:100870008021432000F09FF80520FFF7A6FE1821F5
:100880001B2000F098F800F060F810211B2000F009
:1008900092F800F05AF8A421462000F08CF8532179
:1008A000472000F088F81021482000F084F85F21EC
:1008B000492000F080F804214A2000F07CF83F2114
:1008C0004B2000F078F802214C2000F074F8F6215B
:1008D0004D2000F070F812214E2000F06CF84C21F1
:1008E0004F2000F068F84621502000F064F84421C1
:1008F000512000F060F87F21902000F05CF8042186
:1009000000F021F800F021F8242100F01CF82C213F
:1009100000F019F800F019F83C2100F014F8022159
:10092000572000F048F80021552000F044F85A21E3
:10093000FE2000F040F80021572000F03CF8002095
:10094000BDE810403FE0262035E028203DE6142099
:100950003BE60000DFF804154FF4C0220A60DFF820
:10096000042510605FF48030086000BF00BF00BF46
:1009700000BF00BF00BF00BF00BF0120086000BF74
:1009800016E00000DFF8D414DFF8DC240A60DFF89A
:10099000D42410605FF48030086000BF00BF00BF47
:1009A00000BF00BF00BF00BF00BF0120086000BF44
:1009B00004200860704710B50C46FFF7CBFF2046B7
:1009C000BDE81040DEE770B50446002100204FF47A
:1009D000A07500F009F8F0262046FFF7D3FF761E39
:1009E000FAD16D1EF7D170BDDFF8802438B51278CA
:1009F00004460D464C2A0ED1B4F5A07FB8BFF02DA9
:100A00001CDA210A0EF085FAE1B205F0B7FC05F018
:100A1000EAFA29460CE0F02CB8BFB5F5A07F0DDA54
:100A200005F0E5FA05F0A9FC290A05F0AEFCE9B2EB
:100A300004F0B5FB2220BDE832408BE731BDDFF882
:100A40002C24D07011717047DFF820249083D1835B
:100A5000704770B51646DFF8142404460D46127828
:100A60004C2A0ED1B4F5A07FB8BFF02D21DA210AAF
:100A70000EF04FFAE1B205F081FC05F0B4FA294618
:100A80000CE0F02CB8BFB5F5A07F12DA05F0AFFA94
:100A900005F073FC290A05F078FCE9B204F07FFB4D
:100AA00040F62100864204D031462220BDE8704045
:100AB00081E770BD80B500F015F805F098FA05F0F3
:100AC0008EFA00F018F800F013F805F08CFA05F033
:100AD00082FA00F013F800F008F8DFF890032821FC
:100AE00005F073BA6821162065E7EF21092062E757
:100AF0003F2105205FE7012104205CE70021082059
:100B000059E780B50821FFF7EEFF05F070FA05F010
:100B100066FA0021FFF7F0FFEF21FFF7EAFF05F08B
:100B200062FA05F058FA0121FFF7E9FF3F21FFF7CC
:100B3000DDFFCE481E2105F05EBA40F6210290424C
:100B4000CA490EBF00220122C882CA717047000044
:100B500050EF00E014ED00E098ED00E0000001200F
:100B600023000203003C02400038024008364009DE
:100B7000010001010070004002B440302038014003
:100B800010B505F059FA01E000F00EF8207850B1E8
:100B900014F8010B8028F7DB05F047FA00F025F97F
:100BA00001F098FAF2E710BDB14900232DE9F047B2
:100BB000AE4C01EB0010C0B0E18BA68B1F5C002295
:100BC000FD0700AD05EB43154CBF25F8126025F875
:100BD000121005F0C8FBF3DB5B1C082BEEDB0025D5
:100BE0002A18177A002200AB5FEAC77C03EB451393
:100BF00003EB42034CBF1E82198205F0B4FBF2DB0B
:100C00006D1C082DECDB627A012A48D10025638B2C
:100C10002A18561C2F5C96F807C096F8089096F88C
:100C2000008012F8012CB67907EB0C274FEA09294E
:100C300059FA88F80DF10009BFB202EB06264FEA17
:100C4000570CBE46002209EB45195FEAC77A16D455
:100C50005FEACC7A48BF29F812305FEACE7E48BFFF
:100C600029F812305FEAC87E03D5072DB8BF29F8EE
:100C700012305FEAC67E02D50DB129F81230BE46A9
:100C800036047F08760C521C0F2A4FEA08484FEAB8
:100C90005C0C4FEA5848D8DB6D1C082DB8DBE278B5
:100CA000637820799A4208D30022801CE270A278EF
:100CB000C0B2521E9042A8BF00202071207A0128A5
:100CC00008D10025208B00AA02EB45126D1C082DCF
:100CD000D083F7DBE279E078012A04BF62799042A1
:100CE00002BF2279A3799A4209D10025E28A00AB9A
:100CF00003EB45136D1C082D9A83DA83F7DB05F0AF
:100D00002EFB48D0C5000026207906EBC0072078CE
:100D10004C280AD1290A0EF0FCF805F0FF0105F075
:100D20002DFB05F060F9B9B209E005F060F929463C
:100D300005F024FBBFB2390A05F027FBF9B204F035
:100D40002EFA05F017FB00A830F81600FFF71AFE80
:100D500000A800EB4607761C07F1200800F042F8D7
:100D6000B8F8200007F16008FFF70CFE00F03AF831
:100D7000B8F8200007F1A008FFF704FE00F032F8F1
:100D8000B8F82000FFF7FEFDB7F8E000FFF7FAFD26
:100D9000102EB9DB15E00026002500A8690100EB44
:100DA00046000A5A207906EBC001E07805EBC00046
:100DB0006D1C89B204F0C6FF082DEEDB761C102EE8
:100DC000EADBE07840B0401CE070BDE8F08700004E
:100DD00000000240FFAF56A900A003A80004024093
:100DE00094A6AAA9B8F80000CCE5224941F65E0213
:100DF0000918914213D2010A5E2211FB02F151FA45
:100E000080F044F24111401A0FF26C0180B211F8E7
:100E1000102001EB4000407840EA0220704700209B
:100E200070470000997750558222288A00080240B6
:100E30000015A9460066060000282E8A000C024014
:100E4000001002405554AA6A11111101AA28AAAA39
:100E5000100802407400012030380240181002408F
:100E600002002000140C02400200040000000120D7
:100E7000445200085F4FFFFF886188628865886878
:100E80008869886A886B88718873887488758876A1
:100E9000887788788879887B887C887D8881888233
:100EA000888588898891889388958896889788A16D
:100EB00088A288A588A988B588B788C188C588C947
:100EC00088E188E288E588E888E988EB88F188F39A
:100ED00088F588F688F788F888FB88FC88FD8941C2
:100EE0008945894989518953895589568957896125
:100EF0008962896389658968896989718973897556
:100F000089768977897B898189858989899389957A
:100F100089A189A289A589A889A989AB89AD89B048
:100F200089B189B389B589B789B889C189C289C5A9
:100F300089C989CB89D189D389D589D789E189E5BF
:100F400089E989F389F689F78A418A428A458A497B
:100F50008A518A538A558A578A618A658A698A734F
:100F60008A758A818A828A858A888A898A8A8A8B0E
:100F70008A908A918A938A958A978A988AA18AA266
:100F80008AA58AA98AB68AB78AC18AD58AE18AE2FD
:100F90008AE58AE98AF18AF38AF58B418B458B4988
:100FA0008B618B628B658B688B698B6A8B718B73A2
:100FB0008B758B778B818BA18BA28BA58BA88BA933
:100FC0008BAB8BB18BB38BB58BB78BB88BBC8C6178
:100FD0008C628C638C658C698C6B8C718C738C755A
:100FE0008C768C778C7B8C818C828C858C898C9197
:100FF0008C938C958C968C978CA18CA28CA98CE16F
:101000008CE28CE38CE58CE98CF18CF38CF58CF61E
:101010008CF78D418D428D458D518D558D578D614C
:101020008D658D698D758D768D7B8D818DA18DA260
:101030008DA58DA78DA98DB18DB38DB58DB78DB8CB
:101040008DB98DC18DC28DC98DD68DD78DE18DE2C3
:101050008DF78E418E458E498E518E538E578E61FF
:101060008E818E828E858E898E908E918E938E95B6
:101070008E978E988EA18EA98EB68EB78EC18EC297
:101080008EC58EC98ED18ED38ED68EE18EE58EE939
:101090008EF18EF38F418F618F628F658F678F69BD
:1010A0008F6B8F708F718F738F758F778F7B8FA101
:1010B0008FA28FA58FA98FB18FB38FB58FB7906196
:1010C00090629063906590689069906A906B90715F
:1010D000907390759076907790789079907B907DD2
:1010E0009081908290859089909190939095909620
:1010F000909790A190A290A590A990B190B790E1FF
:1011000090E290E490E590E990EB90EC90F190F310
:1011100090F590F690F790FD91419142914591495B
:101120009151915391559156915791619162916569
:1011300091699171917391769177917A918191856D
:1011400091A191A291A591A991AB91B191B391B5C2
:1011500091B791BC91BD91C191C591C991D6924170
:101160009245924992519253925592619262926540
:101170009269927392759277928192829285928807
:101180009289929192939295929792A192B692C1DE
:1011900092E192E592E992F192F39341934293495D
:1011A0009351935393579361936293659369936AB1
:1011B000936B93719373937593779378937C9381E7
:1011C0009385938993A193A293A593A993AB93B18C
:1011D00093B393B593B793BC94619462946394650D
:1011E00094689469946A946B946C947094719473F9
:1011F00094759476947794789479947D948194827C
:10120000948594899491949394959496949794A1A9
:1012100094E194E294E394E594E894E994EB94ECFB
:1012200094F194F394F594F794F994FC95419542D4
:101230009545954995519553955595569557956171
:1012400095659569957695779581958595A195A2F2
:1012500095A595A895A995AB95AD95B195B395B57F
:1012600095B795B995BB95C195C595C995E195F685
:101270009641964596499651965396559661968114
:10128000968296859689969196939695969796A12D
:1012900096B696C196D796E196E596E996F396F5B9
:1012A00096F7974197459749975197579761976256
:1012B000976597689769976B977197739775977705
:1012C000978197A197A297A597A897A997B197B348
:1012D00097B597B697B797B89861986298659869E7
:1012E00098719873987598769877987D9881988278
:1012F000988598899891989398959896989798E159
:1013000098E298E598E998EB98EC98F198F398F5BD
:1013100098F698F798FD99419942994599499951BC
:1013200099539955995699579961997699A199A286
:1013300099A599A999B799C199C999E19A419A45ED
:101340009A819A829A859A899A909A919A979AC143
:101350009AE19AE59AE99AF19AF39AF79B619B626E
:101360009B659B689B699B719B739B759B819B8510
:101370009B899B919B939BA19BA59BA99BB19BB395
:101380009BB59BB79C619C629C659C699C719C739E
:101390009C759C769C779C789C7C9C7D9C819C8297
:1013A0009C859C899C919C939C959C969C979CA1C8
:1013B0009CA29CA59CB59CB79CE19CE29CE59CE909
:1013C0009CF19CF39CF59CF69CF79CFD9D419D42F5
:1013D0009D459D499D519D539D559D579D619D6284
:1013E0009D659D699D719D739D759D769D779D8180
:1013F0009D859D939D959DA19DA29DA59DA99DB116
:101400009DB39DB59DB79DC19DC59DD79DF69E4140
:101410009E459E499E519E539E559E579E619E6538
:101420009E699E739E759E779E819E829E859E89F3
:101430009E919E939E959E979EA19EB69EC19EE173
:101440009EE29EE59EE99EF19EF59EF79F419F429A
:101450009F459F499F519F539F559F579F619F62F3
:101460009F659F699F719F739F759F779F789F7BF3
:101470009F7C9FA19FA29FA59FA99FB19FB39FB54E
:101480009FB7A061A062A065A067A068A069A06ADC
:10149000A06BA071A073A075A077A078A07BA07DA1
:1014A000A081A082A085A089A091A093A095A096DC
:1014B000A097A098A0A1A0A2A0A9A0B7A0E1A0E297
:1014C000A0E5A0E9A0EBA0F1A0F3A0F5A0F7A0F89B
:1014D000A0FDA141A142A145A149A151A153A155FE
:1014E000A156A157A161A162A165A169A175A176CB
:1014F000A177A179A181A1A1A1A2A1A4A1A5A1A93E
:10150000A1ABA1B1A1B3A1B5A1B7A1C1A1C5A1D6FC
:10151000A1D7A241A245A249A253A255A257A261B6
:10152000A265A269A273A275A281A282A283A285EA
:10153000A288A289A28AA28BA291A293A295A29725
:10154000A29BA29DA2A1A2A5A2A9A2B3A2B5A2C13B
:10155000A2E1A2E5A2E9A341A345A349A351A35552
:10156000A361A365A369A371A375A3A1A3A2A3A566
:10157000A3A8A3A9A3ABA3B1A3B3A3B5A3B6A3B7D1
:10158000A3B9A3BBA461A462A463A464A465A46872
:10159000A469A46AA46BA46CA471A473A475A477B1
:1015A000A47BA481A482A485A489A491A493A495D6
:1015B000A496A497A49BA4A1A4A2A4A5A4B3A4E1C7
:1015C000A4E2A4E5A4E8A4E9A4EBA4F1A4F3A4F59F
:1015D000A4F7A4F8A541A542A545A548A549A5514C
:1015E000A553A555A556A557A561A562A565A569ED
:1015F000A573A575A576A577A57BA581A585A5A1CC
:10160000A5A2A5A3A5A5A5A9A5B1A5B3A5B5A5B74F
:10161000A5C1A5C5A5D6A5E1A5F6A641A642A645A4
:10162000A649A651A653A661A665A681A682A6854F
:10163000A688A689A68AA68BA691A693A695A69704
:10164000A69BA69CA6A1A6A9A6B6A6C1A6E1A6E2AF
:10165000A6E5A6E9A6F7A741A745A749A751A7551B
:10166000A757A761A762A765A769A771A773A77501
:10167000A7A1A7A2A7A5A7A9A7ABA7B1A7B3A7B5DD
:10168000A7B7A7B8A7B9A861A862A865A869A86BF9
:10169000A871A873A875A876A877A87DA881A88244
:1016A000A885A889A891A893A895A896A897A8A165
:1016B000A8A2A8B1A8E1A8E2A8E5A8E8A8E9A8F12D
:1016C000A8F5A8F6A8F7A941A957A961A962A97127
:1016D000A973A975A976A977A9A1A9A2A9A5A9A95C
:1016E000A9B1A9B3A9B7AA41AA61AA77AA81AA8276
:1016F000AA85AA89AA91AA95AA97AB41AB57AB61D3
:10170000AB65AB69AB71AB73ABA1ABA2ABA5ABA93E
:10171000ABB1ABB3ABB5ABB7AC61AC62AC64AC6511
:10172000AC68AC69AC6AAC6BAC71AC73AC75AC76E4
:10173000AC77AC7BAC81AC82AC85AC89AC91AC9322
:10174000AC95AC96AC97ACA1ACA2ACA5ACA9ACB135
:10175000ACB3ACB5ACB7ACC1ACC5ACC9ACD1ACD713
:10176000ACE1ACE2ACE3ACE4ACE5ACE8ACE9ACEBEE
:10177000ACECACF1ACF3ACF5ACF6ACF7ACFCAD4119
:10178000AD42AD45AD49AD51AD53AD55AD56AD577B
:10179000AD61AD62AD65AD69AD71AD73AD75AD7681
:1017A000AD77AD81AD85AD89AD97ADA1ADA2ADA34E
:1017B000ADA5ADA9ADABADB1ADB3ADB5ADB7ADBB3D
:1017C000ADC1ADC2ADC5ADC9ADD7ADE1ADE5ADE91A
:1017D000ADF1ADF5ADF6AE41AE45AE49AE51AE534D
:1017E000AE55AE61AE62AE65AE69AE71AE73AE754A
:1017F000AE77AE81AE82AE85AE88AE89AE91AE9345
:10180000AE95AE97AE99AE9BAE9CAEA1AEB6AEC154
:10181000AEC2AEC5AEC9AED1AED7AEE1AEE2AEE5B8
:10182000AEE9AEF1AEF3AEF5AEF7AF41AF42AF49C0
:10183000AF51AF55AF57AF61AF62AF65AF69AF6A38
:10184000AF71AF73AF75AF77AFA1AFA2AFA5AFA8C0
:10185000AFA9AFB0AFB1AFB3AFB5AFB7AFBCB061C9
:10186000B062B064B065B069B071B073B076B07793
:10187000B07DB081B082B085B089B091B093B096A0
:10188000B097B0B7B0E1B0E2B0E5B0E9B0EBB0F11D
:10189000B0F3B0F6B0F7B141B145B149B157B1A11C
:1018A000B1A2B1A5B1A8B1A9B1ABB1B1B1B3B1B752
:1018B000B1C1B1C2B1C5B1D6B1E1B1F6B241B24523
:1018C000B249B251B253B261B281B282B285B28929
:1018D000B291B293B297B2A1B2B6B2C1B2E1B2E5DF
:1018E000B357B361B362B365B369B36BB370B3712C
:1018F000B373B381B385B389B391B3A1B3A2B3A5D5
:10190000B3A9B3B1B3B3B3B5B3B7B461B462B4659B
:10191000B466B467B469B46AB46BB470B471B473C8
:10192000B475B476B477B47BB47CB481B482B48536
:10193000B489B491B493B495B496B497B4A1B4A255
:10194000B4A5B4A9B4ACB4B1B4B3B4B5B4B7B4BB72
:10195000B4BDB4C1B4C5B4C9B4D3B4E1B4E2B4E560
:10196000B4E6B4E8B4E9B4EAB4EBB4F1B4F3B4F473
:10197000B4F5B4F6B4F7B4F8B4FAB4FCB541B54272
:10198000B545B549B551B553B555B557B561B5620E
:10199000B563B565B569B56BB56CB571B573B5743F
:1019A000B575B576B577B57BB57CB57DB581B585B3
:1019B000B589B591B593B595B596B5A1B5A2B5A5BF
:1019C000B5A9B5AAB5ABB5ADB5B0B5B1B5B3B5B5FB
:1019D000B5B7B5B9B5C1B5C2B5C5B5C9B5D1B5D33A
:1019E000B5D5B5D6B5D7B5E1B5E2B5E5B5F1B5F53F
:1019F000B5F7B641B642B645B649B651B653B65537
:101A0000B657B661B662B665B669B671B673B675E5
:101A1000B677B681B682B685B689B68AB68BB691E8
:101A2000B693B695B697B6A1B6A2B6A5B6A9B6B105
:101A3000B6B3B6B6B6B7B6C1B6C2B6C5B6C9B6D1F4
:101A4000B6D3B6D7B6E1B6E2B6E5B6E9B6F1B6F3C7
:101A5000B6F5B6F7B741B742B745B749B751B7532F
:101A6000B755B757B759B761B762B765B769B76FB9
:101A7000B771B773B775B777B778B779B77AB77BF8
:101A8000B77CB77DB781B785B789B791B795B7A14F
:101A9000B7A2B7A5B7A9B7AAB7ABB7B0B7B1B7B335
:101AA000B7B5B7B6B7B7B7B8B7BCB861B862B865BD
:101AB000B867B868B869B86BB871B873B875B876F4
:101AC000B877B878B881B882B885B889B891B89332
:101AD000B895B896B897B8A1B8A2B8A5B8A7B8A94C
:101AE000B8B1B8B7B8C1B8C5B8C9B8E1B8E2B8E5D7
:101AF000B8E9B8EBB8F1B8F3B8F5B8F7B8F8B94148
:101B0000B942B945B949B951B953B955B957B9618C
:101B1000B965B969B971B973B976B977B981B9A13C
:101B2000B9A2B9A5B9A9B9ABB9B1B9B3B9B5B9B782
:101B3000B9B8B9B9B9BDB9C1B9C2B9C9B9D3B9D5BB
:101B4000B9D7B9E1B9F6B9F7BA41BA45BA49BA5104
:101B5000BA53BA55BA57BA61BA62BA65BA77BA8196
:101B6000BA82BA85BA89BA8ABA8BBA91BA93BA9547
:101B7000BA97BAA1BAB6BAC1BAE1BAE2BAE5BAE955
:101B8000BAF1BAF3BAF5BB41BB45BB49BB51BB6126
:101B9000BB62BB65BB69BB71BB73BB75BB77BBA1CC
:101BA000BBA2BBA5BBA8BBA9BBABBBB1BBB3BBB501
:101BB000BBB7BBB8BBBBBBBCBC61BC62BC65BC67D4
:101BC000BC69BC6CBC71BC73BC75BC76BC77BC8199
:101BD000BC82BC85BC89BC91BC93BC95BC96BC97AF
:101BE000BCA1BCA5BCB7BCE1BCE2BCE5BCE9BCF196
:101BF000BCF3BCF5BCF6BCF7BD41BD57BD61BD76BD
:101C0000BDA1BDA2BDA5BDA9BDB1BDB3BDB5BDB78B
:101C1000BDB9BDC1BDC2BDC9BDD6BDE1BDF6BE41E8
:101C2000BE45BE49BE51BE53BE77BE81BE82BE8593
:101C3000BE89BE91BE93BE97BEA1BEB6BEB7BEE181
:101C4000BF41BF61BF71BF75BF77BFA1BFA2BFA5B5
:101C5000BFA9BFB1BFB3BFB7BFB8BFBDC061C0628E
:101C6000C065C067C069C071C073C075C076C077F9
:101C7000C078C081C082C085C089C091C093C09522
:101C8000C096C097C0A1C0A5C0A7C0A9C0B1C0B729
:101C9000C0E1C0E2C0E5C0E9C0F1C0F3C0F5C0F6E4
:101CA000C0F7C141C142C145C149C151C153C1552C
:101CB000C157C161C165C176C181C185C197C1A14B
:101CC000C1A2C1A5C1A9C1B1C1B3C1B5C1B7C1C18B
:101CD000C1C5C1C9C1D7C241C245C249C251C2531F
:101CE000C255C257C261C271C281C282C285C28955
:101CF000C291C293C295C297C2A1C2B6C2C1C2C5A7
:101D0000C2E1C2E5C2E9C2F1C2F3C2F5C2F7C34102
:101D1000C345C349C351C357C361C362C365C369E4
:101D2000C371C373C375C377C3A1C3A2C3A5C3A83B
:101D3000C3A9C3AAC3B1C3B3C3B5C3B7C461C462A3
:101D4000C465C469C471C473C475C477C481C482D2
:101D5000C485C489C491C493C495C496C497C4A1CE
:101D6000C4A2C4B7C4E1C4E2C4E5C4E8C4E9C4F190
:101D7000C4F3C4F5C4F6C4F7C541C542C545C54959
:101D8000C551C553C555C557C561C565C569C5713B
:101D9000C573C575C576C577C581C5A1C5A2C5A5DD
:101DA000C5A9C5B1C5B3C5B5C5B7C5C1C5C2C5C54A
:101DB000C5C9C5D1C5D7C5E1C5F7C641C649C661C4
:101DC000C681C682C685C689C691C693C695C69782
:101DD000C6A1C6A5C6A9C6B7C6C1C6D7C6E1C6E2D2
:101DE000C6E5C6E9C6F1C6F3C6F5C6F7C741C7459D
:101DF000C749C751C761C762C765C769C771C7739C
:101E0000C777C7A1C7A2C7A5C7A9C7B1C7B3C7B579
:101E1000C7B7C861C862C865C869C86AC871C873ED
:101E2000C875C876C877C881C882C885C889C8916E
:101E3000C893C895C896C897C8A1C8B7C8E1C8E2F2
:101E4000C8E5C8E9C8EBC8F1C8F3C8F5C8F6C8F7D3
:101E5000C941C942C945C949C951C953C955C957D9
:101E6000C961C965C976C981C985C9A1C9A2C9A500
:101E7000C9A9C9B1C9B3C9B5C9B7C9BCC9C1C9C55F
:101E8000C9E1CA41CA45CA55CA57CA61CA81CA828C
:101E9000CA85CA89CA91CA93CA95CA97CAA1CAB63D
:101EA000CAC1CAE1CAE2CAE5CAE9CAF1CAF3CAF7B5
:101EB000CB41CB45CB49CB51CB57CB61CB62CB652B
:101EC000CB68CB69CB6BCB71CB73CB75CB81CB851F
:101ED000CB89CB91CB93CBA1CBA2CBA5CBA9CBB1BB
:101EE000CBB3CBB5CBB7CC61CC62CC63CC65CC6982
:101EF000CC6BCC71CC73CC75CC76CC77CC7BCC81D5
:101F0000CC82CC85CC89CC91CC93CC95CC96CC97FB
:101F1000CCA1CCA2CCE1CCE2CCE5CCE9CCF1CCF3A9
:101F2000CCF5CCF6CCF7CD41CD42CD45CD49CD5108
:101F3000CD53CD55CD57CD61CD65CD69CD71CD7327
:101F4000CD76CD77CD81CD89CD93CD95CDA1CDA2C7
:101F5000CDA5CDA9CDB1CDB3CDB5CDB7CDC1CDD763
:101F6000CE41CE45CE61CE65CE69CE73CE75CE81E3
:101F7000CE82CE85CE88CE89CE8BCE91CE93CE9595
:101F8000CE97CEA1CEB7CEE1CEE5CEE9CEF1CEF55D
:101F9000CF41CF45CF49CF51CF55CF57CF61CF6537
:101FA000CF69CF71CF73CF75CFA1CFA2CFA5CFA966
:101FB000CFB1CFB3CFB5CFB7D061D062D065D06944
:101FC000D06ED071D073D075D077D081D082D085CB
:101FD000D089D091D093D095D096D097D0A1D0B7BA
:101FE000D0E1D0E2D0E5D0E9D0EBD0F1D0F3D0F51C
:101FF000D0F7D141D142D145D149D151D153D15559
:10200000D157D161D162D165D169D171D173D17507
:10201000D176D177D181D185D189D193D1A1D1A2E6
:10202000D1A5D1A9D1AED1B1D1B3D1B5D1B7D1BBA1
:10203000D1C1D1C2D1C5D1C9D1D5D1D7D1E1D1E298
:10204000D1E5D1F5D1F7D241D242D245D249D253CE
:10205000D255D257D261D265D269D273D275D281AC
:10206000D282D285D289D28ED291D295D297D2A164
:10207000D2A5D2A9D2B1D2B7D2C1D2C2D2C5D2C909
:10208000D2D7D2E1D2E2D2E5D2E9D2F1D2F3D2F57F
:10209000D2F7D341D342D345D349D351D355D357A4
:1020A000D361D362D365D367D368D369D36AD3715D
:1020B000D373D375D377D37BD381D385D389D3918E
:1020C000D393D397D3A1D3A2D3A5D3A9D3B1D3B359
:1020D000D3B5D3B72DE9F04FADF5097D064601A87C
:1020E000202111F03FFDDB48C6F38421C6F34412E2
:1020F0000024085CD849555CD84906F01F02515CA1
:10210000009149B9D6490128A046695C1ABF102838
:102110004FF0160BA34610E0D24B0128D2494FF0E6
:102120000108EB5C16BF1028022203221C24695C04
:1021300013FB04F4162312FB03FBCC4F142212FBF7
:1021400001000FF23436B97ADFF824930004DFF887
:1021500024A34D2903D120220AEBD0210AE04729EC
:1021600003D1202209EBD02104E0502905D12022FF
:1021700006EBD02101A811F0F9FC05EB0B0000F1F2
:10218000A002B97A1204D30A01A84D2906D100226F
:1021900003EB0A0C02F0F7FFFADB10E0472906D147
:1021A000002203EB090C02F0EEFFFADB07E05029F6
:1021B00005D1002203EB060C02F0E5FFFADBB8F1D3
:1021C000000F1DD0009A1219F8321204D30A4D29BB
:1021D00006D1002203EB0A0402F0CEFFFADB0FE087
:1021E000472906D1002203EB090402F0C5FFFADB00
:1021F00006E0502904D100229C1902F0BDFFFBDB50
:102200000024F98BBB8B255C0022EE0709AE06EBA0
:1022100044164CBF26F8123026F812106D10521CCE
:10222000082AF2DB641C102CEDDB002401AAA218A2
:10223000157C002209AE5FEAC57C06EB441606EB6E
:1022400042064CBF338231826D10521C082AF1DBEA
:10225000641C102CEADB7A7A012A48D100247B8B9B
:1022600001AAA218551C265C95F80FC012F8012C83
:1022700095F8109006EB0C264FEA09291FFA86F80C
:102280002E78AD7B4FEA580CC64659FA86F60DF10A
:10229000240902EB0525002209EB44195FEAC87AFC
:1022A00016D45FEACC7A48BF29F812305FEACE7EB6
:1022B00048BF29F812305FEAC67E03D50F2CB8BF9D
:1022C00029F812305FEAC57E02D50CB129F8123028
:1022D00036042D04760C6D0C521C102AC6464FEAAB
:1022E0005C0C4FEA5808D9DB641C102CB8DB7B78F7
:1022F000FA7838795B1E9A4208DB0022801CFA705B
:10230000BA78C0B2521E9042A8BF00203871387A05
:10231000012808D10024388B09AA02EB4412641C5E
:10232000102CD083F7DBFA79F878012A04BF7A7988
:10233000904202BF3A79BB799A4209D10024FA8AC5
:1023400009AB03EB4413641C102C9A83DA83F7DB8C
:1023500004F005F860D0C4000025387905EBC0060C
:1023600038784C280AD1210A0CF0D3FD04F0FF0183
:1023700004F004F803F037FEB1B208E003F037FED2
:1023800003F0FBFFB6B2310A03F0FFFFF1B202F037
:1023900006FF03F0EFFF09A830F81500FEF7F2FA88
:1023A00009A800EB45086D1C08F1200602F0F4FEB8
:1023B000308C08F16006FEF7E5FA02F0EDFE308C95
:1023C00008F1A006FEF7DEFA02F0E6FE308C08F116
:1023D000E006FEF7D7FA02F0DFFE308C08F59076C3
:1023E000FEF7D0FA02F0D8FE308C08F5B076FEF792
:1023F000C9FA02F0D1FE308C08F5D076FEF7C2FAA9
:1024000002F0CAFE308CFEF7BDFAB8F8E001FEF724
:10241000B9FA102DA1DB15E00025002409A86101FF
:1024200000EB45000A5A387905EBC001F87804EB57
:10243000C000641C89B203F085FC102CEEDB6D1C1F
:10244000102DEADBF8780DF5097D801CF870BDE8E9
:10245000F08F00007068000888680008A86800080D
:10246000C8680008E0680008F8680008000001205B
:10247000707A0108704D01080000000000000000A3
:10248000000000000000000000000000000000004C
:102490000000000000000000080808080888C8784C
:1024A00030000000000000000000040603010000EE
:1024B0000000000000000000080808C8F83090F094
:1024C0006000000000000000000407030006070190
:1024D000000000000000000000F8F800000000000C
:1024E00000000000000000000003070404040406CC
:1024F00002030100000000000808C8F838080808B6
:1025000008000000000000000003070404040406A3
:102510000203010000000000C8F83808C8F83808B5
:10252000080000000000000003070406030704067B
:102530000203010000000000000888C85870200055
:10254000000000000000000000030704040406026D
:10255000030100000000000000FCFC08081890F0D7
:1025600060000000000000000003030002030302FB
:10257000020000000000000000FCFC80C04040F8A9
:10258000F800000000000000000707010306040730
:102590000300000000000000F0F080F0F08080F008
:1025A000F000000000000000030704070704060312
:1025B0000100000000000000000000C0F0F88800EA
:1025C00000000000000000000406030100010306F3
:1025D00004000000000000000080E0F898C0F0B89F
:1025E00008000000000000000203010203010001D6
:1025F0000302000000000000C0E03010103020E0B6
:10260000C0000000000000000001030202020301FC
:102610000000000000000000000808081890F060AA
:102620000000000000000000000404020301030693
:1026300004000000000000000008C8E8B890D07056
:10264000200000000000000000070700070701034A
:102650000604000000000000001010121694F46040
:102660000000000000000000000404020301030653
:1026700004000000000000008088888898D0F06086
:10268000000000000000000000000406030100003C
:10269000000000000000000008C8F878484848081A
:1026A000000000000000000000030704040404060A
:1026B00002030100000000000808F8F80888F87814
:1026C00008000000000000000202030303030202EE
:1026D000030100000000000000101094D45C7CE0B6
:1026E000800000000000000000000307040406034F
:1026F00001000000000000000000000000000000D9
:1027000000000000000000000000000000000000C9
:1027100000000000000000000000040404040404A1
:102720000C0808F8F00000000000000000000000A5
:1027300000040703000000000004040484C47C3883
:1027400008080888F870000000000001010000007F
:1027500000000101000000000000003C7C404040FF
:102760004040404000000000000000000000000069
:102770000000000000000000000404347C4C4444CD
:1027800044444440400000000000000000000000FD
:1027900000000000000000000004347C4C4444743D
:1027A0007C4C446424000000000000000000000095
:1027B0000000000000000000000000287A5A4A4A89
:1027C0004A4E6C20200000000000000000000000C5
:1027D00000000000000000000000007C7C08444471
:1027E00044647C580000000000000000000000006D
:1027F00000000000000000000000007E7E307848ED
:1028000048587C3C00000000000000000000000070
:1028100000000000000000000000003C7C50507CE4
:102820007C50507C3C0000000000000000000000D4
:102830000000000000000000000080C06030181C94
:102840003420604040000000000000000000000054
:10285000000000000000000000004070383C646090
:1028600030183C6440000000000000000000000040
:1028700000000000000000000000003078CC8484DC
:102880008CC878300000000000000000000000004C
:10289000000000000000000000040484E4743C28F0
:1028A0006040C08000000000000000010100000046
:1028B00000000000000000000000444464347C4C30
:1028C00064343C286040000000000000000000006C
:1028D000000000000000000000040587C6643C38CA
:1028E0006040C08000000000000000010100000006
:1028F0000000000000000000000044444444444440
:102900004C4848F8F0000000000000000000000003
:1029100000040703000000000004043C7C545454ED
:10292000545454400000000000000000000000006B
:10293000000000000000000000000004447C7C4413
:10294000647C5C4404000000000000000000000003
:1029500000000000000000000000000064F4949DEE
:102960008DCF7E300000000000000000000000005D
:102970000000000000000000000000000000000057
:102980000000000000000000000000000000000047
:102990000000000000000000000000000101010133
:1029A0000143623E1C000000000000000000000027
:1029B00000000000000000000000020202223E1C95
:1029C0000444643C18000000000000000000000007
:1029D00000000000000000000000000F1F10101099
:1029E00010101010000000000000000000000000A7
:1029F0000000000000000000000002020A1E161283
:102A00001212121000000000000000000000000080
:102A1000000000000000000000020E1E1212120E44
:102A20001E12121212000000000000000000000040
:102A3000000000000000000000000000143D2D25F3
:102A400025273610100000000000000000000000E4
:102A500000000000000000000000003F3F002121B6
:102A6000313B2E04000000000000000000000000C8
:102A700000000000000000000000003F3F081C3480
:102A8000242C3E1E0000000000000000000000009A
:102A9000000000000000000000001F3F28381C1F3D
:102AA0003F28381E0E00000000000000000000005B
:102AB0000000000000000000000000002030180CA2
:102AC0000F1B10302000000000000000000000007C
:102AD0000000000000000000000020301C0F3B3010
:102AE000180E1F3120000000000000000000000050
:102AF0000000000000000000000000000C1E332158
:102B00002123321E0C000000000000000000000025
:102B10000000000000000000000001010121311947
:102B20000D1F123020000000000000000000000017
:102B3000000000000000000000002131191D3723B3
:102B400031191F36200000000000000000000000C6
:102B50000000000000000000000002020223331BFE
:102B60001F143020200000000000000000000000C2
:102B70000000000000000000000000001111111111
:102B80001352723E1C000000000000000000000014
:102B90000000000000000000000001011D3F27258B
:102BA0002525253510100000000000000000000061
:102BB000000000000000000000000001212F3F3154
:102BC00031392D2531100000000000000000000008
:102BD000000000000000000000000002327A4B4FAD
:102BE00047673E18000000000000000000000000E1
:102BF00000000000000000000000000000000000D5
:102C000000000000000000000000000000000000C4
:102C1000000000000000000000000808081890F004
:102C20006000000000000000000000000001010042
:102C300000000000000000000404447C380898F004
:102C40006000000000000000000000000000000024
:102C50000000000000000000003E7E404040404078
:102C60000000000000000000000000000000000064
:102C7000000000000000000004347C4C4444642048
:102C80000000000000000000000000000000000044
:102C9000000000000000000004347C4C747C4C6494
:102CA0002400000000000000000000000000000000
:102CB00000000000000000000050F4B4949C98C094
:102CC00040000000000000000000000000000000C4
:102CD0000000000000000000007C7C0444446C788C
:102CE0005000000000000000000000000000000094
:102CF000000000000000000000FCFC60D090FC7CA4
:102D000000000000000000000000000000000000C3
:102D100000000000000000007CFCA0A0FCFCA0F86B
:102D2000780000000000000000000000000000002B
:102D30000000000000000000C0F03C1C302060409B
:102D40000000000000000000010100000000000081
:102D50000000000000000000C0F03CBCE0703C6CD3
:102D60004000000000000000000000000000000023
:102D70000000000000000000003078484C444C780F
:102D80003000000000000000000000000000000013
:102D9000000000000000000084C4643C7840C08053
:102DA0000000000000000000010100000000000021
:102DB0000000000000000000C4E43C78C4E43C785B
:102DC000C0800000000000000000000000000000C3
:102DD000000000000000000084C5673E7840C0800D
:102DE00000000000000000000000000000000000E3
:102DF0000000000000000000004048484858D0F0A3
:102E00006000000000000000000000000001010060
:102E10000000000000000000040474FC9C9494D4A2
:102E20004000000000000000000000000000000062
:102E30000000000000000000000484FCFCC4E4B4B6
:102E400094000000000000000000000000000000EE
:102E50000000000000000000000464F4969ECC789E
:102E60003000000000000000000000000000000032
:102E70000000000000000000000000000000000052
:102E80000000000000000000000000000000000042
:102E9000000000000000000000000808081890F082
:102EA00060000000000000000000000000000000C2
:102EB0000000000000000000080898F0701090F07A
:102EC00060000000000000000000000000000000A2
:102ED0000000000000000000003C7C4040404040FA
:102EE00000000000000000000000000000000000E2
:102EF000000000000000000004347C4C44446420C6
:102F000000000000000000000000000000000000C1
:102F1000000000000000000004347C4C747C4C6411
:102F2000240000000000000000000000000000007D
:102F3000000000000000000000002074545C4860A5
:102F40002000000000000000000000000000000061
:102F5000000000000000000000007C7C04446C784D
:102F60005800000000000000000000000000000009
:102F7000000000000000000000007C7C2070507CFD
:102F80003C00000000000000000000000000000005
:102F90000000000000000000003C7C507C7C507C65
:102FA0003C000000000000000000000000000000E5
:102FB00000000000000000000060781C1430206059
:102FC00040000000000000000000000000000000C1
:102FD000000000000000000060783C6460383C6441
:102FE0004040000000000000000000000000000061
:102FF0000000000000000000003078484C444C788D
:103000003000000000000000000000000000000090
:10301000000000000000000000044464341C38601C
:103020004000000000000000000000000000000060
:1030300000000000000000000064743C6C64343C3C
:103040006C480000000000000000000000000000CC
:10305000000000000000000000044567361C3860D6
:103060004000000000000000000000000000000020
:1030700000000000000000000020242424ACE878B8
:103080003000000000000000000000000000000010
:1030900000000000000000000404347C5C54545420
:1030A00040000000000000000000000000000000E0
:1030B00000000000000000000004447C7C647454A4
:1030C00044000000000000000000000000000000BC
:1030D000000000000000000000042474565E4C78DC
:1030E00030000000000000000000000000000000B0
:1030F00000000000000000000000000000000000D0
:1031000000000000000000000000000000000000BF
:1031100000000000000000000404048484C4643C37
:103120001800000000000000000101010000000084
:103130000000000000000000040484E47C18C8F8CB
:10314000300000000000000000010100000101004B
:103150000000000000000000FCFC00000000808077
:10316000C040000000000000000101010101010059
:10317000000000000000000004E4FC1C040484843F
:10318000C04000000000000000000101010101003A
:103190000000000000000000E4FC1C84E4FC1C04AF
:1031A00084C0400000000000000101010001010195
:1031B00001000000000000000084C4643C1880800E
:1031C000C0400000000000000000010101010100FA
:1031D0000000000000000000FCFC040484CC7830F7
:1031E00000000000000000000101000101010100D9
:1031F000000000000000000000FEFEE0B010FCFC3B
:1032000000000000000000000001010001010100B9
:103210000000000000000000FCFC20FCFC20A0FCE2
:103220007C0000000000000000010101010101001C
:1032300000000000000000000080C0703C3E62C042
:1032400080000000000000000101000000000000FC
:10325000010000000000000080C070BCEC60387C01
:10326000C48000000000000000000000000000001A
:1032700000000000000000003078CC84848CC87806
:10328000300000000000000000000000000000000E
:10329000000000000000000000040484C4647CD826
:1032A000800000000000000000000101000000009C
:1032B000010100000000000002C2F23EECC464FC08
:1032C0009800000000000000000000000101000064
:1032D0000101000000000000040485C5677ED8805D
:1032E00000000000000000000001010000000001DB
:1032F0000100000000000000202222A2E6743C1819
:1033000000000000000000000000010100000000BB
:10331000000000000000000004E4FC1C1414948071
:10332000C040000000000000000001010101010098
:10333000000000000000000084FCFCC4FCBCC44091
:10334000400000000000000000000000000000003D
:1033500000000000000000000888C9693B1EFCE076
:103360000000000000000000000001010101010058
:10337000000000000000000000000000000000004D
:10338000000000000000000000000000000000003D
:103390000000000000000000000000000101010129
:1033A0000342623E1C00000000000000000000001C
:1033B00000000000000000000000020222321E0C8B
:1033C0000444643C180000000000000000000000FD
:1033D00000000000000000000000000E1E10101091
:1033E000101010100000000000000000000000009D
:1033F0000000000000000000000002021A3E262229
:103400002222223010000000000000000000000016
:10341000000000000000000000021A3E2622321ABE
:103420003E262232120000000000000000000000D2
:103430000000000000000000000000001039292DED
:1034400025272230100000000000000000000000CE
:103450000000000000000000000000001F1F01111C
:10346000111B1E14000000000000000000000000FE
:103470000000000000000000000000001F1F081CEA
:1034800014141F0F000000000000000000000000E6
:10349000000000000000000000000F1F14141F0FA8
:1034A0001C14141E0E0000000000000000000000AC
:1034B000000000000000000000000010180C0607CB
:1034C0000F181010000000000000000000000000B5
:1034D0000000000000000000000010180C071F187A
:1034E0000C060F1910000000000000000000000092
:1034F0000000000000000000000000000C1E13117E
:1035000011131E0C0000000000000000000000006D
:103510000000000000000000000000012131190D32
:103520000F1A101000000000000000000000000052
:10353000000000000000000000000011190D1F1223
:10354000190D1F1210000000000000000000000014
:103550000000000000000000000000000223331BF8
:103560001F14101000000000000000000000000008
:103570000000000000000000000000001111111107
:103580001352723E1C00000000000000000000000A
:103590000000000000000000000001010F1F1515D1
:1035A00015151500000000000000000000000000DC
:1035B000000000000000000000000001111F1F11AA
:1035C000191D1501000000000000000000000000AF
:1035D000000000000000000000000000123A2F2749
:1035E000371F1E0000000000000000000000000067
:1035F00000000000000000000000000000000000CB
:1036000000000000000000000000000000000000BA
:1036100000000000000000000002020206243C1826
:10362000000000000000000000000000000000009A
:1036300000000000000000000101111F0E02263CE6
:103640001800000000000000000000000000000062
:103650000000000000000000000F1F1010180C04F4
:10366000000000000000000000000000000000005A
:103670000000000000000000010D1F1311190D04CF
:10368000000000000000000000000000000000003A
:103690000000000000000000010D1F131D1F131982
:1036A0000900000000000000000000000000000011
:1036B00000000000000000000000091D151712188E
:1036C00008000000000000000000000000000000F2
:1036D0000000000000000000001F1F0111191F164C
:1036E00000000000000000000000000000000000DA
:1036F0000000000000000000001F1F081C141F0F26
:1037000000000000000000000000000000000000B9
:103710000000000000000000000F1F141F1F141FF6
:103720000F0000000000000000000000000000008A
:103730000000000000000000101C0F07040C080827
:103740000000000000000000000000000000000079
:103750000000000000000000080C07070C0C070721
:103760000C08000000000000000000000000000045
:10377000000000000000000000000E1E13111B0ED0
:103780000400000000000000000000000000000035
:103790000000000000000000000111190F0E1810B9
:1037A0001000000000000000000000000000000009
:1037B000000000000000000000191D071F190D0F78
:1037C0001A100000000000000000000000000000CF
:1037D00000000000000000000002131B0F060C1880
:1037E00010000000000000000000000000000000C9
:1037F000000000000000000000080909090B2A3E33
:103800001C0000000000000000000000000000009C
:10381000000000000000000000010D1F1715151525
:103820001000000000000000000000000000000088
:1038300000000000000000000000111F1F191D15EE
:103840001100000000000000000000000000000067
:10385000000000000000000000020A1E17171F0CE5
:103860000000000000000000000000000000000058
:103870000000000000000000000000000000000048
:103880000000000000000000000000000000000038
:103890000000000000000000000000000000000028
:1038A000000000FEFE40404000000000000000005C
:1038B0000000007F7F00000000000000000000000A
:1038C0000000FCFC40FEFE000000000000000000C4
:1038D00000003F3F007F7F0000000000000000006C
:1038E000000000FEFE40404000000000000000001C
:1038F0000000007F7F0101010000000000000000C7
:103900000000FCFC40FEFE00000000000000000083
:1039100000003F3F017F7F0000000000000000002A
:10392000404040FEFE0000000000000000000000DB
:103930000000007F7F000000000000000000000089
:103940004040FCFC00FEFE00000000000000000003
:1039500000003F3F007F7F000000000000000000EB
:10396000404040FEFE00000000000000000000009B
:103970000101017F7F000000000000000000000046
:103980004040FCFC00FEFE000000000000000000C3
:1039900001013F3F007F7F000000000000008080A9
:1039A00000000000000000000000101010101F1F99
:1039B00010101010101000000000000000000000A7
:1039C000000080F8F840404000000F1F1010180859
:1039D0000C06037F7F0000000000000000000000D4
:1039E0000000F0F040F8F80000000F1F1018080C5D
:1039F00006033F3F007F7F00000000000000000042
:103A0000000080F8F800000000000F1F10101808D8
:103A10000C06037F7F000000000000000080800093
:103A2000808000000000000000001010101F1F1810
:103A30001F17101010100000008080808080808090
:103A400080808080808080000000000000000000F6
:103A50007F7F000000000000000000000000000068
:103A600000000000F8F80000000101010161791F69
:103A7000060404047F7F0000000000000000000036
:103A80000000FCFC00FEFE00000101010161791F45
:103A900006043F3F007F7F000000000000000000A0
:103AA00000000000F8F80000000101010161791F29
:103AB000060000007F7F0000008080808080808082
:103AC00080808080808080000000000000003F3FF8
:103AD000007F7F00000000000000000000000000E8
:103AE0000000000000000000000010101010101076
:103AF0001010101010100000000000000000000066
:103B0000000000F8F80000000008080808080C048D
:103B10000404047F7F00000000000000000000009B
:103B2000000000FEFE000000000000000000000099
:103B30000000007F7F000000000000000000000087
:103B40000000000000000000000000000000000075
:103B50000000000000000000000000000000000065
:103B6000000000FEFE404040000000000000000099
:103B70000000007F7F000000000000000000000047
:103B80000000FCFC40FEFE00000000000000000001
:103B900000003F3F007F7F000000000000000000A9
:103BA000000000FEFE404040000000000000000059
:103BB0000000007F7F010101000000000000000004
:103BC0000000FCFC40FEFE000000000000000000C1
:103BD00000003F3F017F7F00000000000000000068
:103BE000404040FEFE000000000000000000000019
:103BF0000000007F7F0000000000000000000000C7
:103C00004040FCFC00FEFE00000000000000000040
:103C100000003F3F007F7F00000000000000000028
:103C2000404040FEFE0000000000000000000000D8
:103C30000101017F7F000000000000000000000083
:103C40004040FCFC00FEFE00000000000000000000
:103C500001013F3F007F7F00000000000000008066
:103C60008000000000000000000010101010101F65
:103C70001F101010101000000000000000000000D5
:103C80000000C0F8F840404000000C1F1318080C5A
:103C90000603017F7F00000000000000000000001C
:103CA0000080F0F040F8F80000000C1F1318080C1A
:103CB00006033F3F007F7F0000000000000000007F
:103CC0000000C0F8F800000000000C1F1318080CDA
:103CD0000603017F7F0000000000000000808000DC
:103CE000808000000000000000001010101F1F184E
:103CF0001F171010101000000080808080808080CE
:103D00008080808080808000000000000000000033
:103D10007F7F0000000000000000000000000000A5
:103D200000000000F8F80000000101010161791FA6
:103D3000060404047F7F0000000000000000000073
:103D40000000FCFC00FEFE00000101010161791F82
:103D500006043F3F007F7F000000000000000000DD
:103D600000000000F8F80000000101010161791F66
:103D7000060000007F7F00000080808080808080BF
:103D800080808080808080000000000000003F3F35
:103D9000007F7F0000000000000000000000000025
:103DA00000000000000000000000101010101010B3
:103DB00010101010101000000000000000000000A3
:103DC000000000F8F80000000008080808080C04CB
:103DD0000404047F7F0000000000000000000000D9
:103DE000000000FEFE0000000000000000000000D7
:103DF0000000007F7F0000000000000000000000C5
:103E000000000000000000000000000000000000B2
:103E100000000000000000000000000000000000A2
:103E2000000000FEFE101010000000000000000066
:103E30000000000101000000000000000000000080
:103E40000000FCFC10FEFE0000000000000000006E
:103E5000000001010001010000000000000000005E
:103E6000000000FEFE505050000000000000000066
:103E70000000000101000000000000000000000040
:103E80000000FCFC50FEFE000000000000000000EE
:103E9000000001010001010000000000000000001E
:103EA000101010FEFE0000000000000000000000E6
:103EB00000000001010000000000000000000010F0
:103EC0001010FCFC00FEFE000000000000000000DE
:103ED00000000101000101000000000000000000DE
:103EE000505050FEFE0000000000000000000000E6
:103EF0000000000101000000000000000000005070
:103F00005050FCFC00FEFE0000000000000000001D
:103F1000000001010001010000000000000000E0BD
:103F2000E0000000000000000001010101010101AA
:103F30000101010101010100000000E0E00000803A
:103F400080C060FEFE1010100000000001010101A1
:103F50000000000303000000000000E0E00000801B
:103F600080C0FCFC10FEFE00000000000101010109
:103F70000000010100030300000000E0E0000080F9
:103F800080C060FEFE000000000000000101010191
:103F900000000003030000000000000000E0E0005B
:103FA000E0E000000000000000010101010101014A
:103FB000010101010101010000404040404040403A
:103FC000C0C0404040404000000000000000000031
:103FD0000707000000000000002020202020A0E0B3
:103FE000404040FEFE00000000000000020301000F
:103FF0000000000303000000002020202020A0E09B
:104000004040FEFE00FFFF00000000000203010030
:104010000000010100030300002020202020A0E078
:10402000400000FEFE00000000000000020301004E
:104030000000000303000000004040404040C0C0BA
:1040400040C0C040404040000000000000000707A2
:104050000007070000000000000000000000000052
:104060000000000000000000000101010101010149
:104070000101010101010100000000000000000039
:10408000008080FEFE00000000010101010101012D
:10409000010100010100000000000000000000001C
:1040A000000000FEFE000000000000000000000014
:1040B00000000001010000000000000000000000FE
:1040C00000000000000000000000000000000000F0
:1040D00000000000000000000000000000000000E0
:1040E000000000FEFE1010100000000000000000A4
:1040F00000000001010000000000000000000000BE
:104100000000FCFC10FEFE000000000000000000AB
:10411000000001010001010000000000000000009B
:10412000000000FEFE5050500000000000000000A3
:10413000000000010100000000000000000000007D
:104140000000FCFC50FEFE0000000000000000002B
:10415000000001010001010000000000000000005B
:10416000101010FEFE000000000000000000000023
:10417000000000010100000000000000000000102D
:104180001010FCFC00FEFE0000000000000000001B
:10419000000001010001010000000000000000001B
:1041A000505050FEFE000000000000000000000023
:1041B00000000001010000000000000000000050AD
:1041C0005050FCFC00FEFE0000000000000000005B
:1041D000000001010001010000000000000000E0FB
:1041E000E0000000000000000001010101010101E8
:1041F0000101010101010100000080C04000000038
:1042000080C060FEFE1010100000010302020301D6
:104210000100000303000000000080C04000000017
:1042200080C0FCFC10FEFE0000000103020203013E
:104230000100010100030300000080C040000000F5
:1042400080C060FEFE0000000000010302020301C6
:1042500001000003030000000000000000E0E00097
:10426000E0E0000000000000000101010101010187
:1042700001010101010101000080808080808080B7
:1042800080808080808080000000000000000000AE
:10429000070700000000000000404040404040C0D0
:1042A000808080FEFE00000000000000020201018C
:1042B000000000030300000000404040404040C0B8
:1042C0008080FEFE00FFFF000000000002020101EE
:1042D000000001010003030000404040404040C096
:1042E000800000FEFE00000000000000020201014C
:1042F0000000000303000000004040404040C0C0F8
:1043000040C0C040404040000000000000000707DF
:10431000000707000000000000000000000000008F
:104320000000000000000000000101010101010186
:104330000101010101010100000000000000000076
:10434000008080FEFE00000000010101010101016A
:104350000101000101000000000000000000000059
:10436000000000FEFE000000000000000000000051
:10437000000000010100000000000000000000003B
:10438000000000000000000000000000000000002D
:10439000000000000000000000000000000000001D
:1043A0000000000000000000000000000000040405
:1043B0000404C4FC380000000000000000000000FD
:1043C0000000000000000000000000000444643C05
:1043D0001C04447C380000000000000000000000C5
:1043E000000000000000000000000000040404645D
:1043F0007C18607C1C706000000000000000000061
:104400000000000000000000000000000000000E9E
:104410001E302020301018080000000000000000AE
:10442000000000000000000000000000307C4C2074
:104430004064343C684000000000000000000000C0
:1044400000000000000000000000000030784C6414
:10445000302476567E3C1000000000000000000072
:104460000000000000000000000000000000043C0C
:104470007C44444444400000000000000000000070
:10448000000000000000000000000000000000022A
:1044900022725A4E6420301000000000000000001C
:1044A0000000000000000000000000002074545CC8
:1044B000482404447C380000000000000000000094
:1044C0000000000000000000000000002074545CA8
:1044D000683C7C44647C5800000000000000000040
:1044E0000000000000000000000000002074545C88
:1044F000683C7C507C3C0000000000000000000094
:104500000000000000000000000000002074545C67
:104510002860701C3C6040000000000000000000AB
:104520000000000000000000000000002074545C47
:10453000683C7C545454400000000000000000001F
:104540000000000000000000000000002074545C27
:10455000287C7C647454000000000000000000000F
:104560000000000000000000000000002074545C07
:10457000682476567E3C1000000000000000000019
:10458000000000000000000000000000001C3C20B3
:104590002030181C3C30180800000000000000000B
:1045A00000000000000000000000000000003E7E4F
:1045B0005038687C3C000000000000000000000053
:1045C0000000000000000000000000007C7C305073
:1045D0007C7C301C3C6040000000000000000000BB
:1045E000000000000000000000000000000060303B
:1045F000180C1C10302060000000000000000000BB
:104600000000000000000000000000002030180C36
:104610002C38180C1C3020000000000000000000A6
:104620000000000000000000000000000000183C36
:104630006444643C380000000000000000000000FA
:104640000000000000000000000000000000040462
:104650004464341C3860400000000000000000008A
:104660000000000000000000000000000000040442
:104670004565371E3C60400000000000000000005F
:104680000000000000000000000000000000141402
:104690001414D4FC380000000000000000000000EA
:1046A0000000000000000000000000000000043CCA
:1046B0007C545454544000000000000000000000EE
:1046C0000000000000000000000000000044447CE6
:1046D0007C64745C4C40000000000000000000009E
:1046E000000000000000000000000000000008289A
:1046F0007A5E5C5C7C30000000000000000000007E
:1047000000000000000000000000000000000000A9
:104710000000000000000000000000000000000099
:104720000000000000000000000000000000040481
:104730000404C4FC38000000000000000000000079
:104740000000000000000000000000000444643C81
:104750001C04447C38000000000000000000000041
:1047600000000000000000000000000004040464D9
:104770007C18607C1C7060000000000000000000DD
:104780000000000000000000000000000000000E1B
:104790001E3020203010180800000000000000002B
:1047A000000000000000000000000000307C4C20F1
:1047B0004064343C6840000000000000000000003D
:1047C00000000000000000000000000030784C6491
:1047D000302476567E3C10000000000000000000EF
:1047E0000000000000000000000000000000043C89
:1047F0007C444444444000000000000000000000ED
:1048000000000000000000000000000000000002A6
:1048100022725A4E64203010000000000000000098
:104820000000000000000000000000002074545C44
:104830004C2404047C38000000000000000000004C
:104840000000000000000000000000002074545C24
:10485000683C7C44647C58000000000000000000BC
:104860000000000000000000000000002074545C04
:10487000683C7C507C3C0000000000000000000010
:104880000000000000000000000000002074545CE4
:104890002860701C3C604000000000000000000028
:1048A0000000000000000000000000002074545CC4
:1048B000683C7C545454400000000000000000009C
:1048C0000000000000000000000000002074545CA4
:1048D000287C7C647454000000000000000000008C
:1048E0000000000000000000000000002074545C84
:1048F000682476567E3C1000000000000000000096
:10490000000000000000000000000000001C3C202F
:104910002030181C3C301808000000000000000087
:1049200000000000000000000000000000003E7ECB
:104930005038687C3C0000000000000000000000CF
:104940000000000000000000000000007C7C3050EF
:104950007C7C301C3C604000000000000000000037
:1049600000000000000000000000000000006030B7
:10497000180C1C1030206000000000000000000037
:104980000000000000000000000000002030180CB3
:104990002C38180C1C302000000000000000000023
:1049A0000000000000000000000000000000183CB3
:1049B0006444643C38000000000000000000000077
:1049C00000000000000000000000000000000404DF
:1049D0004464341C38604000000000000000000007
:1049E00000000000000000000000000000000404BF
:1049F0004565371E3C6040000000000000000000DC
:104A0000000000000000000000000000000014147E
:104A10001414D4FC38000000000000000000000066
:104A20000000000000000000000000000000043C46
:104A30007C5454545440000000000000000000006A
:104A40000000000000000000000000000044447C62
:104A50007C64745C4C40000000000000000000001A
:104A60000000000000000000000000000000082816
:104A70007A5E5C5C7C3000000000000000000000FA
:104A80000000000000000000000000000000000026
:104A90000000000000000000000000000000000016
:104AA0000000000000000000000000000000000402
:104AB000040404C4FC3800000000000000000000F2
:104AC000000000000000000000000000000444643A
:104AD0003C1C04447C380000000000000000000082
:104AE00000000000000000000000000000040404BA
:104AF000647C18607C1C70600000000000000000F6
:104B00000000000000000000000000000000000E97
:104B10001E302020301018080000000000000000A7
:104B200000000000000000000000000000307C4C8D
:104B3000204064343C684000000000000000000099
:104B40000000000000000000000000000030784C71
:104B500064302476567E3C10000000000000000007
:104B60000000000000000000000000000000000441
:104B70003C7C44444444400000000000000000002D
:104B80000000000000000000000000000000000223
:104B900022725A4E64203010000000000000000015
:104BA000000000000000000000000000002074541D
:104BB0005C4C2404047C380000000000000000006D
:104BC00000000000000000000000000000207454FD
:104BD0005C683C7C44647C580000000000000000DD
:104BE00000000000000000000000000000207454DD
:104BF0005C683C7C507C3C00000000000000000031
:104C000000000000000000000000000000207454BC
:104C10005C2860701C3C6040000000000000000048
:104C2000000000000000000000000000002074549C
:104C30005C683C7C545454400000000000000000BC
:104C4000000000000000000000000000002074547C
:104C50005C287C7C647454000000000000000000AC
:104C6000000000000000000000000000002074545C
:104C70005C682476567E3C100000000000000000B6
:104C8000000000000000000000000000001C3C20AC
:104C90002030181C3C301808000000000000000004
:104CA0000000000000000000000000000000000004
:104CB0003E7E5038687C3C00000000000000000090
:104CC000000000000000000000000000007C7C30BC
:104CD000507C7C301C3C6040000000000000000064
:104CE0000000000000000000000000000000603034
:104CF000180C1C10302060000000000000000000B4
:104D00000000000000000000000000002030180C2F
:104D10002C38180C1C30200000000000000000009F
:104D2000000000000000000000000000000000186B
:104D30003C6444643C3800000000000000000000B7
:104D4000000000000000000000000000000000045F
:104D5000044464341C3C604000000000000000007B
:104D6000000000000000000000000000000000043F
:104D7000044565371E3C6040000000000000000054
:104D8000000000000000000000000000000000140F
:104D9000141414D4FC3800000000000000000000CF
:104DA00000000000000000000000000000000004FF
:104DB0003C7C5454545440000000000000000000AB
:104DC000000000000000000000000000000044445B
:104DD0007C7C64745C4C400000000000000000001B
:104DE00000000000000000000000000000000008BB
:104DF000287A5E5C5C7C300000000000000000004F
:104E000000000000000000000000000000000000A2
:104E10000000000000000000000000000000000092
:104E20000000000000000000000000000404040472
:104E300004647C1800000000000000000000000076
:104E40000000000000000000000000000444643C7A
:104E50001C04447C3800000000000000000000003A
:104E600000000000000000000000040404647C183E
:104E700060781C346040000000000000000000006A
:104E8000000000000000000000000000001E3E20A6
:104E90002020301010180800000000000000000062
:104EA0000000000000000000000000307C4C60208A
:104EB0004464347C48000000000000000000000052
:104EC0000000000000000000000000307C4C40208A
:104ED000687C5C7C380000000000000000000000DE
:104EE000000000000000000000000000043C7C44C2
:104EF00044444440000000000000000000000000A6
:104F00000000000000000000000000000004247405
:104F1000545C682030100000000000000000000019
:104F2000000000000000000000002074545C486095
:104F30002808487830000000000000000000000051
:104F4000000000000000000000002074545C68387D
:104F50007848687850000000000000000000000061
:104F6000000000000000000000002074545C683C59
:104F70007C60507838000000000000000000000055
:104F800000000000000000000000002074545C6875
:104F90002040703868400000000000000000000061
:104FA00000000000000000000000002074545C6855
:104FB0003C7C54545400000000000000000000003D
:104FC000000000000000000000002074545C482035
:104FD00078784878700000000000000000000000B1
:104FE000000000000000000000002074545C6820F5
:104FF000687C5C7C380000000000000000000000BD
:105000000000000000000000000000001C3C202008
:1050100030183C2430180800000000000000000098
:105020000000000000000000000000003C7C603038
:1050300050507C3C00000000000000000000000018
:10504000000000000000000000007C7C30507878F8
:1050500040703868400000000000000000000000C0
:105060000000000000000000000000006030180C8C
:105070001C10302060000000000000000000000054
:10508000000000000000000000004060301C3C6098
:1050900060381C7460000000000000000000000088
:1050A0000000000000000000000000000030784C0C
:1050B000444C7830000000000000000000000000B8
:1050C0000000000000000000000000000444643400
:1050D0001C386040000000000000000000000000DC
:1050E00000000000000000000000000004456537DB
:1050F0001E3C6040000000000000000000000000B6
:105100000000000000000000000000000020242437
:1051100024ACE8783000000000000000000000002F
:10512000000000000000000000000000043C7C546F
:1051300054545454400000000000000000000000DF
:10514000000000000000000000000000447C7C44DF
:10515000647454040000000000000000000000001F
:1051600000000000000000000000000008287A5A3B
:105170004E7C380000000000115C145D2143115486
:10518000521C202A7047155C12F80CC04CEA050529
:105190001554521C202A70473088FBF7F3BB0720B8
:1051A000FBF709BCDFF8EC3CF0B50D460FF29401BB
:1051B00001EB02110446DA8BC1B000209B8B475CE7
:1051C0004FF0000CFE0700AE06EB40164CBF26F871
:1051D0001C3026F81C207F100CF1010CBCF1080FCC
:1051E000F0DB401C0828EADB002670184FF0000CAA
:1051F000077A00A85FEAC77E00EB461000EB4C0080
:105200000CF1010C4CBF038202827F10BCF1080F2D
:10521000EFDB761C082EE8DB0027002600A87101D2
:1052200000EB47000A5A7919301989B280B2761C0E
:10523000FBF70FFC082EF1DB7F1C102FEDDB41B0DC
:10524000F0BD0000000000000000000000000000B1
:1052500000000000F0082808082808F00708090BDB
:105260000B090807F0F8D8F8F8D8F8F0070F0E0C7B
:105270000C0E0F0700F0F8F8F0F8F8F00000030744
:105280000F0703000080C0E0F0E0C08000000103D1
:105290000703010000C0C0F8F8F8C0C000030B0904
:1052A0000F090B0300C0E0F0F8F0E0C000010B0BA9
:1052B0000F0B0B01000080C0C08000000000010344
:1052C00003010000FEFE7E3E3E7EFEFE7F7F7E7C72
:1052D0007C7E7F7F00C060202060C0000003060449
:1052E00004060300FE3E9EDEDE9E3EFE7F7C797B52
:1052F0007B797C7F000080C0E8B8187800070F0831
:10530000080F07000070F88888F870000002020F8C
:105310000F020200000000F8F83060C000060F0F16
:10532000070000000000F8F82828F8F80007070335
:10533000000E0F070010C0E028E0C01000040103B9
:105340000A03010400F8F0E0C0C08080000F0703EA
:1053500001010000008080C0C0E0F0F80000000102
:105360000103070F002030F8F83020000002060F7C
:105370000F0602000070F8F800F8F87000000D0D3C
:10538000000D0D0070F888F8F808F8F80000000F1C
:105390000F000F0F00D8FC2464CC880000081913FC
:1053A000121F0D000000000000000000000F0F0F92
:1053B0000F0F0F0F002030F8F83020000012161FDA
:1053C0001F161200002030F8F83020000000000FF7
:1053D0000F000000000000F8F80000000002060FB7
:1053E0000F0602000080808080E0C0800000000086
:1053F000000301000080C0E0808080800000010385
:105400000000000000C0C000000000000003030214
:105410000202020280C0E08080E0C0800001030040
:1054200000030100000000C0F8C00000000C0F0FD6
:105430000F0F0F0C001878F8F8F87818000000012A
:105440000F0100000000000000000000000000004C
:1054500000000000000070F8F87000000000000D6F
:105460000D0000000020381820381800000000004F
:10547000000000000020F8F820F8F82000020F0FCC
:10548000020F0F020060F09C9CB020000002061C7E
:105490001C07030000207070A0C0602000040603F9
:1054A000050E0E040000B0F8C878B08000070F08A1
:1054B00009070F0800002038180000000000000055
:1054C000000000000000E0F01808000000000307E2
:1054D0000C08000000000818F0E000000000080CB4
:1054E000070300000080A0E0C0E0A08000000203ED
:1054F00001030200008080E0E080800000000003E3
:105500000300000000000000000000000000101C6C
:105510000C0000000080808080808000000000007F
:105520000000000000000000000000000000000C6F
:105530000C0000000000000080C06030000C06037A
:105540000100000000F0F80808F8F00000070F085C
:10555000080F0700000010F8F80000000000080F16
:105560000F0800000010180888F87000000C0E0BDF
:105570000908080000080848E8B8180000040C08EA
:10558000080F070000C0E030F8F800000003030235
:105590000F0F02000078784848C8880000040C0803
:1055A000080F070000E0F0988888000000070F0847
:1055B000080F070000080888C878380000000F0F9F
:1055C000000000000070F88888F8700000070F08DD
:1055D000080F07000070F88888F8F000000008083D
:1055E0000C0703000000003030000000000000063F
:1055F0000600000000000030300000000000080E2F
:10560000060000000080C0603018080000000103A0
:10561000060C0800004040404040400000020202EA
:10562000020202000008183060C0800000080C066A
:105630000301000000101888C87830000000000D39
:105640000D00000000F0F808C8F8F00000070F088F
:105650000B0B010000E0F01818F0E000000F0F0144
:10566000010F0F0000F8F88888F87000000F0F088D
:10567000080F070000F0F8080818100000070F08CE
:10568000080C040000F8F80808F8F000000F0F08F4
:10569000080F070000F8F88888880800000F0F0836
:1056A0000808080000F8F88888880800000F0F0034
:1056B0000000000000F0F8080808080000070F08C4
:1056C000090F0F0000F8F88080F8F800000F0F00B5
:1056D000000F0F00000008F8F80800000000080F95
:1056E0000F0800000000000000F8F80000040C089B
:1056F000080F070000F8F880E0781800000F0F008E
:10570000030F0C0000F8F80000000000000F0F0865
:105710000808080000F8F830E030F8F8000F0F0033
:1057200000000F0F00F8F8E080F8F800000F0F00FD
:10573000030F0F0000F0F80808F8F00000070F084A
:10574000080F070000F8F88888F87000000F0F00B5
:105750000000000000F0F80808F8F00000070F084B
:10576000081F170000F8F88888F87000000F0F0174
:10577000030E0C000070F8888898100000040C08D4
:10578000080F0700000808F8F80808000000000FDC
:105790000F00000000F8F80000F8F80000070F08FC
:1057A000080F070000F8F80000F8F8000003070CE5
:1057B0000C07030000F8F8008000F8F8000F0F064F
:1057C00003060F0F003878C0C0783800000E0F01B4
:1057D000010F0E000078F88080F878000000000FBC
:1057E0000F00000000080888C8783800000E0F0974
:1057F000080808000000F8F80808000000000F0F73
:1058000008080000003060C08000000000000000B8
:105810000103060C00000808F8F800000000080862
:105820000F0F00000010180C0C18100000000000F2
:1058300000000000000000000000000020202020E8
:105840002020202000000018382000000000000068
:10585000000000000000404040C0800000060F092A
:10586000090F0F0000F8F84040C08000000F0F083B
:10587000080F07000080C04040C0800000070F08EC
:10588000080C04000080C04040F8F80000070F0832
:10589000080F0F000080C04040C0800000070F0AC2
:1058A0000A0B0B000080F0F88898100000000F0F22
:1058B000000000000080C04040C0800000074F484A
:1058C000487F3F0000F8F84040C08000000F0F0004
:1058D000000F0F00000040D8D80000000000080FA3
:1058E0000F0800000000000040D8D8000000103071
:1058F000203F1F0000F8F80080C04000000F0F0399
:10590000070C0800000008F8F80000000000080F6D
:105910000F08000000C0C0C080C0C080000F0F0092
:1059200007000F0F00C0C04040C08000000F0F00F4
:10593000000F0F000080C04040C0800000070F082B
:10594000080F070000C0C04040C08000007F7F08F3
:10595000080F07000080C04040C0C00000070F08CB
:10596000087F7F0000C0C080C0404000000F0F01D2
:10597000000000000080C0404040400000080909CD
:10598000090F06000040F8F8404000000000070F33
:10599000080C040000C0C00000C0C00000070F08D1
:1059A000080F0F0000C0C00000C0C0000003070CBB
:1059B0000C07030000C0C0000000C0C000070F0CAF
:1059C000070C0F070040C0800080C04000080C0793
:1059D00003070C0800C0C00000C0C00000074F480B
:1059E000487F3F0000404040C0C04000000C0E0B0C
:1059F00009080800000080F078080800000000078F
:105A00000F08080000000078780000000000000F78
:105A10000F0000000000080878F08000000008086F
:105A20000F0700000080C040C080C04000000000A0
:105A30000000000000006090906000000000000086
:105A400000000000F8B504460D46AAB10A2A13DA90
:105A500008F02FFB07E008F019FB08F026FBFBF726
:105A6000A3F808F01EFB3EB108F014FBF3D1012EA1
:105A7000F1D007F12000F0E7F1BD38B50D00044684
:105A80000BD0092D09DA08F01DFBB4BF30303730D8
:105A9000C0B2FBF789F8002DF5D131BD10EE100A28
:105AA00000270EF09FB82DE9F84300F044F82DEDE3
:105AB000028BB0EE408A18BF002F33D0F6B20A2E08
:105AC00030DA00F03DF8FBF76FF808F004FB00F067
:105AD0002DF81CBFB2EE040A28EE008AF7D118EEAA
