:020000040800F2
:100000005010002055180008CB120008FB12000801
:1000100000000000000000000000000000000000E0
:100020000000000000000000000000002F16000883
:1000300000000000000000007F1600087317000891
:10004000A7170008331800083F18000871180008A7
:100050007318000875180008771800087918000848
:100060007B1800087D1800087F1800088118000818
:1000700083180008850C00088518000887180008F8
:10008000891800088B180008000000008D1800086F
:100090008F18000891180008931800089518000898
:1000A00097180008991800089B1800089D18000868
:1000B0009F18000800000000A118000800000000C0
:1000C00000BF704730B481B04348112101604349FB
:1000D0000868434A02430A60022208681040FCD0C4
:1000E000002048600C234C681C40FCD10C68544D27
:1000F00025400D60A024E4024C60C8620C68D50560
:1001000025430D6014060D682540FCD04C68224341
:100110004A604A681A40082AFBD10A6880231B03F8
:1001200013430B60524A4A61524ACA61524A8A6179
:100130009021C905514A0A60514A8A6040228A8248
:1001400050495C4A0A605C4A8A60C7228A825B49DD
:100150005B4A0A608A605B4910220A608A60888272
:100160005948AA21C90101608160D021818201B072
:1001700030BC704700282DD000BF00BF00BF00BFBB
:1001800000BF00BF00BF00BF00BF00BF00BF00BF77
:1001900000BF00BF00BF00BF00BF00BF00BF00BF67
:1001A00000BF00BF00BF00BF00BF00BF00BF00BF57
:1001B00000BF00BF00BF00BF00BF00BF00BF00BF47
:1001C00000BF00BF00BF00BF00BF00BF00BF00BF37
:1001D000401ED1D1704700000020024000100240B4
:1001E0000100010010B539480168B022D2030A436A
:1001F000026032483249016081603248102101605A
:100200008160002181823048AA21C901016081609A
:10021000D0218182382000F015F80C2000F012F86F
:10022000062000F00FF8012000F00CF8FA24A400DA
:100230002000FFF79FFF2000FFF79CFF10BD00008C
:10024000FFFFFFFE30B581B0214C042525822149F6
:1002500020220A802049088000BF25600120FFF786
:1002600089FF25823220FFF785FF01B030BD0000F5
:1002700001005E0013494030015A4700FF136A290C
:100280000000030F0004004830B581B0104C042575
:100290002582124920220A600F49088000BF25608C
:1002A0000120FFF767FF25823220FFF763FF01B0CF
:1002B00030BD0000955A00A84005005400080048D1
:1002C00055555555000C00480014004814100240C4
:1002D000180C004828140048140800481814004856
:1002E000F2B51600694609788D1969460978002922
:1002F00062D0002E60D0EDB20A2D5DD20124691EBD
:10030000C9B2002921D12D4D290000F06BFE761EC7
:10031000FAD100F0C1FE0022294B00F0D6FE00F019
:10032000BDFF060000270125002C45D0300021002C
:1003300000F0CCFFC0B20100394323D169460978EF
:10034000EDB28D421ED020301EE0A20014196400D0
:10035000491EC9B20029D6D0A20014196400491E52
:10036000C9B20029CFD0A20014196400491EC9B235
:100370000029C8D0A20014196400491EC9B200297E
:10038000C1D0E2E701273030C0B2FFF77DFF300077
:10039000210000F09BFF0E0020000A2100F096FFD4
:1003A000040068460078EDB2854202D12E20FFF7A6
:1003B0006BFF6D1C002CB9D101B0F0BD00002041D5
:1003C0000000E03FF0B581B0C24801689022D2033E
:1003D0000A430260C04FC1483860B860C04CAA20D0
:1003E000C0012060A060D020A08280202085FA205B
:1003F0008000FFF7BFFE8020A0617825FA208000F2
:10040000FFF7B8FE6D1EF9D1602525852E20B88234
:1004100010262685A661A561B248A0618820B88211
:100420002685A661A56125852920B8822685A66135
:10043000A561AC48A0618F20B8822685A661A56120
:1004400025852B20B8822685A661A561A548A061D7
:100450000420B8822685A661A5612585E420B8829E
:100460002685A661A5619F48A061BE822685A661FA
:10047000A5612585E520B8822685A661A5619948F4
:10048000A061BE822685A661A5612585E620B88289
:100490002685A661A5619348A061BE822685A661D6
:1004A000A5612585E720B8822685A661A5618D48CE
:1004B000A061BE822685A661A5612585EA20B88255
:1004C0002685A661A5618748A0610020B88226859F
:1004D000A661A5612585EB20B8822685A661A56168
:1004E0008048A0610020B8822685A661A561258587
:1004F000EC20B8822685A661A5617A48A0613C20DF
:10050000B8822685A661A5612585ED20B88226855D
:10051000A661A5617348A061C720B8822685A6613F
:10052000A5612585E820B8822685A661A5616D486C
:10053000A0617020B8822685A661A561258540202E
:10054000B8822685A661A5616648A0610120B882AF
:100550002685A661A56125854120B8822685A661EC
:10056000A5616048A0610720B8822685A661A561C3
:1005700025854220B8822685A661A5615948A061DB
:100580000720B8822685A661A56125854320B8820B
:100590002685A661A5615348A0611E20B8822685E4
:1005A000A661A56125854420B8822685A661A5613E
:1005B0004C48A0611C20B8822685A661A5612585CE
:1005C0004520B8822685A661A5614648A0613E20E7
:1005D000B8822685A661A56125854621B982268532
:1005E000A661A5613F49A1611B21B9822685A6614B
:1005F000A56125854721B9822685A661A56139496E
:10060000A1616B21B9822685A661A5612585482156
:10061000B9822685A661A5613249A1610721B98207
:100620002685A661A56125854921B9822685A66111
:10063000A5612C49A1611321B9822685A661A56116
:1006400025854A21B9822685A661A5612549A16132
:100650001A21B9822685A661A56125854B22BA8219
:100660002685A661A5611F4AA2611922BA82268544
:10067000A661A56125854C22BA822685A661A56161
:10068000184AA2611622BA822685A661A56125852F
:100690005022BA822685A661A561124AA261012272
:1006A000BA822685A661A56125855122BA82268552
:1006B000A661A5610B4AA2612322BA822685A661A2
:1006C000A56125855222BA822685A661A561054AC3
:1006D0000AE000BF14100240000800485555555567
:1006E0000014004820004000A2612122BA82268521
:1006F000A661A56125855322BA822685A661A561DA
:10070000CE4AA2613822BA822685A661A5612585D6
:100710005422BA822685A661A561C84AA261382200
:10072000BA822685A661A56125855522BA822685CD
:10073000A661A561C14AA261B8822685A661A561AC
:1007400025855620B8822685A661A561A261142060
:10075000B8822685A661A56125855720B8822685A1
:10076000A661A561A2616420B8822685A661A56103
:1007700025855820B8822685A661A561A261092237
:10078000BA822685A661A56125855922BA82268569
:10079000A661A561A94AA2610622BA822685A66140
:1007A000A56125855A22BA822685A661A561A34A3C
:1007B000A2610522BA822685A661A56125855B22F4
:1007C000BA822685A661A5619C4AA2610622BA82E8
:1007D0002685A661A56125855C22BA822685A6614B
:1007E000A561964AA2611822BA822685A661A561F2
:1007F00025855D23BB822685A661A5618F4BA361FC
:10080000CC23BB822685A661A56125851B23BB82DF
:100810002685A661A561894BA361B9822685A6615B
:10082000A5612585B9822685A661A561A3610121FF
:10083000B9822685A661A56125852421B9822685F0
:10084000A661A561A3617021B9822685A661A56113
:1008500025852521B9822685A661A561A361B88277
:100860002685A661A56125852320B8822685A661F7
:10087000A561A3617820B8822685A661A56125853A
:10088000BA822685A661A561A3613620B882268535
:10089000A661A56125851920B8822685A661A56176
:1008A000A3610120B8822685A661A5612585B8824D
:1008B0002685A661A561A3610020B8822685A66170
:1008C000A56125851F20B8822685A661A561A36143
:1008D0008820B8822685A661A561FA208000FFF7EE
:1008E00049FCFA208000FFF745FCFA208000FFF762
:1008F00041FCFA208000FFF73DFCFA208000FFF762
:1009000039FC25851F20B8822685A661A5614B4844
:10091000A0618020B8822685A661A561FA208000AA
:10092000FFF728FCFA208000FFF724FCFA20800063
:10093000FFF720FCFA208000FFF71CFCFA20800063
:10094000FFF718FC25851F20B8822685A661A561C2
:100950003A48A0619020B8822685A661A561FA2058
:100960008000FFF707FCFA208000FFF703FCFA2065
:100970008000FFF7FFFBFA208000FFF7FBFBFA2067
:100980008000FFF7F7FB25851F20B8822685A6612A
:10099000A5612A48A061D420B8822685A661A561F8
:1009A000FA208000FFF7E6FBFA208000FFF7E2FB69
:1009B000FA208000FFF7DEFBFA208000FFF7DAFB69
:1009C000FA208000FFF7D6FB25851720B882268500
:1009D000A661A5611948A0610520B8822685A66197
:1009E000A56125853620B8822685A661A5611348B4
:1009F000A0610820B8822685A661A56125852820EA
:100A0000B8822685A661A5610C48A0613820B8820D
:100A10002685A661A56128200090FA208000FFF7B6
:100A2000A9FB0098401E0090F7D125852820B882A8
:100A30002685A661A561014802E000BF20004000B4
:100A4000A0613C20B8822685A661A5612585162077
:100A5000B8822685A661A5618648A0616820B88213
:100A60002685A661A56125850220B8822685A66116
:100A7000A5618048A0610020B8822685A661A56195
:100A800025850320B8822685A661A5617948A061E5
:100A90000020B8822685A661A56125850420B8823C
:100AA0002685A661A5617348A0610120B8822685CC
:100AB000A661A56125850520B8822685A661A56168
:100AC0006C48A0613F20B8822685A661A561258576
:100AD0000620B8822685A661A5616648A06100202F
:100AE000B8822685A661A56125850720B88226855E
:100AF000A661A5615F48A0610020B8822685A66135
:100B0000A56125850820B8822685A661A56159487A
:100B1000A0610020B8822685A661A56125850920EF
:100B2000B8822685A661A5615248A061EF20B882EF
:100B30002685A661A56100F002F801B0F0BDF0B510
:100B400081B00021002000F014F8A02040006021B6
:100B500010264A4A484B474CF0251C600027178056
:100B60001E821E6019606D1EF7D1401EF4D101B0C7
:100B7000F0BDF0B481B0424A1278502A37D1F02843
:100B800075D2A0225200914271D260223A4B1A8251
:100B90003A4C0225258010251D821D601A60354EB5
:100BA0001E60002727801D821D601A601A8203279D
:100BB00027801D821D601A601E6020801D821D60BE
:100BC0001A601A82062020801D821D601A601E6035
:100BD000080A20801D821D601A601A82072020806A
:100BE0001D821D601A601E60C8B2208036E0A022FF
:100BF000520090423BD2F02939D260221E4B1A8219
:100C00001E4C0225258010251D821D601A60194E7C
:100C10001E60070A27801D821D601A601A82032742
:100C200027801D821D601A601E60C0B220801D8258
:100C30001D601A601A82062020801D821D601A60C5
:100C40001E60002020801D821D601A601A8207200D
:100C500020801D821D601A601E6021801D821D6023
:100C60001A601A82222121801D821D601A6001B043
:100C7000F0BC7047200040001814004814080048D9
:100C80000000002007488178012906D106498268C2
:100C90000A6300220A80827070478178491C817043
:100CA000704700001C000020102C014082B0FFF7AC
:100CB00009FA32263224FA25AD002800FFF75AFA45
:100CC000641EFAD1FFF78EFAFFF77CFB9024E4054F
:100CD00080204001A0612800FFF74CFA761EFAD16F
:100CE0008020400120852068FF2101432160A94820
:100CF0004169420D0A43426101688022D2010A43E0
:100D00000260C16A820D0A43C262A34D0121A9603B
:100D1000A249E02252040A60052169610027EF60C0
:100D2000802212062A6122689D4B134023602268AC
:100D300080231B04134323606A0C636A13436362BA
:100D40004369C40C1C43446196480785A34BC362A6
:100D50005B080364476201238381D823DB0183831B
:100D6000830C0384904B94001C8001808F480168A1
:100D70000A4302608E4C8020FFF764FA02E0FFF71E
:100D800083FA641C20780028F9D18A4CC020FFF730
:100D900059FA02E0FFF778FA641C20780028F9D1AC
:100DA0000426AE62844CE76067700FE0A8683043A9
:100DB000A86028683040FCD0E068296C4018E060EA
:100DC0003220FFF7D7F96078401C607060781028F7
:100DD000ECD3E0680009E060E06800F09BFA00F006
:100DE0005BF976A20CCA00F0A4FA79A20CCA00F052
:100DF000A0FA0022784B00F09CFA00F05CFB6061E6
:100E00000820A862276167700FE0A8683043A860D7
:100E100028683040FCD02069296C401820613220BD
:100E2000FFF7A8F96078401C607060781028ECD358
:100E300020690009206120696249401AA080A05FF2
:100E400000F05CFA00F028F95FA20CCA00F071FA19
:100E50005FA20CCA00F06DFA00225F4B00F069FA45
:100E600000F029FBA0616069A16900F0BBF8E061B6
:100E70002078002803D1A760012020705EE0207850
:100E800001280DD1A068401CA060A06896214901EE
:100E9000884253DB02202070FA200001A0604DE060
:100EA000207802284AD16069A16900F09BF8E061CE
:100EB000E069616A00F063FB2062E0696062206AB9
:100EC000002100F0B5FB16D26069E16A00F057FB23
:100ED000A0626069E062A06A002100F0A9FB02D272
:100EE000A068401F05E0A06A00F0B6FB1DD2A06814
:100EF000401DA06019E0206A00F0AEFB1ED26069C0
:100F0000E16A00F03CFBA0626069E062A06A002137
:100F100000F08EFB02D2A068401D05E0A06A00F040
:100F20009BFB02D2A068401FA060A0682B498842AA
:100F300000DBA160A068012800DAA7608220FFF72B
:100F400081F9022202216069FFF7CAF98B20FFF7BD
:100F500079F903220121A069FFF7C2F9C220FFF746
:100F600071F902220121E069FFF7BAF9CC20FFF7FD
:100F700069F901210091A06800F082FB0022184B62
:100F800000F096FB00F097FA02220099FFF7A8F90B
:100F900006E7000004100240002401400827014039
:100FA000FFFF3FFF002C0140442C014000E100E026
:100FB000F4170008001800081C0000206D3997E2A3
:100FC000AAAA3140EA0B000091ED7C3F359E154006
:100FD0006666666666660A400000303FBF12000023
:100FE00000BFB24030B405004D400122D207154089
:100FF0004B180418240E30D01B0E34D0FF2C36D0E2
:10100000FF2B3CD0E4180002090210431143000AF0
:10101000090A9446C2B24A43000AC3B24B43000ACB
:101020004843110A5B18190A12061B0C1A43120ACC
:10103000091801D44918641E080A7F3C23DBFE2CE2
:1010400008DAE405090611436346994160412843E3
:1010500030BC7047FF20C005F9E728001B0EFF2BAE
:10106000F6D1D043F4E72800FF2CF1D1F9E7400294
:10107000F7D1FF2B01D14902F3D1E005E7E7D8050D
:101080004902E4D0EDE743020020641CDFD15B128B
:101090009B1CDCD9D805DAE7012212060118CA42E6
:1010A0000AD28A420DD83822120609098918C20FBD
:1010B000D20711434007704700D04908090901438E
:1010C00001E0C10FC90700207047F0B40125ED070A
:1010D0000F005F404FD48B4200D1824205D9844635
:1010E000100062468C4619006346DF184C18640DE8
:1010F0007F0D3AD0661C760537D0E61B352E34DCE2
:10110000DB022B43DB0A0C0DC9022943C912202E36
:101110000DDB1700203E06D01F00F741F3405F4073
:101120000026012A7741C01871410DD217E017003F
:10113000F741F2405740F3415A40B340F3405A4020
:101140000026801859410AD3A21C52050FD0C207AD
:10115000012F724117004008CB0718434908641C4F
:1011600024054208AF4170416141F0BC7047641CE6
:1011700021050020F9E76B400AE06B40ABE7F7423E
:10118000F3D1E943F1E72442EFD100200021ECE75D
:101190000C00871A9C4105D2C01BA141D2196341A2
:1011A00069406B40AE0ADF184C18F442E7D2640D78
:1011B0007F0DE8D0E61B362ED7DCDB022B43DB0AA3
:1011C000A4460C0DC9022943C90A012E28DC04D10A
:1011D000D6075208DF073A435B08EF0A7642904190
:1011E000994114D039423BD1B61940414941761C4E
:1011F000394204D1761C001849413942FAD0B9432A
:101200006746B74208D9A41B24052143ADE7004235
:10121000EAD13642E8D1A8E7E40AE1070020A4E7D2
:10122000202E0BDD203E1F00F340F7415F40012AD6
:10123000002257417E42984191410BE01700F7414F
:10124000F2405740F3415A40B340F3405A407E4287
:10125000904199410A0303D2641EB61940414941A5
:101260000027641E24054208AE4178416141F0BC6C
:10127000704738B4012100220368001D002B0BD0F9
:101280000468001D0C4202D04D466D1E6419226098
:10129000241D1B1FF0D0FAE732BC70474A1812D247
:1012A000400DC90208430121C9070843520D4021DE
:1012B0000901521A521C06D452421F3201D4D040A6
:1012C0007047C017704700207047FEE7094210D0F2
:1012D00088420BD30122002300185B418B4200D3CC
:1012E0005B1A5241F8D3190010007047010000202A
:1012F000704708B500F03EFA08BDFEE79D210200E8
:101300000AD5F446524200F007F80122D2071043F2
:10131000604700009D2102000AD002D4491E9218A5
:10132000FCD5C905100A1206524100D3012A4841D2
:101330007047F0B50E005E400125ED072E40B44623
:10134000AE0ADF184C18F44208D2F7420ED2640DF0
:1013500001D07F0D12D100206146F0BD05D1F742CA
:1013600001D87F0D05D10020C143F0BDFBD1640D34
:10137000F9D00020C143490549088FE0E419C902AA
:10138000DB0229432B43DB0A460DC00231438E4664
:1013900030B487B295B27D432E0CADB2140C7C43B1
:1013A000A419260C240425439CB27C43A419190CCF
:1013B0007943270CC919A4B20F043C43090C000C53
:1013C00097B247432E0CBE193543ADB2170C4743B5
:1013D000360CBF19A6B2BF193E043543240C3E0C8F
:1013E00036199FB24743BF19BCB23E0C89191F0C76
:1013F00047437F183E043443390C704680B297B29D
:1014000047432E0CBE193543ADB2170C4743360C7B
:10141000BF19A6B2BF193E043543240C3E0C361941
:101420009FB24743BF19BCB23E0C89191F0C4743FA
:101430007F183E043443390C77463F0C90B2784312
:101440002E0C80190604ADB22E43050CA0B22D1847
:10145000120C7A435019020C80B2240CA4189AB2D0
:101460007A43121914042043120C89181B0C7B4375
:10147000C91830BCEF0A394203D1B619404149417D
:10148000641E6F12BF0DE41B0BDBFF19BC4211DAA7
:10149000240500274208AE41784161416646314348
:1014A000F0BD641C05D1401C6141CF0201D3490845
:1014B000F4E750E75DE7012252054B18DA4201D903
:1014C000581570475B0D0722D2019B1A10D9FF2BCC
:1014D0001DD2DB050122D2070A4013430903020D86
:1014E0001143490AC200524100D9491CC81870472B
:1014F0000AD1800A0A0302435212921C04D9D3076C
:101500000B40D00518437047C80FC0077047C80F7D
:101510000002FF30C0057047431A01D2C01AC91833
:1015200030B44B180418240E1B0E22D0FF2C20D0F0
:10153000E31A182B1DDC09021143C40D641E0002BE
:10154000104394461925ED1A0A00AA40D9404518BF
:1015500001D36D08A41CE405D209280A2D062A43EC
:101560006546AA41604103181B0EFF2B01D3C00D35
:10157000C00530BC7047514006E05140CCE7012225
:10158000D20703004B40F8D4431A03D2C01AC9183B
:101590005040514030B44B18090211430418240E36
:1015A0001B0E40D0FF2C3AD025009D410BD31ED8F6
:1015B000C50D4002401A0BD3ED050100400AC905D4
:1015C00091416841D5E7C50D40024918401AD0D075
:1015D00001214008491C0018FCD58C4204D36D1A27
:1015E000000AED054019C4E7E8051040C1E7182DD1
:1015F000BFDCAC1C0D00E140E5414D40012D4941EF
:10160000C40D00021043451A01D46D199543641EA0
:10161000E405280A2D069541604130BC7047FF2B38
:10162000A7D1D843A5E72442A3D10020A1E7FEE734
:101630000CB4012212060318DA4207D84B18DA421A
:1016400004D802000A43921802D281420CBC7047AF
:10165000FCD088420CBC70470CB40122120603185F
:10166000DA4207D84B18DA4204D802000A4392182B
:1016700002D288420CBC7047FCD08142FAE7FEE7F8
:10168000010007D5F446404200F004F80122D207D9
:101690001143604742221201D21E004207D002D4F9
:1016A000521E0018FCD5C10A400512058918704762
:1016B000F0B40E005E400125ED072E40B446AE0AA0
:1016C000DF184C18F4423BD2F74241D2640D43D0AC
:1016D0007F0D38D0E41BC902DB0229432B43CF0A1C
:1016E000DB0A0600B61A9F4104D2641EB6197F4178
:1016F000B6185F416812800D24180018844222DA5F
:10170000E80C0021B6197F41B61A9F4102D2B618E3
:101710005F413F1C40414941F4D3241C21DD240595
:10172000B6197F41B61A9F4105D33743C6073743E1
:101730000026012F7041614166463143F0BC70477D
:10174000FCD1F74205D20020C14349054908F3E71F
:1017500004D00020C143F1E77F0DFAD0002061469C
:10176000ECE72442FAD1401C61410F03F6D300207C
:10177000E2E7FEE7704738B401210268001D002A45
:101780000FD00368C318446808300C4202D04D469D
:101790006D1E64191D6825601B1D241D121FECD0D1
:1017A000F8E732BC7047FEE710B5074979441831B5
:1017B000064C7C44163404E0081D0A6889188847E2
:1017C0000100A142F8D110BD08000000280000006F
:1017D000A3FAFFFF300000001C0000200000000002
:1017E00097FFFFFF1C000000BC000000000000206D
:1017F00000000000563D20202020202020493D00F0
:10180000503D2020202020647574793D00000000A8
:1018100000F009F8002801D0FFF7C6FF0020FFF70D
:1018200045FA00F002F80120704780B500F002F898
:1018300001BDFEE70746384600F002F8FBE7FEE789
:10184000C046C046024A11001820ABBEFBE700BFED
:10185000260002000148804701480047C1000008F7
:1018600065180008C046C046C046C046FFF7D0FF16
:10187000FEE7FEE7FEE7FEE7FEE7FEE7FEE7FEE740
:10188000FEE7FEE7FEE7FEE7FEE7FEE7FEE7FEE730
:10189000FEE7FEE7FEE7FEE7FEE7FEE7FEE7FEE720
:1018A000FEE700004C281E000000000000000000C1
:1018B0000000000000000000000000000000000028
:040000050800186572
:00000001FF
