:020000040800F2
:10000000600600200D020008B9030008650300081F
:10001000B5030008C7020008390500080000000009
:10002000000000000000000000000000DD030008E8
:10003000CB02000800000000BB030008CD0400084C
:1000400027020008270200082702000827020008EC
:1000500027020008270200082702000827020008DC
:1000600027020008270200082702000827020008CC
:1000700027020008270200082702000827020008BC
:1000800027020008270200082702000827020008AC
:10009000270200082702000827020008270200089C
:1000A000270200082702000827020008270200088C
:1000B000270200082702000827020008270200087C
:1000C000270200082702000827020008270200086C
:1000D000270200082702000827020008270200085C
:1000E000270200082702000827020008270200084C
:1000F000270200082702000827020008270200083C
:10010000270200082702000827020008270200082B
:10011000270200082702000827020008270200081B
:10012000270200082702000827020008270200080B
:1001300027020008270200082702000827020008FB
:1001400027020008270200082702000827020008EB
:1001500027020008270200082702000827020008DB
:1001600027020008270200082702000827020008CB
:1001700027020008270200082702000827020008BB
:10018000270200082702000800F002F800F02EF80D
:100190000AA090E8000C82448344AAF10107DA45E2
:1001A00001D100F023F8AFF2090EBAE80F0013F006
:1001B000010F18BFFB1A43F00103184700040000A9
:1001C000100400000023002400250026103A28BF58
:1001D00078C1FBD8520728BF30C148BF0B607047B9
:1001E0001FB500F0E5F91FBD10B510BD00F031F8E6
:1001F0001146FFF7F5FF00F0AFF900F04FF803B438
:10020000FFF7F2FF03BC00F057F8000009488047F1
:1002100009480047FEE7FEE7FEE7FEE7FEE7FEE7E8
:10022000FEE7FEE7FEE7FEE704480549054A064B00
:1002300070470000D1040008890100086000002018
:1002400060060020600200206002002070477047B6
:100250007047754600F02CF8AE46050069465346D7
:1002600020F00700854618B020B5FFF7DDFFBDE898
:1002700020404FF000064FF000074FF000084FF00D
:10028000000B21F00701AC46ACE8C009ACE8C0099E
:10029000ACE8C009ACE8C0098D46704710B504460B
:1002A000AFF300802046BDE81040FFF7A8BF000074
:1002B000004870470000002001491820ABBEFEE74F
:1002C00026000200704700BFFEE77047F0B50A46FF
:1002D00000210023002400BF3DE0012505FA01F3C1
:1002E000156805EA03049C4234D105684F000326D3
:1002F000BE40B543056015794E00B54006683543EC
:1003000005601579012D02D01579022D16D1856869
:100310004F000326BE40B543856055794E00B54079
:10032000866835438560456801268E40B543456043
:10033000456896798E40B6B235434560C5684F0032
:100340000326BE40B543C560D5794E00B540C668AA
:100350003543C560491C1029BFD3F0BD41837047A8
:100360000183704700BFFEE71CB50121022000F0A9
:1003700025F801208DF8040000208DF806000320E8
:100380008DF8050000208DF807004FF440400090E4
:1003900069460748FFF79AFF4FF480410448FFF78A
:1003A000DFFF4FF400410248FFF7DAFF1CBD0000F9
:1003B0000004024000BFFEE77047704729B1064ABB
:1003C00012680243044B1A6004E0034A1268824335
:1003D000014B1A607047000030380240704700003F
:1003E0000CB50020019000903448006840F4803043
:1003F0003249086000BF3148006800F400300090C6
:100400000198401C0190009818B90198B0F5A06FB0
:10041000F1D12A48006800F4003010B101200090AA
:1004200001E0002000900098012846D12348403088
:10043000006840F080502149403108602048006841
:1004400040F480401E4908601C48083000681B4981
:10045000083108600846006840F40040086008461B
:10046000006840F4A05008601648091F0860081F83
:10047000006840F08070091F086000BF0F480068E6
:1004800000F000700028F9D040F205600E490860C5
:100490000A480830006820F0030008490831086065
:1004A0000846006840F00200086000BF03480830BA
:1004B000006800F00C000828F8D10CBD003802409C
:1004C00000700040084B4007003C024070470000AD
:1004D00010B51548006840F47000134908601348CF
:1004E000006840F001001149086000200F49083100
:1004F00008600E4800680E4908400C4908600D4825
:10050000091D0860081F006820F48020091F08608A
:10051000002006490C310860FFF762FF4FF00060D1
:1005200001498039086010BD88ED00E000380240C4
:10053000FFFFF6FE1030002400BFFEE7002107E0B9
:10054000002200E0521C42F210739A42FAD3491C76
:100550008142F5D370470000FFF7BAFFFFF704FFB1
:1005600023E04FF480411148FFF7F8FE4FF47A7012
:10057000FFF7E4FF4FF480410C48FFF7F1FE4FF422
:100580007A70FFF7DBFF4FF400410848FFF7E6FE03
:100590004FF47A70FFF7D2FF4FF400410348FFF7A2
:1005A000DFFE4FF47A70FFF7C9FFDAE7000402407C
:1005B0004FF04070E1EE100A70470000CC050008D3
:0C05C0000000002060060000C4010008DC
:040000050800018965
:00000001FF
