:100000000C9446000C9466000C9466000C946600F8
:100010000C9466000C9466000C9466000C946600C8
:100020000C9466000C9466000C9466000C946600B8
:100030000C9466000C9466000C9466000C946600A8
:100040000C9466000C9466000C9466000C94660098
:100050000C9466000C9466000C9466000C94660088
:100060000C9466000C9466000C9466000C94660078
:100070000C9466000C9466000C9466000C94660068
:100080000C9466000C9466000C94660011241FBE4C
:10009000CFEFD0E1DEBFCDBF11E0A0E0B1E0E4E4FE
:1000A000FBE000E00BBF02C007900D92AE33B1073A
:1000B000D9F71BBE11E0AEE3B1E001C01D92A83438
:1000C000B107E1F70E94FA000C94A0050C9400001F
:1000D0005D9BFECF8CB980E090E008955D9BFECFE4
:1000E0008CB90895982F80919B0085FFFCCF909349
:1000F0009C0008951BBA83E88ABB18BA17BA15BAD0
:1001000014BA12BA11BA82E083B912B8109262001E
:100110008FEF809361001092650083E0809364000C
:1001200008951AB81BB886E08093950087E689B9D0
:100130001092900088E18AB90895EAE9F0E010820F
:1001400010929B0086E080939D0087E68093990043
:100150001092980088E180830895DF93CF9300D0B8
:1001600000D0CDB7DEB79C0181E090E09A8389830F
:1001700041E050E012C05C834B8305C08B819C81C1
:1001800001969C838B838B819C8188559240B4F32C
:1001900089819A8101969A83898389819A818217BC
:1001A00093074CF30F900F900F900F90CF91DF912A
:1001B0000895F8941CBE10926D000E947A001AB83F
:1001C0001BB886E08093950087E689B9109290006D
:1001D00088E18AB988E690E060E070E00E946601FC
:1001E00015BE10926A001ABE19BE17BE10927D008D
:1001F00078940895DF93CF9300D000D0CDB7DEB7C9
:100200000E94D90000D080E091E0EDB7FEB7928364
:1002100081830E94B20180E191E0EDB7FEB7928345
:1002200081830E94B2018FEF84BBAF9A85B3806354
:1002300085BBA99AAB9A0F900F9051E044E021E062
:1002400030E0809165008F5F8093650085B38527DE
:1002500085BB85B3842785BB3C832B8312C03A833F
:10026000298305C089819A8101969A83898389812E
:100270009A8188559240B4F38B819C8101969C832E
:100280008B838B819C81029754F385B3852785BB33
:1002900085B3842785BB3A83298312C03C832B8393
:1002A00005C08B819C8101969C838B838B819C8173
:1002B00088559240B4F389819A8101969A83898303
:1002C00089819A8102970CF0BCCFE8CF0F931F93DE
:1002D000CF93DF938C01EB01009731F46115710529
:1002E00019F420E030E038C081E090E06EE070E08A
:1002F0000E94A403FC019C01009771F180E88383B4
:10030000209771F0D387C28781E8838380913E0173
:1003100090913F01892B21F4F0933F01E0933E013E
:1003200001151105C9F011870087838182608383DD
:100330008091400190914101892B71F4F09341012A
:10034000E09340018091420190914301892B21F477
:10035000F0934301E0934201C901DF91CF911F91D6
:100360000F910895A0E0B0E0E8EBF1E00C9479057E
:10037000FE0135966191719180914001909141010A
:10038000AF010E94C7012096E2E00C949505ABE016
:10039000B0E0EDECF1E00C9469053C012B015A0151
:1003A000FC0117821682838181FD03C06FEF7FEF0E
:1003B000C6C19AE0892E1E010894211C311CF3014C
:1003C0002381F20123FD859123FF81912F01882351
:1003D00009F4B2C1853239F423FD859123FF81915F
:1003E0002F01853229F490E0B3010E94DF04E7CFAA
:1003F000982FFF24EE249924FFE1FF15D0F09B32C3
:1004000069F09C3228F4903259F0933291F40EC086
:100410009D3249F0903369F441E024C052E0F52A5E
:1004200084E0F82A28C098E0F92A25C0E0E1FE2AF5
:1004300022C0F7FC29C0892F80538A3070F4F6FE61
:1004400005C0989C902C1124980E15C0E89CE02CB7
:100450001124E80EF0E2FF2A0EC09E3229F4F6FCC9
:100460006BC140E4F42A07C09C3619F450E8F52A21
:1004700002C0983649F4F20123FD959123FF919132
:100480002F01992309F0B8CF892F8554833018F0B4
:100490008052833038F444E050E0A40EB51E5FE390
:1004A00059830FC0933631F0933779F0933509F0C3
:1004B00056C020C0F5018081898342E050E0A40E3F
:1004C000B51E610101E010E012C0F501C080D180CD
:1004D000F6FC03C06FEF7FEF02C0692D70E042E0D1
:1004E00050E0A40EB51EC6010E94D4048C015FE743
:1004F000F52214C0F501C080D180F6FC03C06FEF77
:100500007FEF02C0692D70E042E050E0A40EB51EFE
:10051000C6010E94C2048C0150E8F52AF3FE07C010
:100520001AC080E290E0B3010E94DF04EA948E2DAD
:1005300090E008171907A8F30EC0F601F7FC8591A3
:10054000F7FE81916F0190E0B3010E94DF04E1109A
:10055000EA94015010400115110579F7EAC094366C
:1005600011F0993669F5F7FE08C0F5012081318157
:100570004281538184E090E00AC0F501808191813D
:100580009C01442737FD4095542F82E090E0A80E4F
:10059000B91E9FE6F92257FF09C050954095309546
:1005A00021953F4F4F4F5F4FE0E8FE2ACA01B90146
:1005B000A1012AE030E00E940B05D82ED21840C0DD
:1005C000953729F41F2D1F7E2AE030E01DC01F2D16
:1005D000197F9F3661F0903720F4983509F0ACC050
:1005E0000FC0903739F0983709F0A6C004C028E052
:1005F00030E00AC0106114FD146020E130E004C056
:1006000014FD166020E132E017FF08C0F50160819B
:1006100071818281938144E050E008C0F5018081BE
:100620009181BC0180E090E042E050E0A40EB51E54
:10063000A1010E940B05D82ED2188FE7F82EF122C7
:10064000F6FE0BC05EEFF522D91438F4F4FE07C0B5
:10065000F2FC05C08FEEF82202C01D2D01C0192D3D
:10066000F4FE0DC0FE01ED0DF11D8081803319F403
:1006700099EEF92208C01F5FF2FE05C003C08F2D5E
:10068000867809F01F5F0F2DF3FC14C0F0FE0FC039
:100690001E1510F09D2C0BC09D2C9E0C911A1E2D2A
:1006A00006C080E290E0B3010E94DF041F5F1E15C8
:1006B000C0F304C01E1510F4E11A01C0EE2404FFBB
:1006C0000FC080E390E0B3010E94DF0402FF1DC071
:1006D00001FD03C088E790E00EC088E590E00BC004
:1006E000802F867891F001FF02C08BE201C080E28A
:1006F000F7FC8DE290E0B3010E94DF0406C080E3C6
:1007000090E0B3010E94DF049A94D914C0F3DA9404
:10071000F101ED0DF11D808190E0B3010E94DF0435
:10072000DD20A9F706C080E290E0B3010E94DF045B
:10073000EA94EE20C1F743CEF30166817781CB01C5
:100740002B96E2E10C9485050F931F93CF93DF93D3
:10075000689F8001699F100D789F100D1124C801BA
:100760000E94C003EC01009729F060E070E0A8014E
:100770000E94CD04CE01DF91CF911F910F9108957A
:10078000CF93DF93BC018230910510F462E070E0FA
:10079000A0914601B0914701ED01E0E0F0E040E0BA
:1007A00050E021C0888199818617970769F48A8172
:1007B0009B81309719F09383828304C09093470103
:1007C00080934601FE0134C06817790738F441155B
:1007D000510519F08417950708F4AC01FE018A81D0
:1007E0009B819C01E9012097E9F641155105A9F18A
:1007F000CA01861B970B049708F4BA01E0E0F0E009
:100800002AC08D919C91119784179507F9F464176C
:10081000750781F412968D919C911397309719F07A
:100820009383828304C09093470180934601FD0126
:1008300032964CC0CA01861B970BFD01E80FF91FC9
:100840006193719302978D939C9340C0FD018281C7
:1008500093819C01D9011097A1F680914401909158
:100860004501892B41F48091390190913A0190938F
:1008700045018093440140913B0150913C01411559
:10088000510541F44DB75EB7809137019091380121
:10089000481B590B2091440130914501CA01821B2C
:1008A000930B8617970780F0AB014E5F5F4F84175D
:1008B000950750F0420F531F509345014093440158
:1008C000F9016193719302C0E0E0F0E0CF01DF91A4
:1008D000CF910895CF93DF93009709F450C0EC01B6
:1008E00022971B821A82A0914601B091470110976E
:1008F00009F140E050E0AC17BD0708F1BB83AA83C3
:10090000FE0121913191E20FF31FAE17BF0779F479
:100910008D919C911197280F391F2E5F3F4F39837E
:10092000288312968D919C9113979B838A834115FE
:10093000510571F4D0934701C093460120C012962F
:100940008D919C911397AD01009711F0DC01D3CFED
:10095000FA01D383C28321913191E20FF31FCE17A5
:10096000DF0769F488819981280F391F2E5F3F4F77
:10097000FA01318320838A819B8193838283DF9173
:10098000CF910895FC010590615070400110D8F797
:10099000809590958E0F9F1F0895DC0101C06D9387
:1009A00041505040E0F70895FC01615070400190C3
:1009B0000110D8F7809590958E0F9F1F08950F9383
:1009C0001F93CF93DF938C01EB018B8181FF1BC0C1
:1009D00082FF0DC02E813F818C819D8128173907B0
:1009E00064F4E881F9810193F983E88306C0E8851E
:1009F000F985802F0995892B31F48E819F8101968D
:100A00009F838E8302C00FEF1FEFC801DF91CF914C
:100A10001F910F910895FA01AA27283051F1203132
:100A200081F1E8946F936E7F6E5F7F4F8F4F9F4F82
:100A3000AF4FB1E03ED0B4E03CD0670F781F891FC4
:100A40009A1FA11D680F791F8A1F911DA11D6A0F92
:100A5000711D811D911DA11D20D009F468943F9145
:100A60002AE0269F11243019305D3193DEF6CF0144
:100A70000895462F4770405D4193B3E00FD0C9F70A
:100A8000F6CF462F4F70405D4A3318F0495D31FD77
:100A90004052419302D0A9F7EACFB4E0A6959795CA
:100AA000879577956795BA95C9F7009761057105A0
:100AB00008959B01AC010A2E0694579547953795EA
:100AC0002795BA95C9F7620F731F841F951FA01D44
:100AD00008952F923F924F925F926F927F928F92E2
:100AE0009F92AF92BF92CF92DF92EF92FF920F93BD
:100AF0001F93CF93DF93CDB7DEB7CA1BDB0B0FB6C7
:100B0000F894DEBF0FBECDBF09942A883988488883
:100B10005F846E847D848C849B84AA84B984C88419
:100B2000DF80EE80FD800C811B81AA81B981CE0F10
:100B3000D11D0FB6F894DEBF0FBECDBFED010895F5
:040B4000F894FFCF57
:100B44000A0D0A74657374696E672E2E2E0A0D00E1
:100B54004D533220BDBAC5D7C7CE20B8F0C5CD207D
:100B6400B5E5B6F3C0CCB9F620C7C1B7CEB1D7B797
:0E0B7400A52E2E2E0A0D0020004801000000C4
:00000001FF
