:100000000C9446000C9465000C9465000C946500FB
:100010000C9465000C9465000C9465000C946500CC
:100020000C9465000C9465000C9465000C946500BC
:100030000C9465000C9465000C9465000C946500AC
:100040000C94F1000C9465000C9465000C94650010
:100050000C9465000C9465000C9465000C9465008C
:100060000C9465000C9465000C9465000C9465007C
:100070000C9465000C9465000C9465000C9465006C
:100080000C9465000C9465000C94650011241FBE4F
:10009000CFEFD0E1DEBFCDBF11E0A0E0B1E0E4ECF6
:1000A000FCE000E00BBF02C007900D92A431B10745
:1000B000D9F711E0A4E1B1E001C01D92A232B1076D
:1000C000E1F70E94C6010C9460060C940000DF93D7
:1000D000CF9300D00F92CDB7DEB789837B836A833D
:1000E00089810E947B0080E090E00F900F900F903C
:1000F000CF91DF910895DF93CF930F92CDB7DEB705
:100100008983EBE2F0E08081829586958770882F65
:1001100090E0817090700097A1F3ECE2F0E08981AB
:1001200080830F90CF91DF910895DF93CF93CDB768
:10013000DEB7EBE2F0E080818823DCF7ECE2F0E070
:100140008081882F90E0CF91DF910895DF93CF9346
:10015000CDB7DEB7EBE3F0E01082EAE3F0E0108227
:10016000E8E3F0E01082E7E3F0E08FEF8083E5E37F
:10017000F0E01082E4E3F0E01082E2E3F0E01082CD
:10018000E1E3F0E01082E3E2F0E01082E2E2F0E08E
:100190001082E2E6F0E01082E1E6F0E01082E5E6AF
:1001A000F0E01082E4E6F0E01082CF91DF91089554
:1001B000DF93CF93CDB7DEB7E3E5F0E01082E0E563
:1001C000F0E01082E2E5F0E08EEF8083E1E5F0E020
:1001D00082E08083E3E5F0E083E08083CF91DF91EC
:1001E00008951F920F920FB60F9200905B000F922E
:1001F00011242F933F938F939F93AF93BF93EF93CC
:10020000FF93DF93CF93CDB7DEB7E2E5F0E088EF61
:1002100080838091140190911501019690931501AE
:1002200080931401209114013091150180911601E1
:10023000909117018217930740F0A8E3B0E0E8E33C
:10024000F0E0808181608C9307C0A8E3B0E0E8E330
:10025000F0E080818E7F8C93809114019091150144
:100260002AE08C38920720F01092150110921401A8
:10027000CF91DF91FF91EF91BF91AF919F918F91BE
:100280003F912F910F9000925B000F900FBE0F9047
:100290001F901895DF93CF93CDB7DEB7EAE2F0E079
:1002A0001082EBE2F0E01082E5E9F0E086E0808386
:1002B000E9E2F0E087E68083E0E9F0E01082EAE23C
:1002C000F0E088E18083CF91DF910895DF93CF93B1
:1002D000CDB7DEB7F894EDE6F0E01082ECE6F0E0A2
:1002E00010820E94A6000E94D8000E944A0187E660
:1002F00090E060E070E00E943402E5E5F0E01082FA
:10030000EAE6F0E01082EAE5F0E01082E9E5F0E0EC
:100310001082E7E5F0E081E08083EDE7F0E0108215
:100320007894CF91DF910895DF93CF9300D000D0E0
:1003300000D0CDB7DEB79E838D8381E090E09A83B5
:10034000898314C081E090E09C838B8305C08B81FE
:100350009C8101969C838B838B819C818436910543
:10036000B4F389819A8101969A83898329813A819C
:100370008D819E81281739072CF326960FB6F894A5
:10038000DEBF0FBECDBFCF91DF910895DF93CF9336
:1003900000D000D00F92CDB7DEB788E290E09B830B
:1003A0008A830E94660100D0EDB7FEB7319680E0E7
:1003B00091E0918380830E9480020F900F90E1E68C
:1003C000F0E083E0808384E690E00E949401E7E31C
:1003D000F0E08FEF80830E949500898300D000D0E9
:1003E000EDB7FEB7319683E091E0918380838A81F7
:1003F0009B81938382830E9480020F900F900F90C5
:100400000F908981813619F08981813429F48A819C
:100410009B8101969B838A838981813719F0898129
:10042000813529F48A819B8101979B838A838A8104
:100430009B818932910520F488E290E09B838A8336
:100440008A819B818C38910520F08CE890E09B8319
:100450008A838A819B81909317018093160185E09E
:1004600090E00E949401B7CF0F931F93CF93DF9337
:100470008C01EB01009731F46115710519F420E04E
:1004800030E038C081E090E06EE070E00E949804B7
:10049000FC019C01009771F180E88383209771F043
:1004A000D387C28781E883838091180190911901D5
:1004B000892B21F4F0931901E0931801011511051E
:1004C000C9F01187008783818260838380911A013C
:1004D00090911B01892B71F4F0931B01E0931A0199
:1004E00080911C0190911D01892B21F4F0931D0135
:1004F000E0931C01C901DF91CF911F910F910895E5
:10050000DF93CF93CDB7DEB7FE0135966191719140
:1005100080911A0190911B01AF010E949202CF912C
:10052000DF9108952F923F924F925F926F927F9248
:100530008F929F92AF92BF92CF92DF92EF92FF92F3
:100540000F931F93DF93CF93CDB7DEB72B970FB6E3
:10055000F894DEBF0FBECDBF3C012B015A01FC0158
:1005600017821682838181FD03C06FEF7FEFC6C1C2
:100570009AE0892E1E010894211C311CF30123816D
:10058000F20123FD859123FF81912F01882309F436
:10059000B2C1853239F423FD859123FF81912F016A
:1005A000853229F490E0B3010E94D605E7CF982F59
:1005B000FF24EE249924FFE1FF15D0F09B3269F06F
:1005C0009C3228F4903259F0933291F40EC09D324F
:1005D00049F0903369F441E024C052E0F52A84E008
:1005E000F82A28C098E0F92A25C0E0E1FE2A22C0B6
:1005F000F7FC29C0892F80538A3070F4F6FE05C0BD
:10060000989C902C1124980E15C0E89CE02C112485
:10061000E80EF0E2FF2A0EC09E3229F4F6FC6BC110
:1006200040E4F42A07C09C3619F450E8F52A02C0C9
:10063000983649F4F20123FD959123FF91912F0102
:10064000992309F0B8CF892F8554833018F0805250
:10065000833038F444E050E0A40EB51E5FE35983C4
:100660000FC0933631F0933779F0933509F056C0C7
:1006700020C0F5018081898342E050E0A40EB51EC0
:10068000610101E010E012C0F501C080D180F6FCEC
:1006900003C06FEF7FEF02C0692D70E042E050E0D1
:1006A000A40EB51EC6010E94CB058C015FE7F522A2
:1006B00014C0F501C080D180F6FC03C06FEF7FEF5E
:1006C00002C0692D70E042E050E0A40EB51EC601E4
:1006D0000E94B9058C0150E8F52AF3FE07C01AC044
:1006E00080E290E0B3010E94D605EA948E2D90E05E
:1006F00008171907A8F30EC0F601F7FC8591F7FE5D
:1007000081916F0190E0B3010E94D605E110EA9457
:10071000015010400115110579F7EAC0943611F027
:10072000993669F5F7FE08C0F501208131814281D3
:10073000538184E090E00AC0F501808191819C01A1
:10074000442737FD4095542F82E090E0A80EB91E53
:100750009FE6F92257FF09C05095409530952195A5
:100760003F4F4F4F5F4FE0E8FE2ACA01B901A10198
:100770002AE030E00E940206D82ED21840C09537F9
:1007800029F41F2D1F7E2AE030E01DC01F2D197F88
:100790009F3661F0903720F4983509F0ACC00FC057
:1007A000903739F0983709F0A6C004C028E030E04F
:1007B0000AC0106114FD146020E130E004C014FD93
:1007C000166020E132E017FF08C0F50160817181F9
:1007D0008281938144E050E008C0F50180819181DD
:1007E000BC0180E090E042E050E0A40EB51EA10103
:1007F0000E940206D82ED2188FE7F82EF122F6FEBC
:100800000BC05EEFF522D91438F4F4FE07C0F2FCF9
:1008100005C08FEEF82202C01D2D01C0192DF4FE77
:100820000DC0FE01ED0DF11D8081803319F499EEAC
:10083000F92208C01F5FF2FE05C003C08F2D867825
:1008400009F01F5F0F2DF3FC14C0F0FE0FC01E1542
:1008500010F09D2C0BC09D2C9E0C911A1E2D06C0D5
:1008600080E290E0B3010E94D6051F5F1E15C0F321
:1008700004C01E1510F4E11A01C0EE2404FF0FC0DD
:1008800080E390E0B3010E94D60502FF1DC001FD88
:1008900003C088E790E00EC088E590E00BC0802F91
:1008A000867891F001FF02C08BE201C080E2F7FC84
:1008B0008DE290E0B3010E94D60506C080E390E08F
:1008C000B3010E94D6059A94D914C0F3DA94F101C9
:1008D000ED0DF11D808190E0B3010E94D605DD2071
:1008E000A9F706C080E290E0B3010E94D605EA9421
:1008F000EE20C1F743CEF30166817781CB012B96C1
:100900000FB6F894DEBF0FBECDBFCF91DF911F9120
:100910000F91FF90EF90DF90CF90BF90AF909F909E
:100920008F907F906F905F904F903F902F900895A1
:100930000F931F93CF93DF93689F8001699F100DE2
:10094000789F100D1124C8010E94B404EC01009797
:1009500029F060E070E0A8010E94C405CE01DF919B
:10096000CF911F910F910895CF93DF93BC018230F7
:10097000910510F462E070E0A0912001B091210196
:10098000ED01E0E0F0E040E050E021C08881998195
:100990008617970769F48A819B81309719F09383B2
:1009A000828304C09093210180932001FE0134C012
:1009B0006817790738F44115510519F08417950720
:1009C00008F4AC01FE018A819B819C01E90120971A
:1009D000E9F641155105A9F1CA01861B970B049749
:1009E00008F4BA01E0E0F0E02AC08D919C911197E3
:1009F00084179507F9F46417750781F412968D91A1
:100A00009C911397309719F09383828304C090933D
:100A1000210180932001FD0132964FC0CA01861B3F
:100A2000970BFD01E80FF91F6193719302978D9366
:100A30009C9343C0FD01828193819C01D901109751
:100A4000A1F680911E0190911F01892B41F48091A4
:100A500010019091110190931F0180931E0140910C
:100A60001201509113014115510541F44DB75EB784
:100A700080910E0190910F01481B590B20911E018E
:100A800030911F0124173507B0F4CA01821B930B64
:100A90008617970780F0AB014E5F5F4F841795076D
:100AA00050F0420F531F50931F0140931E01F90154
:100AB0006193719302C0E0E0F0E0CF01DF91CF914C
:100AC0000895CF93DF93009709F450C0EC0122976B
:100AD0001B821A82A0912001B0912101109709F187
:100AE00040E050E0AC17BD0708F1BB83AA83FE01CC
:100AF00021913191E20FF31FAE17BF0779F48D9169
:100B00009C911197280F391F2E5F3F4F39832883FF
:100B100012968D919C9113979B838A834115510561
:100B200071F4D0932101C093200120C012968D91C1
:100B30009C911397AD01009711F0DC01D3CFFA011E
:100B4000D383C28321913191E20FF31FCE17DF07C8
:100B500069F488819981280F391F2E5F3F4FFA0170
:100B6000318320838A819B8193838283DF91CF911C
:100B70000895FC010590615070400110D8F78095F0
:100B800090958E0F9F1F0895DC0101C06D93415019
:100B90005040E0F70895FC01615070400190011051
:100BA000D8F7809590958E0F9F1F08950F931F93F0
:100BB000CF93DF938C01EB018B8181FF1BC082FF00
:100BC0000DC02E813F818C819D812817390764F4E7
:100BD000E881F9810193F983E88306C0E885F98506
:100BE000802F0995892B31F48E819F8101969F83F7
:100BF0008E8302C00FEF1FEFC801DF91CF911F91CD
:100C00000F910895FA01AA27283051F1203181F17E
:100C1000E8946F936E7F6E5F7F4F8F4F9F4FAF4F04
:100C2000B1E03ED0B4E03CD0670F781F891F9A1F17
:100C3000A11D680F791F8A1F911DA11D6A0F711DCB
:100C4000811D911DA11D20D009F468943F912AE0D7
:100C5000269F11243019305D3193DEF6CF010895BF
:100C6000462F4770405D4193B3E00FD0C9F7F6CFF0
:100C7000462F4F70405D4A3318F0495D31FD4052B8
:100C8000419302D0A9F7EACFB4E0A695979587954E
:100C900077956795BA95C9F700976105710508952D
:100CA0009B01AC010A2E06945795479537952795D9
:100CB000BA95C9F7620F731F841F951FA01D089571
:040CC000F894FFCFD6
:100CC4000A0D0056616C75653A25640A0D00200012
:040CD40022010000F9
:00000001FF
