:100000000C9446000C945D000C945D000C945D0013
:100010000C945D000C945D000C945D000C945D00EC
:100020000C945D000C945D000C945D000C945D00DC
:100030000C945D000C945D000C945D000C945D00CC
:100040000C945D000C945D000C945D000C945D00BC
:100050000C945D000C945D000C945D000C945D00AC
:100060000C945D000C945D000C945D000C945D009C
:100070000C945D000C945D000C945D000C945D008C
:100080000C945D000C945D000C945D0011241FBE67
:10009000CFEFD0E1DEBFCDBF11E0A0E0B1E0E6E8F8
:1000A000F2E000E00BBF02C007900D92A030B10754
:1000B000D9F70E94E4000C9441010C940000DF93F6
:1000C000CF93CDB7DEB7EBE3F0E01082EAE3F0E0E8
:1000D0001082E8E3F0E01082E7E3F0E01082E5E36D
:1000E000F0E01082E4E3F0E08FEF8083E2E3F0E001
:1000F0001082E1E3F0E01082E3E2F0E01082E2E25D
:10010000F0E01082E2E6F0E01082E1E6F0E010823A
:10011000E5E6F0E01082E4E6F0E08FEF8083CF9137
:10012000DF910895DF93CF93CDB7DEB7F894EDE676
:10013000F0E01082ECE6F0E010820E945F00E5E55E
:10014000F0E01082EAE6F0E01082EAE5F0E01082EA
:10015000E9E5F0E01082E7E5F0E01082EDE7F0E09D
:1001600010827894CF91DF910895DF93CF9300D0E0
:1001700000D000D0CDB7DEB79E838D831C821B825A
:1001800014C01A82198205C089819A8101969A83C6
:10019000898329813A818D819E8128173907A4F3AB
:1001A0008B819C8101969C838B838B819C8123E036
:1001B000883E920734F326960FB6F894DEBF0FBE42
:1001C000CDBFCF91DF910895DF93CF93CDB7DEB749
:1001D0000E949200A5E3B0E0E5E3F0E080818B7F30
:1001E0008C93A5E3B0E0E5E3F0E0808181608C933F
:1001F000A5E3B0E0E5E3F0E08081877F8C93A5E3A1
:10020000B0E0E5E3F0E080818F7B8C93A5E3B0E084
:10021000E5E3F0E0808180618C93A5E3B0E0E5E365
:10022000F0E080818F778C93A5E3B0E0E5E3F0E028
:10023000808182608C93A5E3B0E0E5E3F0E080810B
:1002400080628C93E5E6F0E081E0808380ED97E0CA
:100250000E94B500A5E3B0E0E5E3F0E080818D7F8A
:100260008C93A5E3B0E0E5E3F0E080818F7D8C9393
:10027000E5E6F0E082E0808380ED97E00E94B50043
:06028000D3CFF894FFCF7C
:00000001FF
