:100000000C9446000C9465000C9465000C946500FB
:100010000C9465000C9465000C9465000C946500CC
:100020000C9465000C9465000C9465000C946500BC
:100030000C9465000C9465000C9465000C946500AC
:100040000C94B5000C9465000C9465000C9465004C
:100050000C9465000C9465000C9465000C9465008C
:100060000C9465000C9465000C9465000C9465007C
:100070000C9465000C9465000C9465000C9465006C
:100080000C9465000C9465000C94650011241FBE4F
:10009000CFEFD0E1DEBFCDBF11E0A0E0B1E0E6EFF1
:1000A000F4E000E00BBF02C007900D92A830B1074A
:1000B000D9F711E0A8E0B1E001C01D92A634B10764
:1000C000E1F70E9424010C9479020C940000DF9364
:1000D000CF93CDB7DEB7EBE3F0E01082EAE3F0E0D8
:1000E0008FEF8083E8E3F0E01082E7E3F0E08FEF4A
:1000F0008083E5E3F0E01082E4E3F0E08FEF8083BB
:10010000E2E3F0E01082E1E3F0E01082E3E2F0E00D
:100110001082E2E2F0E01082E2E6F0E01082E1E636
:10012000F0E01082E5E6F0E01082E4E6F0E083E043
:100130008083CF91DF910895DF93CF93CDB7DEB762
:10014000E3E5F0E01082E0E5F0E01082E2E5F0E0C7
:100150008CEF8083E1E5F0E084E08083E3E5F0E08C
:1001600083E08083CF91DF9108951F920F920FB6A5
:100170000F9200905B000F9211248F939F93EF9347
:10018000FF93DF93CF93CDB7DEB7E2E5F0E08EEFDC
:10019000808380914401909145010196909345019F
:1001A00080934401CF91DF91FF91EF919F918F91C7
:1001B0000F9000925B000F900FBE0F901F9018954C
:1001C000DF93CF93CDB7DEB7F894EDE6F0E0108281
:1001D000ECE6F0E010820E9467000E949C00E5E5DA
:1001E000F0E01082EAE6F0E01082EAE5F0E010824A
:1001F000E9E5F0E01082E7E5F0E081E08083EDE7FB
:10020000F0E010827894CF91DF910895DF93CF933F
:1002100000D000D0CDB7DEB79C838B831A821982C1
:1002200005C089819A8101969A83898329813A81BF
:100230008B819C8128173907A0F30F900F900F90A6
:100240000F90CF91DF910895DF93CF93CDB7DEB7B5
:100250002E970FB6F894DEBF0FBECDBFCE0102962B
:100260009B878A87E0E0F1E0FD87EC87F8E0FE8776
:10027000EC85FD8500808C859D8501969D878C870A
:10028000EA85FB8500828A859B8501969B878A8704
:100290009E8591509E87EE85EE2351F70E94E000E7
:1002A00088EE93E00E9406018FE090E090930901B0
:1002B0008093080186E190E090930B0180930A01FE
:1002C0008DE190E090930D0180930C0184E290E029
:1002D00090930F0180930E018CE290E090931101B6
:1002E0008093100183E390E09093130180931201B7
:1002F00086E390E090931501809314018CE390E0E5
:10030000909317018093160188EE93E00E940601F6
:100310008FE090E090931D0180931C0186E190E0B6
:1003200090931F0180931E018DE190E09093210135
:100330008093200184E290E0909323018093220136
:100340008CE290E0909325018093240183E390E078
:10035000909327018093260186E390E090932901F2
:10036000809328018CE390E090932B0180932A01E5
:1003700088EE93E00E9406018FE090E090933101B7
:100380008093300186E190E09093330180933201B5
:100390008DE190E0909335018093340184E290E008
:1003A00090933701809336018CE290E0909339016D
:1003B0008093380183E390E090933B0180933A016E
:1003C00086E390E090933D0180933C018CE390E0C4
:1003D00090933F0180933E0188EE93E00E940601D6
:1003E0008091440190914501F3E0893E9F0790F090
:1003F000F894EBE3F0E08FEF8083E8E3F0E08FEF39
:100400008083E5E3F0E08FEF808310924501109246
:1004100044017894F894198266C08981882F90E00D
:10042000880F991FFC01E85FFE4F20813181809188
:100430004401909145012817390780F4ABE3B0E0FF
:10044000EBE3F0E040818981282F30E0CE01029675
:10045000FC01E20FF31F808184238C938981882F14
:1004600090E0880F991FFC01E45EFE4F20813181EE
:1004700080914401909145012817390780F4A8E341
:10048000B0E0E8E3F0E040818981282F30E0CE0140
:100490000296FC01E20FF31F808184238C938981F3
:1004A000882F90E0880F991FFC01E05DFE4F2081AE
:1004B000318180914401909145012817390780F4DA
:1004C000A5E3B0E0E5E3F0E040818981282F30E04A
:1004D000CE010296FC01E20FF31F808184238C93EE
:1004E00089818F5F89838981883008F496CF7894D9
:0604F00077CFF894FFCF66
:0804F600FEFDFBF7EFDFBF7F05
:00000001FF
