:100000000C9446000C9465000C9465000C946500FB
:100010000C9465000C9465000C9465000C946500CC
:100020000C9465000C9465000C9465000C946500BC
:100030000C9465000C9465000C9465000C946500AC
:100040000C94B4000C9465000C9465000C9465004D
:100050000C9465000C9465000C9465000C9465008C
:100060000C9465000C9465000C9465000C9465007C
:100070000C9465000C9465000C9465000C9465006C
:100080000C9465000C9465000C94650011241FBE4F
:10009000CFEFD0E1DEBFCDBF11E0A0E0B1E0E6E4FC
:1000A000F4E000E00BBF02C007900D92A830B1074A
:1000B000D9F711E0A8E0B1E001C01D92AA32B10762
:1000C000E1F70E9423010C9421020C940000DF93BD
:1000D000CF93CDB7DEB7EBE3F0E01082EAE3F0E0D8
:1000E0008FEF8083E8E3F0E01082E7E3F0E0108236
:1000F000E5E3F0E01082E4E3F0E08FEF8083E2E3F9
:10010000F0E01082E1E3F0E01082E3E2F0E0108240
:10011000E2E2F0E01082E2E6F0E01082E1E6F0E0F8
:100120001082E5E6F0E01082E4E6F0E083E0808310
:10013000CF91DF910895DF93CF93CDB7DEB7E3E59D
:10014000F0E01082E0E5F0E01082E2E5F0E08BEF15
:100150008083E1E5F0E085E08083E3E5F0E083E0A3
:100160008083CF91DF9108951F920F920FB60F9267
:1001700000905B000F9211248F939F93EF93FF9356
:10018000DF93CF93CDB7DEB7E2E5F0E08CEE80836E
:1001900080912801909129010196909329018093E3
:1001A0002801CF91DF91FF91EF919F918F910F9057
:1001B00000925B000F900FBE0F901F901895DF9379
:1001C000CF93CDB7DEB7F894EDE6F0E01082ECE621
:1001D000F0E010820E9467000E949B00E5E5F0E0DD
:1001E0001082EAE6F0E01082EAE5F0E01082E9E54C
:1001F000F0E01082E7E5F0E081E08083EDE7F0E0F9
:1002000010827894CF91DF910895DF93CF9300D03F
:1002100000D0CDB7DEB79C838B831A82198205C0CC
:1002200089819A8101969A83898329813A818B8178
:100230009C8128173907A0F30F900F900F900F9013
:10024000CF91DF910895DF93CF93CDB7DEB72E978F
:100250000FB6F894DEBF0FBECDBFCE0102969B87CE
:100260008A87E0E0F1E0FD87EC87F8E0FE87EC8527
:10027000FD8500808C859D8501969D878C87EA850C
:10028000FB8500828A859B8501969B878A879E8550
:1002900091509E87EE85EE2351F70E94DF0088EE95
:1002A00093E00E9405018CE090E090930901809317
:1002B00008018FE090E090930B0180930A0184E1A4
:1002C00090E090930D0180930C0189E190E0909370
:1002D0000F0180930E018EE190E0909311018093C5
:1002E000100183E290E0909313018093120188E261
:1002F00090E090931501809314018DE290E090932B
:1003000017018093160188EE93E00E9405018CE0AE
:1003100090E090931901809318018FE090E0909302
:100320001B0180931A0184E190E090931D0180935A
:100330001C0189E190E090931F0180931E018EE1E2
:1003400090E0909321018093200183E290E09093CC
:1003500023018093220188E290E09093250180930D
:1003600024018DE290E0909327018093260188EE8E
:1003700093E00E9405018091280190912901F5E008
:100380008D3D9F0760F0EBE3F0E08FEF8083E5E3C6
:10039000F0E08FEF80831092290110922801F894E9
:1003A000198245C08981882F90E0880F991FFC0130
:1003B000E85FFE4F208131818091280190912901D1
:1003C0002817390780F4ABE3B0E0EBE3F0E04081BD
:1003D0008981282F30E0CE010296FC01E20FF31F45
:1003E000808184238C938981882F90E0880F991FC6
:1003F000FC01E85EFE4F20813181809128019091BF
:1004000029012817390780F4A5E3B0E0E5E3F0E01F
:1004100040818981282F30E0CE010296FC01E20F55
:10042000F31F808184238C9389818F5F89838981E5
:10043000883008F4B7CF78948AE090E00E940501F4
:060440009ACFF894FFCFF3
:08044600FEFDFBF7EFDFBF7FB5
:00000001FF
