:100000000C9446000C9465000C9465000C946500FB
:100010000C9465000C9465000C9465000C946500CC
:100020000C9465000C9465000C9465000C946500BC
:100030000C9465000C9465000C9465000C946500AC
:100040000C94B3000C9465000C9465000C9465004E
:100050000C9465000C9465000C9465000C9465008C
:100060000C9465000C9465000C9465000C9465007C
:100070000C9465000C9465000C9465000C9465006C
:100080000C9465000C9465000C94650011241FBE4F
:10009000CFEFD0E1DEBFCDBF11E0A0E0B1E0ECE1F9
:1000A000F3E000E00BBF02C007900D92A030B10753
:1000B000D9F711E0A0E0B1E001C01D92A230B10774
:1000C000E1F70E9461010C948C010C940000DF9315
:1000D000CF93CDB7DEB7EBE3F0E01082EAE3F0E0D8
:1000E0001082E8E3F0E01082E7E3F0E01082E5E35D
:1000F000F0E01082E4E3F0E08FEF8083E2E3F0E0F1
:100100001082E1E3F0E08FEF8083E3E2F0E0108221
:10011000E2E2F0E01082E2E6F0E01082E1E6F0E0F8
:100120001082E5E6F0E01082E4E6F0E01082CF9184
:10013000DF910895DF93CF93CDB7DEB7E3E5F0E02D
:100140001082E0E5F0E01082E2E5F0E083E88083F1
:10015000E1E5F0E08DE78083E3E5F0E083E0808394
:10016000CF91DF9108951F920F920FB60F920090DA
:100170005B000F9211242F938F939F93AF93BF93A4
:10018000EF93FF93DF93CF93CDB7DEB7E2E5F0E0D7
:1001900088E38083A5E3B0E0E5E3F0E0908181E0CF
:1001A00089278C93A5E3B0E0E5E3F0E0908184E05B
:1001B00089278C9380910001909101010196909381
:1001C000010180930001809100019091010127E2DB
:1001D0008031920760F01092010110920001A5E6B3
:1001E000B0E0E5E6F0E0908183E089278C93CF9141
:1001F000DF91FF91EF91BF91AF919F918F912F91DF
:100200000F9000925B000F900FBE0F901F901895FB
:10021000DF93CF93CDB7DEB7F894EDE6F0E0108230
:10022000ECE6F0E010820E9467000E949A00E5E58B
:10023000F0E01082EAE6F0E01082EAE5F0E01082F9
:10024000E9E5F0E01082E7E5F0E081E08083EDE7AA
:10025000F0E010827894CF91DF910895DF93CF93EF
:1002600000D000D000D0CDB7DEB79E838D8381E073
:1002700090E09A83898315C081E090E09C838B8312
:1002800005C08B819C8101969C838B838B819C8193
:1002900022E088359207ACF389819A8101969A838E
:1002A000898329813A818D819E812817390724F31A
:1002B00026960FB6F894DEBF0FBECDBFCF91DF916B
:1002C0000895DF93CF93CDB7DEB70E940801E4E332
:1002D000F0E08FEF8083A5E3B0E0E5E3F0E080811C
:1002E00080688C93A5E3B0E0E5E3F0E080818F7C4B
:1002F0008C93A5E3B0E0E5E3F0E0808182608C932D
:10030000A5E3B0E0E5E3F0E08081877F8C93E5E64C
:0C031000F0E081E08083FFCFF894FFCF85
:00000001FF
